:020000040800F2
:1000000000000220B50C0008B10C0008B10C00087B
:10001000B10C0008B10C0008B10C00080000000091
:10002000000000000000000000000000B10C00080B
:10003000B10C000800000000B10C0008B10C000871
:10004000B10C0008B10C0008B10C0008B10C00089C
:10005000B10C0008B10C00080D0A0008B10C000832
:10006000B10C0008B10C0008B10C0008B10C00087C
:10007000B10C0008B10C0008B10C0008B10C00086C
:10008000B10C0008B10C0008B10C0008B10C00085C
:10009000B10C0008B10C0008B10C0008B10C00084C
:1000A000B10C0008B10C0008B10C0008B10C00083C
:1000B000B10C0008B10C0008B10C0008B10C00082C
:1000C000B10C0008B10C0008B10C0008B10C00081C
:1000D000B10C0008B10C0008B10C0008B10C00080C
:0400E000B10C000857
:1000F00010B5054C237833B9044B13B10448AFF362
:1001000000800123237010BD780000200000000053
:10011000641A000808B5034B1BB103490348AFF349
:10012000008008BD000000007C000020641A000868
:100130002D4A036893421FD02C4A934215D02C4A73
:10014000934227D02B4A93422BD02B4A93421AD06A
:100150002A4A93422CD02A4A934237D0294A9342C2
:100160003BD0294A93422AD0704702F55052136B74
:1001700043F002031363704702F56052136B43F0C0
:1001800001031363704702F52052136B43F0100311
:100190001363704702F54052136B43F0040313637B
:1001A000704702F53052136B43F008031363704736
:1001B00002F51052136B43F020031363704702F5EE
:1001C000C052136B43F480731363CDE702F5005202
:1001D000136B43F040031363704702F5E052136B57
:1001E00043F08003136370470000024000040240A4
:1001F00000080240000C02400010024000140240BF
:1002000000180240001C0240002002402DE9F84F77
:100210001646C0E90012FFF78BFF0546376800233A
:1002200001224FF0030802E00133102B2FD002FA15
:1002300003FE3EEA0700F7D170685C0020F0100969
:1002400008FA04FAB9F1020F6FEA0A0C09F1FF3952
:1002500020D0D1F800B02BEA0A0B00F0030A0AFA0A
:1002600004FA4AEA0B0AB9F1010FC1F800A03BD920
:10027000B068D1F80CE000F003000EEA0C0C00FAB4
:1002800004F4013344EA0C04102BCC60CFD128468F
:10029000BDE8F88F34694FEAD30901EB890903F00F
:1002A000070C4FEA8C0C4FF00F0A04F00F0404FA0D
:1002B0000CF40AFA0CFCD9F820A02AEA0C0C44EA47
:1002C0000C04C9F82040D1F800A05C0008FA04FC36
:1002D00000F003092AEA0C0A09FA04F949EA0A09B2
:1002E0006FEA0C0CC1F80090D1F808A0D6F80C9079
:1002F0000AEA0C0A09FA04F949EA0A09C1F808905D
:10030000D1F80490C0F30010984029EA0E0E40EA9C
:100310000E004860ACE700BFF0B4541E012C027020
:100320004370416040F29F80DAB97C4CA14267D0B3
:10033000A4F54C44A14200F0CA8104F58064A142B6
:1003400000F0488104F58064A14200F0368204F593
:100350008064A14200F0848204F54444A14200F08C
:10036000B880002B40F2836C4FF000040CBF8B234D
:1003700063460D684D688B600C614C61002A00F08B
:10038000CA80012A40F0C4800823CB60CB6843F4C4
:100390000053F0BCCB607047614D6E6C46F01006A8
:1003A0006E642E6B46F002062E6304F5744400263C
:1003B000CE60266826F440562660266846F400562D
:1003C0002660266A26F070662662266A46F0E06697
:1003D00026622C6B44F001042C63524C256825F4F2
:1003E00040252560256845F400252560656A25F0CF
:1003F000F0056562656A022A45F070056562B0D154
:10040000474D464E6C6C44F010046C642C6B44F009
:1004100002042C630027444CF760266826F440460B
:100420002660266846F400462660266A26F0704656
:100430002662266A46F0E04626622C6B44F00104F0
:100440002C63384C256825F440152560256845F453
:1004500000152560656A25F470656562656A45F476
:10046000E06565627DE72D4CA14295D02F4CA142FD
:1004700000F0F8802E4CA14262D02E4CA14200F038
:1004800067812D4CA14200F0CB812C4CA1427FF41E
:1004900068AF234D6E6C46F020066E642E6B46F0FE
:1004A00004062E6304F574440025CD60256825F408
:1004B00040552560256845F400552560256A25F0DE
:1004C00070652562256A022A45F0006525627FF481
:1004D00048AF134C194E656C45F020056564256BDB
:1004E00045F004052563A4F540540025F560256812
:1004F00025F440452560256845F400452560256ABA
:1005000025F070452562256A45F00045256228E7FB
:100510000C23CB603AE70423CB6037E7001001409F
:100520000038024000000240000402400044004045
:1005300000480040004C00400050004000140140C2
:100540007C4D2E6C46F480262E642E6B46F00206FF
:100550002E6304F5DE340026CE60266826F44016AD
:100560002660266846F400162660666A26F47066E1
:100570006662666A46F4E06666622C6B6E4E44F014
:1005800008042C6337686D4C27F4403737603768B0
:1005900047F400373760776A27F00F077762776A8A
:1005A00047F0070777622E6B46F004062E63256836
:1005B00025F440152560256845F400152560656A19
:1005C00025F470656562656A022A45F4E065656236
:1005D0007FF4C7AE574D5A4E2C6C44F480242C64E3
:1005E0002C6B44F002042C630027564CF7602668FD
:1005F00026F440062660266846F400062660666AF1
:1006000026F470466662666A46F4E04666622C6BC3
:10061000494E44F008042C633768484C27F44027BF
:100620003760376847F400273760776A27F0F007AC
:100630007762776A47F0700777622E6B46F00406A0
:100640002E63256825F440052560256845F40005DE
:100650002560656A25F470456562656A45F4E04584
:1006600065627EE6334D2E6C46F400362E642E6BAA
:1006700046F001062E6304F5DE340026CE602668BF
:1006800026F030062660266846F020062660266A98
:1006900026F470662662266A46F4E06626622C6BB3
:1006A00044F008042C63244C256825F4406525603B
:1006B000256845F400652560256A25F470052562E6
:1006C000256A022A45F4E00525627FF44AAE194DF9
:1006D0001D4E2C6C44F400342C642C6B44F001044B
:1006E0002C630027194CF760266826F0C0062660A8
:1006F000266846F080062660266A26F47046266242
:10070000266A46F4E04626622C6B44F008042C630B
:10071000094C256825F440552560256845F40055A9
:100720002560256A25F070652562256A45F0E0653B
:10073000256216E600380240000C02400008024024
:100740000048004000040240004400400000024015
:10075000534D2E6C46F400262E642E6B46F0010697
:100760002E6304F5DA340026CE60266826F00306F0
:100770002660266846F002062660266A26F00F06E6
:100780002662266A46F0080626622C6B44F00404B2
:100790002C63444C256825F440152560256845F4F4
:1007A00000152560656A25F470656562656A022A30
:1007B00045F4006565627FF4D4AD394D3A4E2C6C3A
:1007C00044F400242C642C6B44F001042C630027B7
:1007D000364CF760266826F00C062660266846F040
:1007E00008062660266A26F0F0062662266A46F08B
:1007F000800626622C6B44F004042C63294C256887
:1008000025F440052560256845F400052560656AE6
:1008100025F470456562656A45F400456562A0E5AA
:100820001F4D2E6C46F480162E642E6B46F0040687
:100830002E6304F5DC340025CD60256825F0407575
:100840002560256845F000752560656A25F47025EA
:100850006562656A022A45F4002565627FF481AD10
:100860000F4C134E256C45F480152564256B45F01F
:1008700008052563A4F530540025F560256825F0AA
:1008800030052560256845F020052560256A25F49A
:1008900070652562256A45F40065256261E500BF43
:1008A0000038024000080240004C004000000240B6
:1008B000005000400B460978A1B110B442680D24E5
:1008C00018460A2909D013681B06FCD5516010F898
:1008D000011F0029F5D110BC704713681B06FCD519
:1008E0005460F0E7704700BF2E4A30B4536C43F4B5
:1008F00080435364027D02F0FC0303F1804303F55F
:100900009C3302F003049D68A1000F248C4025EA6B
:1009100004049C60447D9D688C402C4322499C606B
:100920000C68012393401C430C608C681C438C6052
:10093000CC6824EA0303CB609AB1012A1ED0022AB4
:1009400025D0032A1ED0042A26D00A2A35BF172113
:1009500028214FF400044FF4807434BF0022012298
:1009600001E006214024837D10481B010144DBB2D5
:1009700081F8003340F8224030BC704707218024C2
:100980000022F0E709214FF400740022EBE7082170
:100990004FF480740022E6E70A214FF480640022BD
:1009A000E1E700BF00380240003C014000E100E008
:1009B00030B583B05FEA520E04469DF82050079888
:1009C00022D04FF0000C0CF1010C5FEA5E0E5FFAD2
:1009D0008CFCF8D1C4E90023069B84F814C0C4E958
:1009E00002300023236101F13F4303F57E039B0A9C
:1009F00063752246A5756846FFF708FC2046FFF799
:100A000073FF204603B030BDF446E3E7024B0122FA
:100A10005A6100F033B900BF003C01402DE9F041BC
:100A20008AB06F4687E80300164600F031F910B926
:100A30000AB0BDE8F08100F0FDF8002835D01F496C
:100A4000DFF87C803846FFF735FF002501352B465F
:100A50004246202102A800F069FB384602A9FFF7B0
:100A600029FF3068B0B13446012100F0BFF9154BC1
:100A700000BF1946013B0029FAD1206800F0B6F901
:100A8000114B00BF1A46013B002AFAD154F8040F5B
:100A90000028E9D1052DD9D10C493846FFF70AFFC6
:100AA00000F0E4F80AB0BDE8F08100F0E7F808498A
:100AB0003846FFF7FFFE0AB0BDE8F08114190008C0
:100AC0003C1900083F0D03009F86010054190008DF
:100AD000F01800082DE9F04F8BB06D4685E8030053
:100AE000164600F0B5F82249DFF888A0DFF88890B4
:100AF000DFF88880224F2846FFF7DCFE002401340F
:100B000023464A46202102A800F010FB284602A9ED
:100B1000FFF7D0FE306838B1B346022100F066F925
:100B20005BF8040F0028F8D1D8F81430154913F4F5
:100B3000805F18BF39462846FFF7BCFE124B00BF46
:100B40001A46013B002AFAD19AF8003053B9052C15
:100B5000D5D10E492846FFF7ADFE00F087F80BB05F
:100B6000BDE8F08F95E803003246FFF757FFEEE748
:100B700090190008D50000203C190008000C024024
:100B800070190008801900087F841E00AC19000845
:100B900008B508490848084C084DFFF78BFE94E853
:100BA00003002A46FFF796FF94E803002A46FFF762
:100BB00035FFF4E7C8190008AC0000200000002051
:100BC00030B5002285B00121124800F0ADF80022B6
:100BD0001146114800F0A8F8002202210F4800F049
:100BE000A3F8002203210E4800F09EF80024012201
:100BF0000225CDE9014223460A4900950A48FFF73C
:100C0000D7FE0A490A4823462A4605B0BDE83040C7
:100C1000FFF782BB9C000020A4000020CC00002035
:100C20009400002000000240B40000200044004076
:100C3000AC00002072B6054B1A78002A05BF0122CD
:100C4000012000201A7062B6704700BFD400002057
:100C50000549012072B60B7803F0FF0203B9087052
:100C600062B6002AF6D17047D400002072B6024B5B
:100C700000221A7062B67047D400002072B6034B8F
:100C80001A780AB901221A7062B67047D50000209E
:100C900072B6064B1A78002A14BF0120002003D038
:100CA0001A78013AD2B21A7062B67047D5000020A5
:100CB000FEE700BF0F48104A904208B507D2013A3C
:100CC000121A22F003020D49043200F02BF90C48ED
:100CD0000C4A904207D2013A121A22F0030204325F
:100CE000002100F02DF900F00FF800F0EFF8FFF709
:100CF0004FFFFEE70000002078000020741A000873
:100D000078000020EC000020704700BF704700BF53
:100D100000207047704700BF10B50821044600F05E
:100D2000D1F8204610BD00BF30B42D4C2D4D236BA3
:100D3000056043F00803017142712363032914D84D
:100D4000DFE801F03B022815274B196821F04071BC
:100D50001960196841F080711960012A5A690CBF45
:100D600042F4805222F480525A6130BC70471E4BCC
:100D7000196821F040411960196841F080411960FB
:100D8000012A5A690CBF42F4004222F4004230BCEE
:100D90005A617047144B196821F040611960196855
:100DA00041F080611960012A5A690CBF42F4005277
:100DB00022F4005230BC5A6170470B4B196821F085
:100DC00040511960196841F080511960012A5A692F
:100DD0000CBF42F4804222F4804230BC5A6170471A
:100DE00000380240081A0008000C024003794171E3
:100DF000032B14D8DFE803F03C281402304B1A68A8
:100E000022F040421A601A6842F080421A600129BA
:100E10005A6945D002294FD022F400425A617047E6
:100E2000274B1A6822F040621A601A6842F080620A
:100E30001A6001295A692FD002290CBF82F400528E
:100E400022F400525A6170471D4B1A6822F040721A
:100E50001A601A6842F080721A6001295A6927D014
:100E600002290CBF82F4805222F480525A617047EA
:100E7000134B1A6822F040521A601A6842F08052EE
:100E80001A6001295A690FD002290CBF82F48042EE
:100E900022F480425A61704742F400525A6170470E
:100EA00042F400425A61704742F480425A617047EE
:100EB00042F480525A61704782F400425A6170478E
:100EC000000C024000F000B800F024B870B50D4DE1
:100ED0000D4C641BA4100026A64209D10B4D0C4CEE
:100EE00000F0B4FD641BA4100026A64205D170BD1D
:100EF00055F8043B98470136EEE755F8043B984710
:100F00000136F2E7681A0008681A0008681A000833
:100F1000701A0008024B0146186800F019B800BFAB
:100F2000140000200A44914200F1FF3300D17047C1
:100F300010B511F8014B03F8014F9142F9D110BDE2
:100F400002440346934200D1704703F8011BF9E7BE
:100F500038B50546002941D051F8043C0C1F002B40
:100F6000B8BFE41800F016F91D4A136833B963607E
:100F700014602846BDE8384000F012B9A34208D9F1
:100F8000206821188B4201BF19685B68091821602D
:100F9000EDE71A465B680BB1A342FAD91168501805
:100FA000A0420BD120680144501883421160E0D167
:100FB00018685B68536001441160DAE702D90C23BA
:100FC0002B60D6E7206821188B4204BF19685B6844
:100FD000636004BF091821605460CAE738BD00BFD0
:100FE000D800002070B50E4E0C463168054611B988
:100FF00000F08CF830602146284600F087F8431C4A
:101000000AD0C41C24F00304A04207D0211A2846A9
:1010100000F07CF8013001D14FF0FF34204670BD64
:10102000DC0000202DE9F041CD1C25F0030508353A
:101030000C2D38BF0C25002D074601DBA94205D930
:101040000C233B6000263046BDE8F0812E4E00F0B8
:10105000A1F833681C4634BB29463846FFF7C2FF67
:10106000431C04464DD134682646002E40D12368E7
:101070003146384604EB030800F048F880453AD181
:10108000216803356D1A25F0030508350C2D38BF8E
:101090000C2529463846FFF7A5FF01302BD02368E1
:1010A0002B4423600EE02268521B1ED40B2A16D953
:1010B0006119A342256018BF5960636808BF316099
:1010C00062514B60384604F10B0600F069F826F0D7
:1010D0000706231DF21AB6D09B1BA350B3E7626824
:1010E000A3420CBF32605A60ECE723466468B2E763
:1010F00034467668B9E70C233B60384600F050F878
:10110000A1E72560DEE700BFD800002038B5064D16
:101110000023044608462B6000F0DCFB431C02D190
:101120002B6803B1236038BDE00000200CB430B55B
:10113000174B0C1E1D689DB008DA8B232B604FF0F7
:10114000FF301DB0BDE8304002B070474FF402736D
:10115000ADF8143014BF04F1FF3323460493079312
:101160004FF6FF7302900690ADF81630209A21AB2F
:1011700002A92846019300F075F8431CBCBF8B23DD
:101180002B60002CDDD0029B00221A70D9E700BF33
:1011900014000020014800F0F9BA00BFE40000206C
:1011A000014800F0F4BA00BFE40000202DE9F04748
:1011B0008E689E4282460C4690461F4638D88A89E1
:1011C00012F4906F32D025680969A5EB01096569B1
:1011D00005EB450505EBD57501334B446D109D427C
:1011E00038BF1D46530531D52946FFF71BFF06467C
:1011F00050B90C23CAF80030A38943F04003A381FF
:101200004FF0FF30BDE8F08721694A46FFF78AFEBC
:10121000A38923F4906343F08003A3812661656171
:101220004E44A5EB09052660A5603E46BE4200D9A6
:101230003E4620683246414600F0FAFAA3689B1BFE
:10124000A3602368334423600020DBE72A4600F0D4
:1012500009FB06460028E1D121695046FFF778FED8
:10126000C7E700002DE9F04F98468B891B069DB01B
:1012700007460D4614460ED50B6963B94021FFF7AA
:10128000D1FE2860286120B90C233B604FF0FF306D
:10129000D1E040236B610023099320238DF829308E
:1012A000CDF80C803023DFF8A8818DF82A304FF07C
:1012B000010923469A4613F8012B0AB1252AF9D1D0
:1012C000BAEB040B0BD05B46224629463846FFF7A3
:1012D0006DFF013000F0AA80099A5A4409929AF8E9
:1012E0000030002B00F0A28000234FF0FF32CDE948
:1012F00005230AF1010A049307938DF853301A93DA
:101300005446052214F8011B514800F041FA049A92
:10131000D8B9D00644BF20238DF85330110744BFFD
:101320002B238DF853309AF800302A2B15D0079ACA
:10133000544600204FF00A0C214611F8013B303B87
:10134000092B4ED9B0B1079214E0A0EB080309FABB
:1013500003F313430493A246D2E7039B191D1B68B2
:101360000391002BBBBF5B4242F00202079307933D
:10137000B8BF049223782E2B0CD163782A2B35D159
:10138000039B1A1D1B680392002BB8BF4FF0FF335D
:1013900002340593DFF8BCA021780322504600F008
:1013A000F7F940B14023A0EB0A0003FA00F0049BD8
:1013B00003430134049314F8011B27488DF82810C7
:1013C000062200F0E5F9002838D0244B1BBB039B14
:1013D000073323F0070308330393099B334409932E
:1013E00067E70CFB02320C460120A5E7002301341D
:1013F000059319464FF00A0C204610F8012B303A9D
:10140000092A03D9002BC5D00591C3E70CFB0121A4
:1014100004460123F0E703AB00932A46104B04A9CE
:101420003846AFF30080421C0646D6D1AB895B0636
:101430003FF52CAF09981DB0BDE8F08F03AB0093CA
:101440002A46074B04A9384600F07AF8EBE700BFBC
:10145000181A00081E1A0008221A000800000000CE
:10146000AD1100082DE9F047164699468A680B69C8
:10147000DDF820809342B8BF1346336091F84320D3
:1014800007460C460AB1013333602368990642BF10
:10149000336802333360256815F0060506D104F180
:1014A000190AE36832689B1AAB4226DC94F84320A1
:1014B000131E226818BF012392062BD404F14302A5
:1014C00049463846C04701301ED02368E568326877
:1014D00003F00603042B08BFAD1AA36822690CBFF2
:1014E00025EAE57500259342C4BF9B1AED18002636
:1014F0001A34B5421AD1002008E001235246494669
:101500003846C047013003D14FF0FF30BDE8F087C7
:101510000135C6E7E1185A1C302081F84300224407
:1015200094F8451082F843100233C7E7012322469E
:1015300049463846C0470130E6D00136D9E70000B9
:101540002DE9FF470F7E0C9D782F914680460C4673
:101550009A4601F1430207D8622F0AD8002F00F003
:10156000D880582F00F0A38004F1420584F842701F
:101570003AE0A7F16303152BF6D801A151F823F047
:10158000D9150008ED15000869150008691500084F
:101590006915000869150008ED15000869150008AF
:1015A000691500086915000869150008F916000892
:1015B0001D160008DB1600086915000869150008EB
:1015C0001B170008691500081D160008691500089A
:1015D00069150008E31600082B681A1D1B682A60AD
:1015E00004F1420584F842300123A3E02068296811
:1015F000060601F104030AD50E682B60002E03DAFB
:101600002D23764284F843305E480A2319E00E68A1
:101610002B6010F0400F18BF36B2EFE72B68206840
:10162000191D2960010601D51E6802E04606FBD59A
:101630001E8854486F2F0CBF08230A23002184F80A
:1016400043106568A560002DA2BF216821F0040148
:1016500021600EB9002D4DD01546B6FBF3F103FB0A
:101660001167C75D05F8017D3746BB420E46F4D9C8
:10167000082B0BD12368DE0708D5236961689942DE
:10168000DEBF302305F8013C05F1FF35521B226116
:10169000CDF800A04B4603AA21464046FFF7E2FEE4
:1016A00001304CD14FF0FF3004B0BDE8F087354831
:1016B00081F845702968236851F8046B29601D067C
:1016C00014D5DF0744BF43F0200323601EB923680D
:1016D00023F0200323601023B0E7236843F02003A6
:1016E00023607823284884F84530E3E7590648BF4B
:1016F000B6B2E6E71546BBE72B6826686169181D98
:10170000286035061B6801D5196002E07006FBD51C
:101710001980002323611546BAE72B681A1D2A6039
:101720001D6862680021284600F032F808B1401BAD
:10173000606063682361002384F84330A8E723696D
:101740002A4649464046D0470130ABD023689B0724
:1017500013D4E068039B9842B8BF1846A4E701235E
:10176000324649464046D04701309BD00135E368B8
:1017700003995B1AAB42F2DCEBE7002504F1190692
:10178000F5E700BF291A00083A1A000870477047A9
:1017900001F0FF01102A2BDB10F0070F08D010F822
:1017A000013B013A8B422DD010F0070F42B3F6D126
:1017B000F0B441EA012141EA014122F007047FF03F
:1017C00000070023F0E80256083C85EA010586EA96
:1017D000010685FA47F5A3FA87F586FA47F6A5FAD2
:1017E00087F68EB9EED1F0BC01F0FF0102F00702DE
:1017F00032B110F8013B013A83EA010313B1F8D189
:101800000020704701387047002D06BF3546033869
:10181000073815F0010F07D1013015F4807F02BFA2
:10182000013015F4C03F0130F0BC0138704700BFF3
:10183000884210B501EB020402D98442234607D83E
:10184000431EA14208D011F8012B03F8012FF8E73D
:10185000024401468A4200D110BD13F8014D02F83E
:10186000014DF7E72DE9F041804614460E4621B9B7
:10187000BDE8F0411146FFF7D5BB2AB9FFF768FB79
:1018800025462846BDE8F08100F01BF88442074653
:1018900002D8B4EB500F12D821464046FFF7C2FBE6
:1018A00005460028EDD0BC422246314628BF3A46C4
:1018B000FFF738FB31464046FFF74AFBE1E7354684
:1018C000DFE751F8043C181F002BBCBF0B58C018B1
:1018D00070470000044A05491368002B08BF0B46F7
:1018E0001844106018467047E8000020EC00002003
:1018F0004173796E633A206D7574657820627573F3
:10190000792C20646566657272696E672E0D0A0D0A
:101910000A0000002D2D204173796E6320626C69EE
:101920006E6B2028627574746F6E207072657373AD
:10193000656429202D2D0D0A000000002D2D206347
:1019400079636C65206E6F3A202564202D2D0D0A79
:101950000D0A00002D2D204173796E6320626C69A1
:101960006E6B20656E64202D2D0D0A0D0A0000009F
:10197000416C6C204C454473204F4E0D0A00000012
:10198000416C6C204C454473204F46460D0A0000C4
:101990002D2D2053796E6320626C696E6B207374F9
:1019A000617274202D2D0D0A000000002D2D205392
:1019B000796E6320626C696E6B20656E64202D2DDC
:1019C0000D0A0D0A000000000D0A20427574746FA4
:1019D0006E204C454420426C696E6B204170706CE7
:1019E00069636174696F6E20776974682053796EDA
:1019F0006368726F6E697A6174696F6E0D0A0000B8
:101A00000000000000000000150D0008190D00087E
:101A10000D0D0008110D0008232D302B2000686CDF
:101A20004C00656667454647003031323334353601
:101A3000373839414243444546003031323334353A
:101A4000363738396162636465660000F8B500BFF7
:101A5000F8BC08BC9E467047F8B500BFF8BC08BC8F
:081A60009E46704700000000E3
:081A680015010008C10B000884
:041A7000F100000879
:101A74009C000020CC000020A40000209400002042
:101A8400000000001800002000000000000000001A
:101A94000000000000000000000000000000000042
:101AA4000000000000000000000000000000000032
:101AB4000000000000000000000000000000000022
:101AC4000000000000000000000000000000000012
:101AD4000000000000000000000000000000000002
:081AE4000000000000000000FA
:0400000508000CB52E
:00000001FF
