:020000040800F2
:10000000000002205D0100085901000859010008A4
:1000100059010008590100085901000800000000BA
:10002000000000000000000000000000590100086E
:10003000590100080000000059010008590100089A
:10004000F0B50D6800234FF0010C4FF0030E0CFAD1
:1000500003F2AA4314D14C6802685E000EFA06F758
:1000600004F0030422EA0702B440144304608A68DF
:10007000C46802F0030224EA0704B2402243C260CB
:100080000133102BE3D1F0BD436959404161704702
:10009000024A136B43F008031363704700380240B1
:1000A00010B5074C4FF470410122002384E80E0084
:1000B000FFF7EEFF21460348BDE81040FFF7C0BF41
:1000C00000000020000C024000B585B0FFF7E8FFFB
:1000D0001F4E204C00254FF400413046FFF7D4FF5F
:1000E0000395039BA34205DA039B01330393039B10
:1000F000A342F9DB4FF480413046FFF7C5FF02957C
:10010000029BA34205DA029B01330293029BA342A6
:10011000F9DB4FF400513046FFF7B6FF0195019B24
:10012000A34205DA019B01330193019BA342F9DB52
:100130004FF480513046FFF7A7FF0095009BA34284
:10014000C9DA009B01330093009BA342F9DBC2E7AD
:10015000000C0240400D0300FEE700BF08B5FFF7AA
:0C016000B3FFFEE7F8B500BFF8B500BF24
:040000050800015D91
:00000001FF
