:020000040800F2
:1000000000000220ED060008E9060008E9060008E5
:10001000E9060008E9060008E906000800000000FB
:10002000000000000000000000000000E9060008D9
:10003000E906000800000000E9060008E9060008DB
:100040004B1E012B70B440F2A180D9B97D4B984270
:1000500069D0A3F54C43984200F0A48103F5806376
:10006000984200F0388103F58063984200F00482E2
:1000700003F58063984200F0658203F5444398429B
:1000800000F0BC808AB940F2A113836000230361B1
:10009000436191B1012940F0D1800823C360C36856
:1000A00043F4005370BCC360704740F283638360C5
:1000B0000023036143610029ECD10423C360EEE710
:1000C000614D624C6B6C43F480436B642B6B43F06B
:1000D00002032B630023C36026685D4B26F4405661
:1000E0002660266846F400562660266A26F070666A
:1000F0002662266A46F0E06626622C6B44F0010414
:100100002C631C6824F440241C601C6844F4002404
:100110001C605C6A24F0F0045C625C6A022944F0B2
:1001200070045C62AED1484C464D636C43F480432E
:100130006364236B43F0020323630026434BEE60AA
:100140001D6825F440451D601D6845F400451D608F
:100150001D6A25F070451D621D6A45F0E0451D626F
:10016000236B43F001032363394B1C6824F44014D0
:100170001C601C6844F400141C605C6A24F4706405
:100180005C625C6A44F4E0645C627BE72D4B9842FD
:1001900096D0304B984200F0D1802F4B984263D0DC
:1001A0002E4B984200F031812D4B984200F0A881EF
:1001B0002C4B98427FF466AF03F5923302295C6CB6
:1001C00044F400345C641C6B44F004041C63A3F529
:1001D00040534FF00004C4601C6824F440541C6079
:1001E0001C6844F400541C601C6A24F070641C6297
:1001F0001C6A44F000641C627FF444AF124B5C6CD8
:1002000044F400345C641C6B44F004041C63A3F5E8
:1002100092330024DC6003F574431C6824F44044EA
:100220001C601C6844F400441C601C6A24F0704488
:100230001C621C6A44F000441C6223E70C23C36068
:100240002DE700BF001001400038024000040240CA
:10025000000002400044004000480040004C0040C4
:1002600000500040001401409D4D9E4C2B6C43F407
:1002700080232B642B6B43F002032B630023C360AA
:10028000266826F440562660266846F40056266006
:10029000266A26F070662662266A46F0E0662662C6
:1002A0002C6B03F1804303F5023344F004042C6308
:1002B0001C6824F440141C601C6844F400141C6086
:1002C0005C6A24F470645C625C6A022944F4E06451
:1002D0005C627FF4D7AE824C834D236C43F4802361
:1002E0002364236B43F00203236300267D4BEE60FF
:1002F0001D6825F440451D601D6845F400451D60DE
:100300001D6A25F070451D621D6A45F0E0451D62BD
:10031000236B43F004032363744B1C6824F44004F0
:100320001C601C6844F400041C605C6A24F4704483
:100330005C625C6A44F4E0445C62A3E6684D6C4C29
:100340002B6C43F400332B642B6B43F001032B63C2
:100350000023C3602668674B26F0300626602668B7
:1003600046F020062660266A26F470662662266A13
:1003700046F4E06626622C6B44F008042C631C688B
:1003800024F440641C601C6844F400641C601C6A13
:1003900024F470041C621C6A022944F4E0041C6208
:1003A0007FF470AE4E4C544D236C43F40033236401
:1003B000236B43F00103236300264D4BEE601D6861
:1003C00025F0C0051D601D6845F080051D601D6A93
:1003D00025F470451D621D6A45F4E0451D62236BDE
:1003E00043F008032363434B1C6824F440541C600F
:1003F0001C6844F400541C601C6A24F070641C6285
:100400001C6A44F0E0641C623CE6354D384C2B6CB1
:1004100043F400232B642B6B43F001032B63002375
:10042000C360266826F003062660266846F00206AA
:100430002660266A26F00F062662266A46F008061F
:1004400026622C6B03F1804303F5023344F004046D
:100450002C631C6824F440141C601C6844F40014D1
:100460001C605C6A24F470645C625C6A022944F477
:1004700000645C627FF406AE194C204D236C43F49B
:1004800000232364236B43F0010323630026184BEE
:10049000EE601D6825F00C051D601D6845F008051F
:1004A0001D601D6A25F0F0051D621D6A45F080057E
:1004B0001D62236B43F0040323630C4B1C6824F47C
:1004C00040041C601C6844F400041C605C6A24F452
:1004D00070445C625C6A44F400445C62D2E500BF34
:1004E000003802400004024000480040000802407A
:1004F00000000240000C024000440040004C00405C
:1005000003F5F43302291C6C44F480141C641C6B46
:1005100044F004041C63A3F540534FF00004C4608E
:100520001C6824F040741C601C6844F000741C605B
:100530005C6A24F470245C625C6A44F400245C62AB
:100540007FF4A0AD0F4B1C6C44F480141C641C6B36
:1005500044F008041C63A3F5F4330024DC6003F5C5
:10056000DE331C6824F030041C601C6844F0200456
:100570001C601C6A24F470641C621C6A44F40064ED
:100580001C627FE50038024003681B06FCD5C9B237
:100590004160704703689B06FCD54068C0B2704755
:1005A0008446084611461A46BCF1000F07D08CF865
:1005B00000108CF80130CCF80400FFF741BD704703
:1005C00070B169B162B1013A70B506464C1E8D1822
:1005D00014F8011F7068FFF7D7FFAC42F8D170BD67
:1005E000704700BF70B169B162B1013A70B506469B
:1005F0004C1E8D187068FFF7CDFF04F8010FAC4258
:10060000F8D170BD704700BFD8B14368CBB1134A71
:1006100093421AD0A2F54C42934214D002F5806264
:10062000934214D002F58062934212D002F58062A8
:10063000934210D00A490B4A0B488B4208BF104620
:10064000704709487047094870470948704709488A
:100650007047094870470948704700BF00100140C3
:10066000001401404811000818110008301100085A
:100670002811000838110008201100084011000856
:1006800010B59CB016490123022202A8FFF788FF8B
:1006900002A8FFF7B9FF134A0346602104A800F03F
:1006A00065F8021E06DD602AA8BF602204A902A820
:1006B000FFF786FF40F60D240DF1030102A8012289
:1006C000FFF790FF0DF1030102A80122FFF778FF69
:1006D000022201A902A8ADF80440FFF771FFEBE781
:1006E000004C004050110008FEE700BF0E480F4AC2
:1006F000904208B507D2013A121A22F003020C49BF
:10070000043200F01DF80B480B4A904207D2013A20
:10071000121A22F003020432002100F01FF800F048
:100720000DF8FFF7ADFFFEE7000000206400002099
:10073000CC1100086400002078000020704700BF42
:100740000A44914200F1FF3300D1704710B511F80F
:10075000014B03F8014F9142F9D110BD0244034609
:10076000934200D1704703F8011BF9E70CB430B590
:10077000174B0C1E1D689DB008DA8B232B604FF0C1
:10078000FF301DB0BDE8304002B070474FF4027337
:10079000ADF8143014BF04F1FF33234604930793DC
:1007A0004FF6FF7302900690ADF81630209A21ABF9
:1007B00002A92846019300F069F8431CBCBF8B23B3
:1007C0002B60002CDDD0029B00221A70D9E700BFFD
:1007D000000000202DE9F0478E689E4282460C46BC
:1007E00090461F4638D88A8912F4906F32D0256817
:1007F0000969A5EB0109656905EB450505EBD575AB
:1008000001334B446D109D4238BF1D46530531D511
:10081000294600F0A9FB064650B90C23CAF800305F
:10082000A38943F04003A3814FF0FF30BDE8F08778
:1008300021694A46FFF784FFA38923F4906343F0BC
:100840008003A381266165614E44A5EB09052660FE
:10085000A5603E46BE4200D93E462068324641462B
:1008600000F0FEFAA3689B1BA36023683344236057
:100870000020DBE72A4600F0EBFB06460028E1D12A
:100880002169504600F006FBC7E700002DE9F04F54
:1008900098468B891B069DB007460D4614460ED51B
:1008A0000B6963B9402100F05FFB2860286120B923
:1008B0000C233B604FF0FF30D1E040236B610023FD
:1008C000099320238DF82930CDF80C803023DFF8F0
:1008D000A8818DF82A304FF0010923469A4613F873
:1008E000012B0AB1252AF9D1BAEB040B0BD05B46D8
:1008F000224629463846FFF76DFF013000F0AA80F6
:10090000099A5A4409929AF80030002B00F0A2800C
:1009100000234FF0FF32CDE905230AF1010A0493C9
:1009200007938DF853301A935446052214F8011B8F
:10093000514800F045FA049AD8B9D00644BF2023A4
:100940008DF85330110744BF2B238DF853309AF89C
:1009500000302A2B15D0079A544600204FF00A0C7D
:10096000214611F8013B303B092B4ED9B0B107921B
:1009700014E0A0EB080309FA03F313430493A2461F
:10098000D2E7039B191D1B680391002BBBBF5B4281
:1009900042F0020207930793B8BF049223782E2BEC
:1009A0000CD163782A2B35D1039B1A1D1B68039247
:1009B000002BB8BF4FF0FF3302340593DFF8BCA023
:1009C00021780322504600F0FBF940B14023A0EB10
:1009D0000A0003FA00F0049B03430134049314F863
:1009E000011B27488DF82810062200F0E9F900289D
:1009F00038D0244B1BBB039B073323F0070308337A
:100A00000393099B3344099367E70CFB02320C46BE
:100A10000120A5E700230134059319464FF00A0C85
:100A2000204610F8012B303A092A03D9002BC5D0F3
:100A30000591C3E70CFB012104460123F0E703AB5A
:100A400000932A46104B04A93846AFF30080421C9D
:100A50000646D6D1AB895B063FF52CAF09981DB091
:100A6000BDE8F08F03AB00932A46074B04A9384634
:100A700000F07AF8EBE700BF7B1100088111000855
:100A80008511000800000000D50700082DE9F04797
:100A9000164699468A680B69DDF820809342B8BFF4
:100AA0001346336091F8432007460C460AB10133E0
:100AB00033602368990642BF336802333360256888
:100AC00015F0060506D104F1190AE36832689B1A8D
:100AD000AB4226DC94F84320131E226818BF012382
:100AE00092062BD404F1430249463846C0470130F0
:100AF0001ED02368E568326803F00603042B08BFA4
:100B0000AD1AA36822690CBF25EAE575002593425A
:100B1000C4BF9B1AED1800261A34B5421AD1002022
:100B200008E00123524649463846C047013003D108
:100B30004FF0FF30BDE8F0870135C6E7E1185A1CD9
:100B4000302081F84300224494F8451082F8431085
:100B50000233C7E70123224649463846C0470130E1
:100B6000E6D00136D9E700002DE9FF470F7E0C9D46
:100B7000782F914680460C469A4601F1430207D8E9
:100B8000622F0AD8002F00F0D880582F00F0A380E1
:100B900004F1420584F842703AE0A7F16303152B93
:100BA000F6D801A151F823F0010C0008150C00083B
:100BB000910B0008910B0008910B0008910B0008A5
:100BC000150C0008910B0008910B0008910B000810
:100BD000910B0008210D0008450C0008030D0008CA
:100BE000910B0008910B0008430D0008910B0008C1
:100BF000450C0008910B0008910B00080B0D000834
:100C00002B681A1D1B682A6004F1420584F84230E3
:100C10000123A3E020682968060601F104030AD530
:100C20000E682B60002E03DA2D23764284F84330C1
:100C30005E480A2319E00E682B6010F0400F18BFC1
:100C400036B2EFE72B682068191D2960010601D52F
:100C50001E6802E04606FBD51E8854486F2F0CBF65
:100C600008230A23002184F843106568A560002D3D
:100C7000A2BF216821F0040121600EB9002D4DD0E2
:100C80001546B6FBF3F103FB1167C75D05F8017D5F
:100C90003746BB420E46F4D9082B0BD12368DE073A
:100CA00008D5236961689942DEBF302305F8013C0D
:100CB00005F1FF35521B2261CDF800A04B4603AA77
:100CC00021464046FFF7E2FE01304CD14FF0FF30A5
:100CD00004B0BDE8F087354881F84570296823687D
:100CE00051F8046B29601D0614D5DF0744BF43F09B
:100CF000200323601EB9236823F020032360102300
:100D0000B0E7236843F0200323607823284884F861
:100D10004530E3E7590648BFB6B2E6E71546BBE7FC
:100D20002B6826686169181D286035061B6801D587
:100D3000196002E07006FBD5198000232361154677
:100D4000BAE72B681A1D2A601D68626800212846D0
:100D500000F036F808B1401B60606368236100232F
:100D600084F84330A8E723692A4649464046D047DD
:100D70000130ABD023689B0713D4E068039B9842F3
:100D8000B8BF1846A4E70123324649464046D0473B
:100D900001309BD00135E36803995B1AAB42F2DC6A
:100DA000EBE7002504F11906F5E700BF8C110008F8
:100DB0009D1100080000000000000000000000007D
:100DC00001F0FF01102A2BDB10F0070F08D010F8FC
:100DD000013B013A8B422DD010F0070F42B3F6D100
:100DE000F0B441EA012141EA014122F007047FF019
:100DF00000070023F0E80256083C85EA010586EA70
:100E0000010685FA47F5A3FA87F586FA47F6A5FAAB
:100E100087F68EB9EED1F0BC01F0FF0102F00702B7
:100E200032B110F8013B013A83EA010313B1F8D162
:100E30000020704701387047002D06BF3546033843
:100E4000073815F0010F07D1013015F4807F02BF7C
:100E5000013015F4C03F0130F0BC0138704700BFCD
:100E6000884210B501EB020402D98442234607D818
:100E7000431EA14208D011F8012B03F8012FF8E717
:100E8000024401468A4200D110BD13F8014D02F818
:100E9000014DF7E738B50546002941D051F8043C2B
:100EA0000C1F002BB8BFE41800F012F91D4A13689C
:100EB00033B9636014602846BDE8384000F00EB9CD
:100EC000A34208D9206821188B4201BF19685B68CA
:100ED00009182160EDE71A465B680BB1A342FAD905
:100EE00011685018A0420BD1206801445018834269
:100EF0001160E0D118685B68536001441160DAE763
:100F000002D90C232B60D6E7206821188B4204BF3E
:100F100019685B68636004BF091821605460CAE700
:100F200038BD00BF6400002070B50E4E0C4631681D
:100F3000054611B900F0BCF830602146284600F0A3
:100F4000B7F8431C0AD0C41C24F00304A04207D005
:100F5000211A284600F0ACF8013001D14FF0FF34DF
:100F6000204670BD680000202DE9F041CD1C25F021
:100F7000030508350C2D38BF0C25002D074601DB75
:100F8000A94205D90C233B6000263046BDE8F0811C
:100F90002E4E00F09DF833681C4634BB2946384677
:100FA000FFF7C2FF431C04464DD134682646002E8D
:100FB00040D123683146384604EB030800F078F846
:100FC00080453AD1216803356D1A25F003050835AF
:100FD0000C2D38BF0C2529463846FFF7A5FF0130F8
:100FE0002BD023682B4423600EE02268521B1ED4B2
:100FF0000B2A16D96119A342256018BF596063688E
:1010000008BF316062514B60384604F10B0600F0B6
:1010100065F826F00706231DF21AB6D09B1BA350D5
:10102000B3E76268A3420CBF32605A60ECE7234624
:101030006468B2E734467668B9E70C233B6038460B
:1010400000F04CF8A1E72560DEE700BF6400002057
:101050002DE9F041804614460E4621B9BDE8F04125
:101060001146FFF781BF2AB9FFF714FF254628462E
:10107000BDE8F08100F038F88442074602D8B4EBAE
:10108000500F12D821464046FFF76EFF0546002854
:10109000EDD0BC422246314628BF3A46FFF750FB0E
:1010A00031464046FFF7F6FEE1E73546DFE7000050
:1010B00038B5064D0023044608462B6000F01EF8A4
:1010C000431C02D12B6803B1236038BD6C000020A3
:1010D000014800F011B800BF70000020014800F086
:1010E0000CB800BF7000002051F8043C181F002B02
:1010F000BCBF0B58C018704770477047044A054979
:101100001368002B08BF0B46184410601846704740
:10111000740000207800002055534152543F0000D5
:10112000554152543400000055534152543100008F
:10113000555341525432000055534152543300002C
:101140005541525435000000555341525436000069
:1011500048656C6C6F2048432D30362028656368E5
:101160006F206D6F6465290D0A436F6E6E65637441
:101170006564206F6E2025730D0A00232D302B200F
:1011800000686C4C00656667454647003031323375
:1011900034353637383941424344454600303132E0
:1011A0003334353637383961626364656600000070
:1011B000F8B500BFF8BC08BC9E467047F8B500BF44
:0C11C000F8BC08BC9E4670470000000010
:1011CC0004000020000000000000000000000000EF
:1011DC000000000000000000000000000000000003
:1011EC0000000000000000000000000000000000F3
:1011FC0000000000000000000000000000000000E3
:10120C0000000000000000000000000000000000D2
:10121C0000000000000000000000000000000000C2
:04122C0000000000BE
:04000005080006EDFC
:00000001FF
