:020000040800F2
:10000000000002209D0E0008990E0008990E0008BD
:10001000990E0008990E0008990E000800000000D3
:10002000000000000000000000000000990E000821
:10003000990E000800000000990E0008990E0008B3
:10004000036802B909049961704700BF03685A69DF
:1000500011435961704700BF0268536923EA0103E5
:1000600053617047026801238B409361704700BF62
:1000700001F110030268012199409161704700BFAE
:100080002D4A036893421FD02C4A934215D02C4A24
:10009000934227D02B4A93422BD02B4A93421AD01B
:1000A0002A4A93422CD02A4A934237D0294A934273
:1000B0003BD0294A93422AD0704702F55052136B25
:1000C00043F002031363704702F56052136B43F071
:1000D00001031363704702F52052136B43F01003C2
:1000E0001363704702F54052136B43F0040313632C
:1000F000704702F53052136B43F0080313637047E7
:1001000002F51052136B43F020031363704702F59E
:10011000C052136B43F480731363CDE702F50052B2
:10012000136B43F040031363704702F5E052136B07
:1001300043F0800313637047000002400004024054
:1001400000080240000C024000100240001402406F
:1001500000180240001C0240002002402DE9F84F28
:10016000FFF78EFF446805462768002301264FF0FD
:10017000030802E00133102B2ED006FA03F939EA06
:100180000702F7D160682A6820F010014FEA430C9B
:1001900008FA0CFA02296FEA0A0E01F1FF311DD0AC
:1001A000D2F800B02BEA0A0B00F0030A0AFA0CFAA4
:1001B0004AEA0B0A0129C2F800A038D9A168D06820
:1001C00001F0030100EA0E0E01FA0CF1013341EADD
:1001D0000E01102BD160D0D1BDE8F88F21694FEA14
:1001E000D30E02EB8E0E03F0070C4FEA8C0C4FF08F
:1001F0000F0A01F00F0101FA0CF10AFA0CFCDEF80B
:1002000020A02AEA0C0C41EA0C01CEF8201011685B
:100210004FEA430C08FA0CFE21EA0E0A00F0030133
:1002200001FA0CF141EA0A016FEA0E0E11609168C1
:10023000D4F80CA001EA0E010AFA0CFA4AEA01010C
:1002400091605168C0F30010984021EA090940EA22
:1002500009005060B2E700BFC0E90012FFF77EBF9F
:1002600030B58A4C9DF80CC09DF810509DF814E0F4
:100270000160A1420271837180F805C0C57180F8E8
:1002800009E07FD08248814248D08248814222D111
:10029000042A00F0DA80052A1DD17F487F4A046CC9
:1002A00044F400440464046B44F0040404631068E0
:1002B00020F07C701060106840F028701060506A68
:1002C00020F47F2020F470605062506A40F4CC200B
:1002D00040F4C0605062012B4FEACC0303F03803B6
:1002E0000CBF4FF0040C4FF0000C43EA0C030DB1AF
:1002F00043F40043BEF1020F43F4407300F08480E6
:10030000BEF1030F7DD0BEF1010F08BF43F0010322
:100310000B600B6843F040030B6030BD022A76D0BF
:10032000032AD8D15C485E4A046C44F480440464D7
:10033000046B44F004040463046B44F0020404639B
:10034000106820F0406010605448046824F0F00405
:100350000460046844F0A0040460146844F000647D
:100360001460046A24F47F440462046A44F4AA44D6
:100370000462506A20F470005062506A40F4A00099
:100380005062A8E7E2B94448464A446C44F48054B9
:100390004464046B44F001040463106820F47C405E
:1003A0001060106840F428401060106AC0F3130019
:1003B0001062106A40F0AA4040F4A00010628AE780
:1003C000012A88D13448364A446C44F48054446449
:1003D000046B44F002040463106820F47C60106035
:1003E000106840F428601060106A20F47F0020F448
:1003F00070401062106A40F4AA0040F4A0401062FD
:1004000069E743F0030383E743F0020380E700F565
:100410000030234A046C44F480440464046B44F0C8
:1004200002040463106820F07C401060106840F003
:1004300028401060506AC0F313005062506A40F0C8
:10044000AA4040F4A000506245E700F5FE30144A8F
:10045000046C44F400440464046B44F00204046338
:10046000106820F47C601060106840F42860106010
:10047000106A20F47F0020F470401062106A40F48B
:10048000CC0040F4C040106225E700BF00300140BE
:1004900000380040003C00400038024000080240A4
:1004A000000402400000024003681A68880722F036
:1004B00003021A6003D51A6842F002021A60CA07E2
:1004C00003D51A6842F001021A60704770B40178CF
:1004D0004B1E012B436840F2BA80002940F0DB80BC
:1004E000744A934266D0744A934200F0CA81734AB8
:1004F000934200F03B81724A934200F03A82714A83
:10050000934200F0AE82704A934240F088806F4A76
:100510006D4B546C44F020045464146B44F0040498
:100520001463A2F540520024DC60146824F44044B3
:100530001460146844F400441460146A24F0704495
:100540001462146A44F00044146268E05F4D604C29
:100550006A6C42F010026A642A6B42F002022A635B
:100560000022DA6026685B4A26F440562660266838
:1005700046F400562660266A26F070662662266AD1
:1005800046F0E06626622C6B44F001042C6314688C
:1005900024F440241460146844F400241460546A61
:1005A00024F0F0045462546A022944F07004546246
:1005B00040F05A81454C3F4B626C42F0100262643D
:1005C000226B42F0020222630022DA6002F18042D2
:1005D00002F50132156825F440451560156845F4AB
:1005E00000451560156A25F070451562156A45F0DD
:1005F000E0451562226B42F001022263354A14681D
:1006000024F440141460146844F400141460546A10
:1006100024F470645462546A44F4E064546242788E
:10062000186858688AB140F28360002298601A61A5
:100630005A6100293BD0012936D10822DA60DA68F4
:1006400042F4005270BCDA6070478B20EDE7194A23
:1006500093423FF47BAF184A934200F0D280174A8E
:10066000934239D0164A934200F04C81154A934286
:1006700000F0D581144A934200F0AE810229CED019
:10068000427818685868002A40F0F4808B209860FF
:100690001A615A61CFE7427818685868002AC2D1B7
:1006A0008B2199601A615A610C22DA60C7E7042233
:1006B000DA60C4E7001001400044004000480040F8
:1006C000004C00400050004000140140003802403F
:1006D000000402400000024002F5F832824D146C22
:1006E00044F480241464146B44F002041463002462
:1006F000DC602E687D4C26F440162E602E6846F491
:1007000000162E606E6A26F470666E626E6A46F49B
:10071000E0666E62156B45F008051563256825F4E3
:1007200040352560256845F400352560656A25F06B
:100730000F056562656A45F007056562146B44F054
:1007400004041463A2F540520229146824F44014EE
:100750001460146844F400141460546A24F470643F
:100760005462546A44F4E06454627DD1604C614B3D
:10077000226C42F480222264226B42F00202226345
:100780000022DA6002F1804202F50132156825F498
:1007900040051560156845F400051560556A25F497
:1007A00070455562556A45F4E0455562226B4F4DE0
:1007B00042F0080222632E684F4A26F440262E603B
:1007C0002E6846F400262E606E6A26F0F0066E62F1
:1007D0006E6A46F070066E62256B45F0040525636F
:1007E000146824F440041460146844F40004146091
:1007F000546A24F470445462546A44F4E0445462E9
:100800000DE73B4D3D4C2A6C42F400322A642A6BC2
:1008100042F001022A630022DA602668334A26F099
:1008200030062660266846F020062660266A26F4F2
:1008300070662662266A46F4E06626622C6B44F0F7
:1008400008042C63146824F440641460146844F4AD
:1008500000641460146A24F470041462146A022997
:1008600044F4E00414620CD0427818685868002AF6
:100870003FF4EBAE002240F2836098601A615A6147
:10088000D9E61B4C1E4B226C42F400322264226BD0
:1008900042F0010222630022DA60184A156825F04E
:1008A000C0051560156845F080051560156A25F4CA
:1008B00070451562156A45F4E0451562226B42F0F9
:1008C00008022263094A146824F44054146014682E
:1008D00044F400541460146A24F070641462146ABE
:1008E00044F0E06414629AE600040240000C024006
:1008F000003802400048004000080240000002406A
:1009000000440040664D674C2A6C42F400222A6481
:100910002A6B42F001022A630022DA60266826F080
:1009200003062660266846F002062660266A26F040
:100930000F062662266A46F0080626622C6B02F134
:10094000804202F5023244F004042C63146824F45B
:1009500040141460146844F400141460546A24F4BD
:1009600070645462546A022944F4006454627FF44F
:100970007BAF4B4C4C4B226C42F400222264226B26
:1009800042F0010222630022DA60464A156825F02F
:100990000C051560156845F008051560156A25F009
:1009A000F0051562156A45F080051562226B42F06C
:1009B000040222633D4A146824F44004146014685D
:1009C00044F400041460546A24F470445462546A79
:1009D00044F40044546222E602F592320229546C37
:1009E00044F020045464146B44F004041463A2F52E
:1009F00040524FF00004DC60146824F4405414604A
:100A0000146844F400541460146A24F0706414628E
:100A1000146A44F0006414627FF432AE77E502F5A4
:100A2000F4320229146C44F480141464146B44F0FE
:100A300004041463A2F540524FF00004DC60146813
:100A400024F040741460146844F000741460546A14
:100A500024F470245462546A44F4002454627FF4F1
:100A60000FAE0F4A124B146C44F480141464146BD0
:100A700044F008041463A2F530520024DC601468CA
:100A800024F030041460146844F020041460146AE4
:100A900024F470641462146A44F400641462BEE5C1
:100AA0000038024000000240004C004000080240B4
:100AB00000500040027043704160FFF707BD00BF67
:100AC0000B460978A1B110B442680D2418460A29D2
:100AD00009D013681B06FCD5516010F8011F0029CE
:100AE000F5D110BC704713681B06FCD55460F0E7C5
:100AF000704700BF10B5084A084C0949E020106053
:100B000002230120C2E90133D0600523204613618E
:100B1000FFF7A2FB204610BDA40000209C0000208F
:100B20000000024070B50B4A0B4C00230321C2E9C0
:100B3000023108250126204608491361C2E9005602
:100B4000FFF78AFB204632462946FFF779FA20460E
:100B500070BD00BF6C000020640000200010024047
:100B600010B5084A084C09494FF4704C0120002385
:100B7000C2E900C02046C2E902331361FFF76CFBF3
:100B8000204610BD8800002080000020000C02409C
:100B900030B505460C4683B003212046FFF768FABE
:100BA0002B689A689507FCD52022DA609A68D007EE
:100BB000FCD5DA689A689107FCD54722DA609A6812
:100BC000D207FCD503212046DB68FFF74BFA05224C
:100BD00000210191019BB3F57A5F07D200BF019B11
:100BE00001330193019BB3F57A5FF7D3013A92B2D7
:100BF000002AEED103B030BD70B50C4682B0064677
:100C0000032120461546FFF733FA00230193019B89
:100C1000C72B06DC00BF019B01330193019BC72B4F
:100C2000F8DD336845F080059A689607FCD5DD60ED
:100C30009A68D007FCD5DA689A689107FCD500223B
:100C4000DA609A68D207FCD520460321DD68FFF7F9
:100C500009FAA8B202B070BD08B5D2B2FFF7CCFF56
:100C600003060FD5404240F6FC020D4BC0B202FB1A
:100C700000F0A3FB0023C01A03EB500080094042A0
:100C800000B208BD40F6FC02054B02FB00F0A3FBDE
:100C90000023C01A03EB500040F38F1008BD00BFC3
:100CA00011080402A8B1002282B011460191019BF3
:100CB000B3F57A5F07D200BF019B01330193019B1B
:100CC000B3F57A5FF7D3013293B28342EED302B029
:100CD0007047704770B5144682B00F2205460E4625
:100CE000FFF78AFFC0B2844201D102B070BD00217B
:100CF0002846FFF7D9FB00230193019BB3F57A5FE8
:100D000007D200BF019B01330193019BB3F57A5FCA
:100D1000F7D30F2231462846FFF76EFFC0B2844258
:100D2000E3D00321284602B0BDE87040FFF7BCBB0A
:100D30002DE9F043A3B0FFF7DDFEFFF7F3FE044615
:100D4000FFF70EFF0025032607232A46CDE90156AB
:100D50004A4900938046012307A8FFF781FA2146FC
:100D600007A8FFF715FF3B22214607A8FFF7B2FFB0
:100D70002B4601224249434D434FDFF8109105A80D
:100D8000FFF798FE424905A8FFF79AFE3146204634
:100D9000FFF768F93F4E23E0782B55DC783360DBB2
:100DA000782941DD4FF400514046FFF74FF94FF4E9
:100DB00050414046FFF750F9B6F90010B7F900006E
:100DC000B5F900304A46CDE9001060210AA800F0CC
:100DD000ABF805A80AA9FFF773FE1420FFF762FF1E
:100DE0002922214607A8FFF737FF2B2200F1120323
:100DF000214607A82B80FFF72FFF2D22034621460F
:100E000007A83380FFF728FFB5F9003038801BB101
:100E1000B6F900100029BFD14FF470414046FFF7EA
:100E20001BF9B6F90010C9E711F1780FC6DA4FF4D3
:100E300000414046FFF70AF94FF4E0414046FFF712
:100E40000BF9B6F90010B9E74FF480414046FFF7BF
:100E5000FDF84FF430414046FFF7FEF8B6F90010B8
:100E60009EE74FF480514046FFF7F0F84FF46041A1
:100E70004046FFF7F1F8B6F9001091E70030014065
:100E800000440040B8000020BC000020F418000816
:100E9000CC180008BA000020FEE700BF0A490A6B20
:100EA00008B542F01002094B0A631A6822F0C0022A
:100EB0001A601A6842F040021A605A6922F0080269
:100EC0005A61FFF735FFFEE700380240001002408C
:100ED00010467047002070474FF0FF30704700BF4A
:100EE0004FF400534B600020704700BF0120704753
:100EF00000207047FEE700BF024B16221A604FF039
:100F0000FF307047C400002001207047044A0549A3
:100F10001368002B08BF0B46184410601846704732
:100F2000C0000020D10000200CB430B5174B0C1EBF
:100F30001D689DB008DA8B232B604FF0FF301DB089
:100F4000BDE8304002B070474FF40273ADF8143082
:100F500014BF04F1FF332346049307934FF6FF7346
:100F600002900690ADF81630209A21AB02A92846CF
:100F7000019300F047F9431CBCBF8B232B60002C6E
:100F8000DDD0029B00221A70D9E700BF00000020CC
:100F900038B50546002941D051F8043C0C1F002B00
:100FA000B8BFE41800F04CFC1D4A136833B9636005
:100FB00014602846BDE8384000F048BCA34208D978
:100FC000206821188B4201BF19685B6809182160ED
:100FD000EDE71A465B680BB1A342FAD911685018C5
:100FE000A0420BD120680144501883421160E0D127
:100FF00018685B68536001441160DAE702D90C237A
:101000002B60D6E7206821188B4204BF19685B6803
:10101000636004BF091821605460CAE738BD00BF8F
:10102000C800002070B50E4E0C463168054611B957
:1010300000F07CFB30602146284600F077FB431C23
:101040000AD0C41C24F00304A04207D0211A284669
:1010500000F06CFB013001D14FF0FF34204670BD31
:10106000CC0000202DE9F041CD1C25F0030508350A
:101070000C2D38BF0C25002D074601DBA94205D9F0
:101080000C233B6000263046BDE8F0812E4E00F078
:10109000D7FB33681C4634BB29463846FFF7C2FFEE
:1010A000431C04464DD134682646002E40D12368A7
:1010B0003146384604EB030800F038FB80453AD14E
:1010C000216803356D1A25F0030508350C2D38BF4E
:1010D0000C2529463846FFF7A5FF01302BD02368A1
:1010E0002B4423600EE02268521B1ED40B2A16D913
:1010F0006119A342256018BF5960636808BF316059
:1011000062514B60384604F10B0600F09FFB26F05D
:101110000706231DF21AB6D09B1BA350B3E76268E3
:10112000A3420CBF32605A60ECE723466468B2E722
:1011300034467668B9E70C233B60384600F086FBFE
:10114000A1E72560DEE700BFC80000202DE9F047D9
:101150008E689E4282460C4690461F4638D88A8941
:1011600012F4906F32D025680969A5EB0109656911
:1011700005EB450505EBD57501334B446D109D42DC
:1011800038BF1D46530531D52946FFF76BFF06468C
:1011900050B90C23CAF80030A38943F04003A3815F
:1011A0004FF0FF30BDE8F08721694A4600F020FB90
:1011B000A38923F4906343F08003A38126616561D2
:1011C0004E44A5EB09052660A5603E46BE4200D907
:1011D0003E4620683246414600F018FBA3689B1B40
:1011E000A3602368334423600020DBE72A4600F035
:1011F00033FB06460028E1D121695046FFF7C8FEBF
:10120000C7E700002DE9F04F98468B891B069DB07B
:1012100007460D4614460ED50B6963B94021FFF70A
:1012200021FF2860286120B90C233B604FF0FF307C
:10123000D1E040236B610023099320238DF82930EE
:10124000CDF80C803023DFF8A8818DF82A304FF0DC
:10125000010923469A4613F8012B0AB1252AF9D130
:10126000BAEB040B0BD05B46224629463846FFF703
:101270006DFF013000F0AA80099A5A4409929AF849
:101280000030002B00F0A28000234FF0FF32CDE9A8
:1012900005230AF1010A049307938DF853301A933A
:1012A0005446052214F8011B514800F051FA049AE3
:1012B000D8B9D00644BF20238DF85330110744BF5E
:1012C0002B238DF853309AF800302A2B15D0079A2B
:1012D000544600204FF00A0C214611F8013B303BE8
:1012E000092B4ED9B0B1079214E0A0EB080309FA1C
:1012F00003F313430493A246D2E7039B191D1B6813
:101300000391002BBBBF5B4242F00202079307939D
:10131000B8BF049223782E2B0CD163782A2B35D1B9
:10132000039B1A1D1B680392002BB8BF4FF0FF33BD
:1013300002340593DFF8BCA021780322504600F068
:1013400007FA40B14023A0EB0A0003FA00F0049B27
:1013500003430134049314F8011B27488DF8281027
:10136000062200F0F5F9002838D0244B1BBB039B64
:10137000073323F0070308330393099B334409938E
:1013800067E70CFB02320C460120A5E7002301347D
:10139000059319464FF00A0C204610F8012B303AFD
:1013A000092A03D9002BC5D00591C3E70CFB012105
:1013B00004460123F0E703AB00932A46104B04A92F
:1013C0003846AFF30080421C0646D6D1AB895B0697
:1013D0003FF52CAF09981DB0BDE8F08F03AB00932B
:1013E0002A46074B04A9384600F07AF8EBE700BF1D
:1013F000091900080F19000813190008000000005F
:101400004D1100082DE9F047164699468A680B6988
:10141000DDF820809342B8BF1346336091F8432033
:1014200007460C460AB1013333602368990642BF70
:10143000336802333360256815F0060506D104F1E0
:10144000190AE36832689B1AAB4226DC94F8432001
:10145000131E226818BF012392062BD404F1430205
:1014600049463846C04701301ED02368E5683268D7
:1014700003F00603042B08BFAD1AA36822690CBF52
:1014800025EAE57500259342C4BF9B1AED18002696
:101490001A34B5421AD1002008E0012352464946C9
:1014A0003846C047013003D14FF0FF30BDE8F08728
:1014B0000135C6E7E1185A1C302081F84300224468
:1014C00094F8451082F843100233C7E701232246FF
:1014D00049463846C0470130E6D00136D9E700001A
:1014E0002DE9FF470F7E0C9D782F914680460C46D4
:1014F0009A4601F1430207D8622F0AD8002F00F064
:10150000D880582F00F0A38004F1420584F842707F
:101510003AE0A7F16303152BF6D801A151F823F0A7
:10152000791500088D15000809150008091500082F
:1015300009150008091500088D150008091500088F
:101540000915000809150008091500089916000872
:10155000BD1500087B1600080915000809150008CC
:10156000BB16000809150008BD150008091500087C
:1015700009150008831600082B681A1D1B682A60CD
:1015800004F1420584F842300123A3E02068296871
:10159000060601F104030AD50E682B60002E03DA5B
:1015A0002D23764284F843305E480A2319E00E6802
:1015B0002B6010F0400F18BF36B2EFE72B682068A1
:1015C000191D2960010601D51E6802E04606FBD5FB
:1015D0001E8854486F2F0CBF08230A23002184F86B
:1015E00043106568A560002DA2BF216821F00401A9
:1015F00021600EB9002D4DD01546B6FBF3F103FB6B
:101600001167C75D05F8017D3746BB420E46F4D928
:10161000082B0BD12368DE0708D52369616899423E
:10162000DEBF302305F8013C05F1FF35521B226176
:10163000CDF800A04B4603AA21464046FFF7E2FE44
:1016400001304CD14FF0FF3004B0BDE8F087354891
:1016500081F845702968236851F8046B29601D06DC
:1016600014D5DF0744BF43F0200323601EB923686D
:1016700023F0200323601023B0E7236843F0200306
:1016800023607823284884F84530E3E7590648BFAB
:10169000B6B2E6E71546BBE72B6826686169181DF8
:1016A000286035061B6801D5196002E07006FBD57D
:1016B0001980002323611546BAE72B681A1D2A609A
:1016C0001D6862680021284600F042F808B1401BFE
:1016D000606063682361002384F84330A8E72369CE
:1016E0002A4649464046D0470130ABD023689B0785
:1016F00013D4E068039B9842B8BF1846A4E70123BF
:10170000324649464046D04701309BD00135E36818
:1017100003995B1AAB42F2DCEBE7002504F11906F2
:10172000F5E700BF1A1900082B19000838B5064D57
:101730000023044608462B60FFF7E8FB431C02D158
:101740002B6803B1236038BDC400002000000000F6
:1017500001F0FF01102A2BDB10F0070F08D010F862
:10176000013B013A8B422DD010F0070F42B3F6D166
:10177000F0B441EA012141EA014122F007047FF07F
:1017800000070023F0E80256083C85EA010586EAD6
:10179000010685FA47F5A3FA87F586FA47F6A5FA12
:1017A00087F68EB9EED1F0BC01F0FF0102F007021E
:1017B00032B110F8013B013A83EA010313B1F8D1C9
:1017C0000020704701387047002D06BF35460338AA
:1017D000073815F0010F07D1013015F4807F02BFE3
:1017E000013015F4C03F0130F0BC0138704700BF34
:1017F0000A44914200F1FF3300D1704710B511F84F
:10180000014B03F8014F9142F9D110BD884210B548
:1018100001EB020402D98442234607D8431EA142A9
:1018200008D011F8012B03F8012FF8E70244014614
:101830008A4200D110BD13F8014D02F8014DF7E7BF
:10184000014800F038B800BFD0000020014800F087
:1018500033B800BFD00000202DE9F0418046144687
:101860000E4621B9BDE8F0411146FFF7FBBB2AB98E
:10187000FFF78EFB25462846BDE8F08100F01DF8F5
:101880008442074602D8B4EB500F12D82146404696
:10189000FFF7E8FB05460028EDD0BC422246314662
:1018A00028BF3A46FFF7A4FF31464046FFF770FBDA
:1018B000E1E73546DFE77047704751F8043C181FF1
:1018C000002BBCBF0B58C018704700004C49533365
:1018D0003032444C205350492073747265616D203E
:1018E0006F6E2055534152543220403131353230E1
:1018F000300D0A0076616C7565733A2536642C25C7
:1019000036642C2536640D0A00232D302B20006808
:101910006C4C0065666745464700303132333435DC
:10192000363738394142434445460030313233344A
:10193000353637383961626364656600F8B500BFD3
:04194000F8B500BF37
:10194400040000200000000000000000000000006F
:101954000000000000000000000000000000000083
:101964000000000000000000000000000000000073
:101974000000000000000000000000000000000063
:101984000000000000000000000000000000000053
:101994000000000000000000000000000000000043
:0419A400000000003F
:0400000508000E9D44
:00000001FF
