:020000040800F2
:10000000000002203D0500083905000839050008F8
:10001000390500083905000839050008000000000E
:10002000000000000000000000000000390500088A
:1000300039050008000000003905000839050008EE
:100040002D4A036893421FD02C4A934215D02C4A64
:10005000934227D02B4A93422BD02B4A93421AD05B
:100060002A4A93422CD02A4A934237D0294A9342B3
:100070003BD0294A93422AD0704702F55052136B65
:1000800043F002031363704702F56052136B43F0B1
:1000900001031363704702F52052136B43F0100302
:1000A0001363704702F54052136B43F0040313636C
:1000B000704702F53052136B43F008031363704727
:1000C00002F51052136B43F020031363704702F5DF
:1000D000C052136B43F480731363CDE702F50052F3
:1000E000136B43F040031363704702F5E052136B48
:1000F00043F0800313637047000002400004024095
:1001000000080240000C02400010024000140240AF
:1001100000180240001C0240002002402DE9F84F68
:10012000FFF78EFF446805462768002301264FF03D
:10013000030802E00133102B2ED006FA03F939EA46
:100140000702F7D160682A6820F010014FEA430CDB
:1001500008FA0CFA02296FEA0A0E01F1FF311DD0EC
:10016000D2F800B02BEA0A0B00F0030A0AFA0CFAE4
:100170004AEA0B0A0129C2F800A038D9A168D06860
:1001800001F0030100EA0E0E01FA0CF1013341EA1D
:100190000E01102BD160D0D1BDE8F88F21694FEA54
:1001A000D30E02EB8E0E03F0070C4FEA8C0C4FF0CF
:1001B0000F0A01F00F0101FA0CF10AFA0CFCDEF84B
:1001C00020A02AEA0C0C41EA0C01CEF8201011689C
:1001D0004FEA430C08FA0CFE21EA0E0A00F0030174
:1001E00001FA0CF141EA0A016FEA0E0E1160916802
:1001F000D4F80CA001EA0E010AFA0CFA4AEA01014D
:1002000091605168C0F30010984021EA090940EA62
:1002100009005060B2E700BF184B984214D0184B49
:1002200098420CD0B0F1804F18D0164B98421AD09B
:10023000154B98420DD0154B984219D070474B6C16
:1002400043F480334B6470474B6C43F001034B64C1
:1002500070470B6C43F004030B6470470B6C43F066
:1002600001030B6470470B6C43F002030B6470478F
:100270000B6C43F008030B64E0E700BF0000014093
:10028000004001400004004000080040000C004015
:100290008162C2628369144A43F0600383618369A7
:1002A00043F080038361036A23F002030362036A5D
:1002B00043F001030362036843F080030360436972
:1002C000904243F00103436104D0036843F001030B
:1002D00003607047436C43F080034364036843F05A
:1002E00001030360704700BF0000014010B5032305
:1002F00090B010241448154A0090CDE90434052329
:100300000021039307ABCDE90132CDE90701104B82
:100310005A2209A800F054F85A2109A800F0ACF8B4
:1003200009A800F0D7F80024214609A800F0A4F895
:10033000084B00BF1A46013B002AFAD10A34E4B246
:10034000BE2CF1D1EFE700BF0010024000380240A0
:10035000004001403F420F0010B50446016940686B
:10036000FFF75AFFC82240F23F616068FFF790FF35
:10037000217863786268012910D1A3F1590102291B
:1003800016D90D495A3B81FB0301DB17C3EBA103CF
:100390000F33142BA8BF1423536310BD074903EB7D
:1003A00083035B08A1FB03139B080A33536310BD4F
:1003B0000F23536310BD00BF398EE338176CC1168D
:1003C00038B515469DF81CC09DF82020002840D067
:1003D0004360049B8360069B0361099B8361234BFD
:1003E0000170427502F00F014FF0010E0022C36050
:1003F00080F814C0827045700EFA0CFC5A719A7124
:10040000DA711A725A729A72DA725A739A73DA73CA
:10041000022204461A71C3F800C083F80CE0196187
:10042000FFF77CFE2046FFF797FF23786268012BD9
:1004300010D1A5F15903022B16D90D4B5A3D83FB60
:100440000513ED17C5EBA3030F33142BA8BF14231B
:10045000536338BD074905EB85035B08A1FB031314
:100460009B080A33536338BD0F23FBE71D010008C7
:10047000398EE338176CC116034610B3B42913D86C
:100480008078597088B118785A6801280ED1A1F186
:100490005903022B17D90D4B5A3983FB0103C91796
:1004A000C1EBA3030F3309E00120704701EB810189
:1004B00007484B08A0FB03139B080A335363002033
:1004C0007047022070470F23F8E700BF398EE338EA
:1004D000176CC116D0B101784268012301298370DD
:1004E000437814D1A3F1590102291ED910495A3B6E
:1004F00081FB0301DB17C3EBA1030F33142BA8BF50
:1005000014235363136843F00103136070470949D0
:1005100003EB83035B08A1FB03139B080A335363BC
:10052000136843F00103136070470F23F7E700BF20
:10053000398EE338176CC116FEE700BF0E480F4A2C
:10054000904208B507D2013A121A22F003020C4970
:10055000043200F01DF80B480B4A904207D2013AD2
:10056000121A22F003020432002100F01FF800F0FA
:100570000DF8FFF7BBFEFEE70000002000000020A2
:10058000D80500080000002000000020704700BFD0
:100590000A44914200F1FF3300D1704710B511F8C1
:1005A000014B03F8014F9142F9D110BD02440346BB
:1005B000934200D1704703F8011BF9E7F8B500BF7B
:1005C000F8BC08BC9E467047F8B500BFF8BC08BC34
:0805D0009E4670470000000088
:040000050800053DAD
:00000001FF
