:020000040800F2
:10000000000002208D020008890200088902000811
:100010008902000889020008890200080000000027
:10002000000000000000000000000000890200083D
:100030008902000800000000890200088902000807
:1000400000B52C482C4E2D4D2D4C8BB04FF47A71B1
:10005000CDE900100F23FA22012106A800F0EEF8E6
:1000600000230122274904A800F014F9264904A816
:1000700000F018FC254904A800F014FC04A800F0C6
:10008000D7FB014604A800F00DFC214904A800F0AC
:1000900009FC314604A800F005FC4FF4FA7106A8EB
:1000A00000F0DCF8294604A800F0FCFB00230393D1
:1000B000039BA34205DA039B01330393039BA342F3
:1000C000F9DB144904A800F0EDFBFA2106A800F0C2
:1000D000C5F8114904A800F0E5FB00230293029B38
:1000E000A342D6DA029B01330293029BA342F9DBBF
:1000F000CFE700BF00400140000900081C090008CC
:1001000040420F0000440040D8080008EC080008F6
:10011000FC08000834090008500900081E4A8368DA
:10012000934216D01D4A93420CD0B3F1804F1ED09B
:100130001B4A934221D01B4A934211D01A4A934240
:1001400022D0704702F57842536C43F480335364F5
:10015000704702F59C32536C43F0010353647047BF
:1001600002F50C32136C43F00403136470470F4A1A
:10017000136C43F001031364704702F50D32136CE6
:1001800043F002031364704702F50B32136C43F023
:1001900008031364D5E700BF0000014000400140A0
:1001A0000004004000080040000C004000380240FD
:1001B0008368C268144910B484889C62DA629A69C0
:1001C00042F060029A619A6942F080029A611A6A6A
:1001D00022F002021A621A6A42F001021A621A68D6
:1001E00042F080021A605A698B4242F001025A6161
:1001F00005D01A6810BC42F001021A6070475A6CB0
:1002000042F080025A64F4E7000001400378013BA9
:10021000032B06D8DFE803F00E0A06028368428843
:100220001A64704783684288DA637047836842883B
:100230009A637047836842885A63704708B5428062
:100240008380DDE902320170C0E90223FFF766FF17
:10025000FFF7AEFFFFF7DAFF08BD00BF037841806C
:10026000013B032B05D8DFE803F00B080502836888
:10027000196470478368D9637047836899637047CE
:1002800083685963704700BFFEE700BF08B5FFF7FA
:10029000D7FEFEE7F0B4541E012C0270437041609B
:1002A00040F29F80DAB97C4CA14267D0A4F54C445F
:1002B000A14200F0CA8104F58064A14200F04881A7
:1002C00004F58064A14200F0368204F58064A14206
:1002D00000F0848204F54444A14200F0B880002B71
:1002E00040F2836C4FF000040CBF8B2363460D6813
:1002F0004D688B600C614C61002A00F0CA80012AB5
:1003000040F0C4800823CB60CB6843F40053F0BCBA
:10031000CB607047614D6E6C46F010066E642E6BBC
:1003200046F002062E6304F574440026CE6026686B
:1003300026F440562660266846F400562660266A53
:1003400026F070662662266A46F0E06626622C6B0E
:1003500044F001042C63524C256825F440252560A7
:10036000256845F400252560656A25F0F00565627D
:10037000656A022A45F070056562B0D1474D464E68
:100380006C6C44F010046C642C6B44F002042C631D
:100390000027444CF760266826F44046266026680D
:1003A00046F400462660266A26F070462662266AD3
:1003B00046F0E04626622C6B44F001042C63384C76
:1003C000256825F440152560256845F4001525604D
:1003D000656A25F470656562656A45F4E065656285
:1003E0007DE72D4CA14295D02F4CA14200F0F88022
:1003F0002E4CA14262D02E4CA14200F067812D4CC0
:10040000A14200F0CB812C4CA1427FF468AF234D78
:100410006E6C46F020066E642E6B46F004062E636A
:1004200004F574440025CD60256825F44055256009
:10043000256845F400552560256A25F0706525621C
:10044000256A022A45F0006525627FF448AF134C07
:10045000194E656C45F020056564256B45F0040573
:100460002563A4F540540025F560256825F4404532
:100470002560256845F400452560256A25F070450E
:100480002562256A45F00045256228E70C23CB60EC
:100490003AE70423CB6037E7001001400038024000
:1004A00000000240000402400044004000480040B8
:1004B000004C004000500040001401407C4D2E6C68
:1004C00046F480262E642E6B46F002062E6304F559
:1004D000DE340026CE60266826F4401626602668A4
:1004E00046F400162660666A26F470666662666ADE
:1004F00046F4E06666622C6B6E4E44F008042C6392
:1005000037686D4C27F440373760376847F4003759
:100510003760776A27F00F077762776A47F0070737
:1005200077622E6B46F004062E63256825F440158D
:100530002560256845F400152560656A25F4706519
:100540006562656A022A45F4E06565627FF4C7AEBC
:10055000574D5A4E2C6C44F480242C642C6B44F080
:1005600002042C630027564CF760266826F44006E8
:100570002660266846F400062660666A26F4704601
:100580006662666A46F4E04666622C6B494E44F049
:1005900008042C633768484C27F4402737603768D5
:1005A00047F400273760776A27F0F0077762776AA9
:1005B00047F0700777622E6B46F004062E632568BD
:1005C00025F440052560256845F400052560656A29
:1005D00025F470456562656A45F4E04565627EE62E
:1005E000334D2E6C46F400362E642E6B46F0010619
:1005F0002E6304F5DE340026CE60266826F0300631
:100600002660266846F020062660266A26F4706674
:100610002662266A46F4E06626622C6B44F00804E3
:100620002C63244C256825F440652560256845F435
:1006300000652560256A25F470052562256A022A71
:1006400045F4E00525627FF44AAE194D1D4E2C6C31
:1006500044F400342C642C6B44F001042C63002718
:10066000194CF760266826F0C0062660266846F01A
:1006700080062660266A26F470462662266A46F4BC
:10068000E04626622C6B44F008042C63094C256874
:1006900025F440552560256845F400552560256AF8
:1006A00025F070652562256A45F0E065256216E64D
:1006B00000380240000C02400008024000480040A0
:1006C000000402400044004000000240534D2E6CE4
:1006D00046F400262E642E6B46F001062E6304F5C8
:1006E000DA340026CE60266826F0030626602668E7
:1006F00046F002062660266A26F00F062662266A63
:1007000046F0080626622C6B44F004042C63444C2B
:10071000256825F440152560256845F400152560F9
:10072000656A25F470656562656A022A45F40065AC
:1007300065627FF4D4AD394D3A4E2C6C44F40024FC
:100740002C642C6B44F001042C630027364CF760BA
:10075000266826F00C062660266846F00806266005
:10076000266A26F0F0062662266A46F08006266291
:100770002C6B44F004042C63294C256825F44005B7
:100780002560256845F400052560656A25F47045F7
:100790006562656A45F400456562A0E51F4D2E6CF3
:1007A00046F480162E642E6B46F004062E6304F584
:1007B000DC340025CD60256825F04075256025686E
:1007C00045F000752560656A25F470256562656AE7
:1007D000022A45F4002565627FF481AD0F4C134E6B
:1007E000256C45F480152564256B45F008052563C7
:1007F000A4F530540025F560256825F03005256006
:10080000256845F020052560256A25F47065256278
:10081000256A45F40065256261E500BF00380240A5
:1008200000080240004C0040000002400050004020
:100830004368DBB1124A93421AD0A2F54C4293426C
:1008400018D002F5806293420ED002F58062934286
:1008500012D002F58062934210D00A490A4A0B482E
:100860008B4208BF104670470948704707487047D9
:10087000084870470848704708487047084870475C
:100880000010014000140140980900087009000898
:10089000880900087809000880090008680900082C
:1008A000900900080B460978A1B110B442680D24E4
:1008B00018460A2909D013681B06FCD5516010F8A8
:1008C000011F0029F5D110BC704713681B06FCD529
:1008D0005460F0E7704700BF50574D204465627583
:1008E0006767696E673A0D0A00000000436F6E6E1D
:1008F0006563746564206F6E3A2000000D0A000085
:1009000053657474696E67206475747920637963C4
:100910006C6520746F203530250D0A00447574799C
:10092000206379636C652073657420746F203530A3
:10093000250D0A0053657474696E672064757479B7
:10094000206379636C6520746F203235250D0A00B1
:1009500044757479206379636C65207365742074C1
:100960006F203235250D0A005541525434000000E5
:1009700055534152543F00005553415254310000E9
:1009800055534152543200005553415254330000E4
:100990005541525435000000555341525436000021
:0809A000F8B500BFF8B500BF77
:040000050800028D60
:00000001FF
