:020000040800F2
:1000000000000220910800088D0800088D080008F3
:100010008D0800088D0800088D0800080000000009
:100020000000000000000000000000008D08000833
:100030008D080008000000008D0800088D080008E9
:100040001A491B4A1B4B10B40C6C44F400140C648A
:100050000C6B44F002040C63116821F00101116083
:10006000196821F470411960196841F42041196040
:10007000196A21F07F411962196A102441F0884100
:100080001962546050B928210923D1611362084ACA
:1000900010BC136843F00103136070470128F6D1C8
:1000A0000D210323D1611362F1E700BF0038024044
:1000B0000054004000040240034A53691B06FCD56B
:1000C000C0B21061704700BF005400400A4A136874
:1000D00082B043F40073002113600191019BB3F5DA
:1000E0007A7F07DA00BF019B01330193019BB3F5CF
:1000F0007A7FF7DB02B0704700540040064A9369EC
:100100009907FCD41368044943F4807313604B6966
:10011000DB07FCD5704700BF00540040044A136859
:1001200043F4807313605369DB07FCD5704700BF4D
:10013000005400400039094A18BF012141EA40013A
:1001400082B0116153699B07FCD553690193019BF0
:1001500093690193019B02B0704700BF00540040B7
:10016000024A136843F480631360704700540040F0
:10017000024A136823F48063136070470054004000
:1001800070B4541E012C02704370416040F29E8096
:10019000DAB97D48814266D0A0F54C40814200F03A
:1001A000CC8100F58060814200F04B8100F58060D9
:1001B000814200F03A8200F58060814200F08A823C
:1001C00000F54440814200F0B98040F28360002B8A
:1001D0004FF0000414BF03468B23086848688B6007
:1001E0000C614C61002A00F0CC80012A40F0C680EE
:1001F0000823CB60CB6843F4005370BCCB607047DE
:10020000624D634C686C40F010006864286B40F0ED
:10021000020028630020C86026685E4826F4405625
:100220002660266846F400562660266A26F0706628
:100230002662266A46F0E06626622C6B44F00104D2
:100240002C63046824F440240460046844F400240B
:100250000460446A24F0F0044462446A022A44F0D0
:1002600070044462B1D1494C474D606C40F01000BD
:100270006064206B40F00200206300264448EE607A
:10028000056825F440450560056845F400450560AE
:10029000056A25F070450562056A45F0E04505628E
:1002A000206B40F0010020633A48046824F44014B5
:1002B0000460046844F400140460446A24F4706424
:1002C0004462446A44F4E06444627EE72E4881421A
:1002D00096D03148814200F0FC803048814265D0A0
:1002E0002F48814200F06A812E48814200F0D0817F
:1002F0002D4881427FF469AF00F59230022A446CA8
:1003000044F020044464046B44F004040463A0F546
:1003100040504FF00004CC60046824F44054046062
:10032000046844F400540460046A24F070640462B5
:10033000046A44F0006404627FF447AF1348446CDD
:1003400044F020044464046B44F004040463A0F506
:1003500092300024C46000F57440046824F44044E2
:100360000460046844F400440460046A24F07044A7
:100370000462046A44F00044046226E70C23CB6064
:1003800038E70423CB6035E7001001400038024015
:1003900000040240000002400044004000480040C9
:1003A000004C0040005000400014014000F5F830BF
:1003B0007B4D046C44F480240464046B44F0020418
:1003C00004630024CC602E68764C26F440162E6020
:1003D0002E6846F400162E606E6A26F470666E6211
:1003E0006E6A46F4E0666E62056B45F008050563CB
:1003F000256825F440352560256845F400352560DD
:10040000656A25F00F056562656A45F00705656256
:10041000046B44F004040463A0F54050022A04680D
:1004200024F440140460046844F400140460446A32
:1004300024F470644462446A44F4E06444627FF4E7
:10044000C4AE594C594D206C40F480202064206B80
:1004500040F00200206300265148EE60056825F454
:1004600040050560056845F400050560456A25F40A
:1004700070454562456A45F4E0454562206B494D4B
:1004800040F0080020632E68494826F440262E607C
:100490002E6846F400262E606E6A26F0F0066E6224
:1004A0006E6A46F070066E62256B45F004052563A2
:1004B000046824F440040460046844F40004046004
:1004C000446A24F470444462446A44F4E04444625C
:1004D0007BE6354D374C286C40F400302864286B9F
:1004E00040F0010028630020C86026682D4826F0EF
:1004F00030062660266846F020062660266A26F426
:1005000070662662266A46F4E06626622C6B44F02A
:1005100008042C63046824F440640460046844F410
:1005200000640460046A24F470040462046A022A09
:1005300044F4E00404627FF448AE1B4C1E4D206C72
:1005400040F400302064206B40F00100206300265E
:100550001848EE60056825F0C0050560056845F09F
:1005600080050560056A25F470450562056A45F455
:10057000E0450562206B40F00800206309480468EC
:1005800024F440540460046844F400540460046A91
:1005900024F070640462046A44F0E064046214E6C7
:1005A00000040240000C02400038024000480040B5
:1005B000000802400000024000440040554D564CE7
:1005C000286C40F400202864286B40F00100286368
:1005D0000020C860266826F003062660266846F0DC
:1005E00002062660266A26F00F062662266A46F074
:1005F000080626622C6B00F1804000F5023044F0C2
:1006000004042C63046824F440140460046844F473
:1006100000140460446A24F470644462446A022A48
:1006200044F4006444627FF4D0AD3A4C3B4D206CFE
:1006300040F400202064206B40F00100206300267D
:100640003548EE60056825F00C050560056845F045
:1006500008050560056A25F0F0050562056A45F0A4
:1006600080050562206B40F0040020632C4804687C
:1006700024F440040460046844F400040460446A00
:1006800024F470444462446A44F4004444629CE5A7
:1006900000F5F430022A046C44F480140464046B02
:1006A00044F004040463A0F540504FF00004CC6013
:1006B000046824F040740460046844F0007404602A
:1006C000446A24F470244462446A44F4002444627A
:1006D0007FF47BAD0F48046C44F480140464046B15
:1006E00044F008040463A0F5F4300024C46000F56D
:1006F000DE30046824F030040460046844F0200410
:100700000460046A24F470640462046A44F40064BB
:1007100004625AE50038024000000240004C0040EC
:100720000008024003681B06FCD5C9B2416070474F
:1007300038B130B58160BDE8304002734373FFF7D4
:100740001FBD704770B169B162B1013A70B506461C
:100750004C1E8D1814F8011FB068FFF7E3FFAC4280
:10076000F8D170BD704700BFD8B18368CBB1134AD0
:1007700093421AD0A2F54C42934214D002F5806203
:10078000934214D002F58062934212D002F5806247
:10079000934210D00A490B4A0B488B4208BF1046BF
:1007A0007047094870470948704709487047094829
:1007B0007047094870470948704700BF0010014062
:1007C000001401408C1300085C1300087413000827
:1007D0006C1300087C1300086413000884130008DD
:1007E00000B55A2087B000F0ADF8044A0346142142
:1007F00001A800F0DFF807B05DF804FB94130008CF
:1008000000B55A2087B000F0B9F8044A0346142115
:1008100001A800F0CFF807B05DF804FBB0130008A2
:1008200010B59CB01749184C012302226846FFF707
:100830007FFF00F083F86846FFF796FF22460346E5
:10084000602104A800F0B6F8021E06DD602AA8BFE9
:10085000602204A96846FFF775FF6846FFF7C0FFEE
:1008600040F2E73300BF1A46013B002AFAD168463E
:10087000FFF7C6FF40F2E73300BF1A46013B002AEC
:10088000FAD1D8E700440040CC130008FEE700BFCF
:1008900008B5FFF7C5FFFEE7104670470020704718
:1008A0004FF0FF30704700BF4FF400534B60002003
:1008B000704700BF0120704700207047FEE700BF6F
:1008C000024B16221A604FF0FF307047680000207C
:1008D00001207047044A05491368002B08BF0B46E6
:1008E000184410601846704764000020750000200E
:1008F00038B504460D46FFF701FC00212046FFF7FE
:1009000019FC2846FFF7D8FBFFF708FC2046012119
:10091000FFF710FCFFF72CFC074C63695B07FCD565
:10092000FFF7D4FB25692469EDB2FFF719FC45EA0E
:10093000042080B238BD00BF005400400020FFF703
:100940007FBB00BF08B50721FFF7D2FF46F6B222F2
:100950004300B2EB400FA3F5D543074804DA013B4F
:10096000A0FB0323580908BD653B80FB0320DB1770
:10097000C3EB601008BD00BF1F85EB5108B5062111
:10098000FFF7B6FF46F6B2224300B2EB400FA3F5E5
:10099000D543074804DA013BA0FB0323580908BDEF
:1009A000653B80FB0320DB17C3EB601008BD00BF75
:1009B0001F85EB510CB430B5174B0C1E1D689DB054
:1009C00008DA8B232B604FF0FF301DB0BDE83040BC
:1009D00002B070474FF40273ADF8143014BF04F145
:1009E000FF332346049307934FF6FF73029006905C
:1009F000ADF81630209A21AB02A92846019300F0E9
:100A000047F9431CBCBF8B232B60002CDDD0029B1D
:100A100000221A70D9E700BF0000002038B5054653
:100A2000002941D051F8043C0C1F002BB8BFE4183A
:100A300000F04EFC1D4A136833B963601460284609
:100A4000BDE8384000F04ABCA34208D9206821180C
:100A50008B4201BF19685B6809182160EDE71A46EF
:100A60005B680BB1A342FAD911685018A0420BD1B0
:100A700020680144501883421160E0D118685B6817
:100A8000536001441160DAE702D90C232B60D6E7EA
:100A9000206821188B4204BF19685B68636004BF3B
:100AA000091821605460CAE738BD00BF6C000020FF
:100AB00070B50E4E0C463168054611B900F07CFB4E
:100AC00030602146284600F077FB431C0AD0C41C46
:100AD00024F00304A04207D0211A284600F06CFB42
:100AE000013001D14FF0FF34204670BD700000206E
:100AF0002DE9F041CD1C25F0030508350C2D38BF3C
:100B00000C25002D074601DBA94205D90C233B60CB
:100B100000263046BDE8F0812E4E00F0D9FB336848
:100B20001C4634BB29463846FFF7C2FF431C044627
:100B30004DD134682646002E40D1236831463846D0
:100B400004EB030800F038FB80453AD121680335F7
:100B50006D1A25F0030508350C2D38BF0C252946E4
:100B60003846FFF7A5FF01302BD023682B442360C4
:100B70000EE02268521B1ED40B2A16D96119A3421B
:100B8000256018BF5960636808BF316062514B60CF
:100B9000384604F10B0600F0A1FB26F00706231DE2
:100BA000F21AB6D09B1BA350B3E76268A3420CBFF6
:100BB00032605A60ECE723466468B2E734467668F0
:100BC000B9E70C233B60384600F088FBA1E72560BD
:100BD000DEE700BF6C0000202DE9F0478E689E42E2
:100BE00082460C4690461F4638D88A8912F4906F88
:100BF00032D025680969A5EB0109656905EB450552
:100C000005EBD57501334B446D109D4238BF1D4631
:100C1000530531D52946FFF76BFF064650B90C2323
:100C2000CAF80030A38943F04003A3814FF0FF309E
:100C3000BDE8F08721694A4600F022FBA38923F42E
:100C4000906343F08003A381266165614E44A5EB68
:100C500009052660A5603E46BE4200D93E46206892
:100C60003246414600F01AFBA3689B1BA360236831
:100C7000334423600020DBE72A4600F035FB0646BC
:100C80000028E1D121695046FFF7C8FEC7E7000000
:100C90002DE9F04F98468B891B069DB007460D46FF
:100CA00014460ED50B6963B94021FFF721FF286078
:100CB000286120B90C233B604FF0FF30D1E0402386
:100CC0006B610023099320238DF82930CDF80C8027
:100CD0003023DFF8A8818DF82A304FF00109234630
:100CE0009A4613F8012B0AB1252AF9D1BAEB040B65
:100CF0000BD05B46224629463846FFF76DFF013090
:100D000000F0AA80099A5A4409929AF80030002B00
:100D100000F0A28000234FF0FF32CDE905230AF155
:100D2000010A049307938DF853301A935446052211
:100D300014F8011B514800F053FA049AD8B9D006B0
:100D400044BF20238DF85330110744BF2B238DF867
:100D500053309AF800302A2B15D0079A54460020B9
:100D60004FF00A0C214611F8013B303B092B4ED9BC
:100D7000B0B1079214E0A0EB080309FA03F31343A0
:100D80000493A246D2E7039B191D1B680391002B15
:100D9000BBBF5B4242F0020207930793B8BF0492C5
:100DA00023782E2B0CD163782A2B35D1039B1A1D67
:100DB0001B680392002BB8BF4FF0FF33023405933A
:100DC000DFF8BCA021780322504600F009FA40B1B8
:100DD0004023A0EB0A0003FA00F0049B0343013414
:100DE000049314F8011B27488DF82810062200F000
:100DF000F7F9002838D0244B1BBB039B073323F0A3
:100E0000070308330393099B3344099367E70CFBFB
:100E100002320C460120A5E7002301340593194650
:100E20004FF00A0C204610F8012B303A092A03D95A
:100E3000002BC5D00591C3E70CFB0121044601231B
:100E4000F0E703AB00932A46104B04A93846AFF3F2
:100E50000080421C0646D6D1AB895B063FF52CAF1D
:100E600009981DB0BDE8F08F03AB00932A46074BED
:100E700004A9384600F07AF8EBE700BF0514000833
:100E80000B1400080F14000800000000D90B000824
:100E90002DE9F047164699468A680B69DDF82080EF
:100EA0009342B8BF1346336091F8432007460C467F
:100EB0000AB1013333602368990642BF33680233B5
:100EC0003360256815F0060506D104F1190AE368B8
:100ED00032689B1AAB4226DC94F84320131E22682A
:100EE00018BF012392062BD404F143024946384629
:100EF000C04701301ED02368E568326803F006035E
:100F0000042B08BFAD1AA36822690CBF25EAE5755A
:100F100000259342C4BF9B1AED1800261A34B5422F
:100F20001AD1002008E00123524649463846C047FE
:100F3000013003D14FF0FF30BDE8F0870135C6E73F
:100F4000E1185A1C302081F84300224494F84510DF
:100F500082F843100233C7E7012322464946384648
:100F6000C0470130E6D00136D9E700002DE9FF4740
:100F70000F7E0C9D782F914680460C469A4601F1D3
:100F8000430207D8622F0AD8002F00F0D880582FCC
:100F900000F0A38004F1420584F842703AE0A7F122
:100FA0006303152BF6D801A151F823F005100008B2
:100FB00019100008950F0008950F0008950F0008FC
:100FC000950F000819100008950F0008950F0008EC
:100FD000950F0008950F000825110008491000081A
:100FE00007110008950F0008950F00084711000829
:100FF000950F000849100008950F0008950F00088C
:101000000F1100082B681A1D1B682A6004F14205A5
:1010100084F842300123A3E020682968060601F124
:1010200004030AD50E682B60002E03DA2D237642C6
:1010300084F843305E480A2319E00E682B6010F0F4
:10104000400F18BF36B2EFE72B682068191D2960E2
:10105000010601D51E6802E04606FBD51E885448ED
:101060006F2F0CBF08230A23002184F84310656802
:10107000A560002DA2BF216821F0040121600EB9F6
:10108000002D4DD01546B6FBF3F103FB1167C75D8C
:1010900005F8017D3746BB420E46F4D9082B0BD12B
:1010A0002368DE0708D5236961689942DEBF3023D3
:1010B00005F8013C05F1FF35521B2261CDF800A077
:1010C0004B4603AA21464046FFF7E2FE01304CD1D1
:1010D0004FF0FF3004B0BDE8F087354881F8457027
:1010E0002968236851F8046B29601D0614D5DF07B1
:1010F00044BF43F0200323601EB9236823F020037C
:1011000023601023B0E7236843F020032360782393
:10111000284884F84530E3E7590648BFB6B2E6E709
:101120001546BBE72B6826686169181D28603506DF
:101130001B6801D5196002E07006FBD519800023F9
:1011400023611546BAE72B681A1D2A601D6862687C
:101150000021284600F044F808B1401B6060636835
:101160002361002384F84330A8E723692A464946CF
:101170004046D0470130ABD023689B0713D4E068CA
:10118000039B9842B8BF1846A4E70123324649465C
:101190004046D04701309BD00135E36803995B1A84
:1011A000AB42F2DCEBE7002504F11906F5E700BFDE
:1011B000161400082714000838B5064D002304460D
:1011C00008462B60FFF786FB431C02D12B6803B156
:1011D000236038BD6800002000000000000000000F
:1011E00001F0FF01102A2BDB10F0070F08D010F8D8
:1011F000013B013A8B422DD010F0070F42B3F6D1DC
:10120000F0B441EA012141EA014122F007047FF0F4
:1012100000070023F0E80256083C85EA010586EA4B
:10122000010685FA47F5A3FA87F586FA47F6A5FA87
:1012300087F68EB9EED1F0BC01F0FF0102F0070293
:1012400032B110F8013B013A83EA010313B1F8D13E
:101250000020704701387047002D06BF354603381F
:10126000073815F0010F07D1013015F4807F02BF58
:10127000013015F4C03F0130F0BC0138704700BFA9
:101280000A44914200F1FF3300D1704710B511F8C4
:10129000014B03F8014F9142F9D110BD884210B5BE
:1012A00001EB020402D98442234607D8431EA1421F
:1012B00008D011F8012B03F8012FF8E7024401468A
:1012C0008A4200D110BD13F8014D02F8014DF7E735
:1012D000014800F038B800BF74000020014800F059
:1012E00033B800BF740000202DE9F0418046144659
:1012F0000E4621B9BDE8F0411146FFF7F9BB2AB906
:10130000FFF78CFB25462846BDE8F08100F01DF86C
:101310008442074602D8B4EB500F12D8214640460B
:10132000FFF7E6FB05460028EDD0BC4222463146D9
:1013300028BF3A46FFF7A4FF31464046FFF76EFB51
:10134000E1E73546DFE77047704751F8043C181F66
:10135000002BBCBF0B58C0187047000055534152BA
:10136000543F00005541525434000000555341523F
:1013700054310000555341525432000055534152EC
:10138000543300005541525435000000555341522A
:10139000543600004F626A6563742054656D706551
:1013A0007261747572653A2025640D0A00000000B0
:1013B000416D6269656E742054656D70657261740B
:1013C0007572653A2025640D0A0000000D0A546507
:1013D0006D7065726174757265204D6561737572AB
:1013E000656D656E74204D6F6465200D0A2048435D
:1013F000303620436F6E6E6563746564206F6E20B7
:1014000025730D0A00232D302B2000686C4C0065DD
:101410006667454647003031323334353637383920
:101420004142434445460030313233343536373853
:101430003961626364656600F8B500BFF8B500BF46
:101440000400002000000000000000000000000078
:10145000000000000000000000000000000000008C
:10146000000000000000000000000000000000007C
:10147000000000000000000000000000000000006C
:10148000000000000000000000000000000000005C
:10149000000000000000000000000000000000004C
:0414A0000000000048
:040000050800089156
:00000001FF
