:020000040800F2
:1000000000000220E50A0008E10A0008E10A0008F1
:10001000E10A0008E10A0008E10A00080000000007
:10002000000000000000000000000000E10A0008DD
:10003000E10A000800000000E10A0008E10A0008E7
:100040002D4A036893421FD02C4A934215D02C4A64
:10005000934227D02B4A93422BD02B4A93421AD05B
:100060002A4A93422CD02A4A934237D0294A9342B3
:100070003BD0294A93422AD0704702F55052136B65
:1000800043F002031363704702F56052136B43F0B1
:1000900001031363704702F52052136B43F0100302
:1000A0001363704702F54052136B43F0040313636C
:1000B000704702F53052136B43F008031363704727
:1000C00002F51052136B43F020031363704702F5DF
:1000D000C052136B43F480731363CDE702F50052F3
:1000E000136B43F040031363704702F5E052136B48
:1000F00043F0800313637047000002400004024095
:1001000000080240000C02400010024000140240AF
:1001100000180240001C0240002002402DE9F84F68
:10012000FFF78EFF446805462768002301264FF03D
:10013000030802E00133102B2ED006FA03F939EA46
:100140000702F7D160682A6820F010014FEA430CDB
:1001500008FA0CFA02296FEA0A0E01F1FF311DD0EC
:10016000D2F800B02BEA0A0B00F0030A0AFA0CFAE4
:100170004AEA0B0A0129C2F800A038D9A168D06860
:1001800001F0030100EA0E0E01FA0CF1013341EA1D
:100190000E01102BD160D0D1BDE8F88F21694FEA54
:1001A000D30E02EB8E0E03F0070C4FEA8C0C4FF0CF
:1001B0000F0A01F00F0101FA0CF10AFA0CFCDEF84B
:1001C00020A02AEA0C0C41EA0C01CEF8201011689C
:1001D0004FEA430C08FA0CFE21EA0E0A00F0030174
:1001E00001FA0CF141EA0A016FEA0E0E1160916802
:1001F000D4F80CA001EA0E010AFA0CFA4AEA01014D
:1002000091605168C0F30010984021EA090940EA62
:1002100009005060B2E700BFC0E90012FFF77EBFDF
:100220001E4A8368934216D01D4A93420CD0B3F104
:10023000804F1ED01B4A934221D01B4A934211D0BB
:100240001A4A934222D0704702F57842536C43F425
:1002500080335364704702F59C32536C43F00103C2
:100260005364704702F50C32136C43F004031364BB
:1002700070470F4A136C43F001031364704702F593
:100280000D32136C43F002031364704702F50B3216
:10029000136C43F008031364D5E700BF000001406E
:1002A000004001400004004000080040000C0040F5
:1002B000003802408368C268144910B484889C6284
:1002C000DA629A6942F060029A619A6942F08002A9
:1002D0009A611A6A22F002021A621A6A42F0010254
:1002E0001A621A6842F080021A605A698B4242F020
:1002F00001025A6105D01A6810BC42F001021A606E
:1003000070475A6C42F080025A64F4E700000140E2
:100310000378013B032B06D8DFE803F00E0A060240
:10032000836842881A64704783684288DA6370473A
:10033000836842889A637047836842885A6370472B
:1003400008B542808380DDE902320170C0E90223F2
:10035000FFF766FFFFF7AEFFBDE80840FFF7D8BF25
:1003600070B401784B1E012B436840F2BA8000291B
:1003700040F0DB80744A934266D0744A934200F0A6
:10038000CA81734A934200F03B81724A934200F063
:100390003A82714A934200F0AE82704A934240F032
:1003A00088806F4A6D4B546C44F020045464146B85
:1003B00044F004041463A2F540520024DC60146885
:1003C00024F440441460146844F400441460146A33
:1003D00024F070441462146A44F00044146268E02B
:1003E0005F4D604C6A6C42F010026A642A6B42F006
:1003F00002022A630022DA6026685B4A26F440562D
:100400002660266846F400562660266A26F0706646
:100410002662266A46F0E06626622C6B44F00104F0
:100420002C63146824F440241460146844F40024F9
:100430001460546A24F0F0045462546A022944F0AF
:100440007004546240F05A81454C3F4B626C42F05C
:1004500010026264226B42F0020222630022DA6020
:1004600002F1804202F50132156825F4404515601D
:10047000156845F400451560156A25F0704515624C
:10048000156A45F0E0451562226B42F001022263D5
:10049000354A146824F440141460146844F40014B9
:1004A0001460546A24F470645462546A44F4E0643E
:1004B00054624278186858688AB140F2836000221A
:1004C00098601A615A6100293BD0012936D108226F
:1004D000DA60DA6842F4005270BCDA6070478B2050
:1004E000EDE7194A93423FF47BAF184A934200F07C
:1004F000D280174A934239D0164A934200F04C8179
:10050000154A934200F0D581144A934200F0AE811F
:100510000229CED0427818685868002A40F0F4804A
:100520008B2098601A615A61CFE742781868586842
:10053000002AC2D18B2199601A615A610C22DA60BB
:10054000C7E70422DA60C4E700100140004400401D
:1005500000480040004C00400050004000140140A2
:1005600000380240000402400000024002F5F83268
:10057000824D146C44F480241464146B44F002041F
:1005800014630024DC602E687D4C26F440162E6037
:100590002E6846F400162E606E6A26F470666E624F
:1005A0006E6A46F4E0666E62156B45F008051563E9
:1005B000256825F440352560256845F4003525601B
:1005C000656A25F00F056562656A45F00705656295
:1005D000146B44F004041463A2F540520229146819
:1005E00024F440141460146844F400141460546A31
:1005F00024F470645462546A44F4E06454627DD11B
:10060000604C614B226C42F480222264226B42F0E7
:10061000020222630022DA6002F1804202F5013216
:10062000156825F440051560156845F4000515604A
:10063000556A25F470455562556A45F4E0455562A2
:10064000226B4F4D42F0080222632E684F4A26F477
:1006500040262E602E6846F400262E606E6A26F034
:10066000F0066E626E6A46F070066E62256B45F0AB
:1006700004052563146824F440041460146844F4E9
:1006800000041460546A24F470445462546A44F4BC
:10069000E04454620DE73B4D3D4C2A6C42F400327D
:1006A0002A642A6B42F001022A630022DA6026687B
:1006B000334A26F030062660266846F0200626607B
:1006C000266A26F470662662266A46F4E06626628A
:1006D0002C6B44F008042C63146824F44064146008
:1006E000146844F400641460146A24F470041462FE
:1006F000146A022944F4E00414620CD042781868A9
:100700005868002A3FF4EBAE002240F28360986004
:100710001A615A61D9E61B4C1E4B226C42F400321E
:100720002264226B42F0010222630022DA60184A3E
:10073000156825F0C0051560156845F08005156041
:10074000156A25F470451562156A45F4E045156291
:10075000226B42F008022263094A146824F44054D0
:100760001460146844F400541460146A24F0706433
:100770001462146A44F0E06414629AE600040240D1
:10078000000C0240003802400048004000080240CF
:100790000000024000440040664D674C2A6C42F461
:1007A00000222A642A6B42F001022A630022DA60E6
:1007B000266826F003062660266846F002062660B4
:1007C000266A26F00F062662266A46F0080626628A
:1007D0002C6B02F1804202F5023244F004042C63D7
:1007E000146824F440141460146844F40014146071
:1007F000546A24F470645462546A022944F4006414
:1008000054627FF47BAF4B4C4C4B226C42F4002281
:100810002264226B42F0010222630022DA60464A1F
:10082000156825F00C051560156845F0080515607C
:10083000156A25F0F0051562156A45F08005156208
:10084000226B42F0040222633D4A146824F44004FF
:100850001460146844F400041460546A24F470446E
:100860005462546A44F40044546222E602F592321F
:100870000229546C44F020045464146B44F00404C2
:100880001463A2F540524FF00004DC60146824F4B5
:1008900040541460146844F400541460146A24F042
:1008A00070641462146A44F0006414627FF432AE1F
:1008B00077E502F5F4320229146C44F480141464D0
:1008C000146B44F004041463A2F540524FF000048A
:1008D000DC60146824F040741460146844F0007400
:1008E0001460546A24F470245462546A44F400245A
:1008F00054627FF40FAE0F4A124B146C44F4801410
:100900001464146B44F008041463A2F530520024FC
:10091000DC60146824F030041460146844F020048F
:100920001460146A24F470641462146A44F4006459
:100930001462BEE50038024000000240004C004056
:100940000008024000500040426813681B06FCD5B6
:10095000C9B25160704700BF426813689B06FCD55E
:100960005068C0B2704700BF38B130B58160BDE893
:10097000304002734373FFF7F3BC704770B169B145
:1009800062B1013A70B506464C1E8D1814F8011F6D
:10099000B068FFF7D9FFAC42F8D170BD704700BF17
:1009A00070B169B162B1013A70B506464C1E8D183E
:1009B000B068FFF7D1FF04F8010FAC42F8D170BD69
:1009C000704700BF4C3A262A15D8DFE802F01B1802
:1009D00014141414151414141414141414141414D6
:1009E00014141414141414141414141414141B18BC
:1009F0001414141415007047B42200F01DB95A22C3
:100A000000F01AB9002200F017B900BF80B5A4B0F9
:100A1000032301931C932D4B0993202203F550438C
:100A200018920293C82240F23F63CDE907324FF497
:100A3000FA73069318AB01240BAD03930523002131
:100A40000226CDE9045400935A22214B1B9413A88B
:100A5000CDE9196100F070F85A22294613A800F078
:100A6000EBF81C4F294613A800F014F92346324630
:100A700019491A4C0FA8FFF777FF0FCF0DF1740C2F
:100A8000ACE80F0097E80700ACE803001DA9ACF83C
:100A900000200FA8192240F60D26FFF76FFF214610
:100AA0000FA80122FFF77CFF21460FA80122ADF815
:100AB0002860FFF763FF0AA90FA80222FFF75EFF75
:100AC0002278294613A8FFF77DFFE8E700400140A0
:100AD00000380240280D00080048004000000020B7
:100AE000FEE700BF0E480F4A904208B507D2013A10
:100AF000121A22F003020C49043200F0FFF80B48EE
:100B00000B4A904207D2013A121A22F00302043231
:100B1000002100F001F900F00DF8FFF777FFFEE784
:100B20000000002000000020600D000800000020F0
:100B300004000020704700BF2DE9F04784B08C46C8
:100B400014461E46DDE90E799DF830E09DF834A08C
:100B5000DDF840809DF84410BDF84820BDF84C30C9
:100B6000002845D0C0E9017980F800C0C66080F84F
:100B700010E080F811A04470054615980190149873
:100B800000900020A8704046FFF7DAFB57B1B9F19A
:100B9000000F07D039464A4602A80297CDF80C90BC
:100BA000FFF73AFB2A786B78D8F80810012A22D18F
:100BB000A3F15902022A33D91D4A5A3B82FB030290
:100BC000DB17C3EBA2030F33142BA4F15902A8BF08
:100BD0001423022A4B6329D9154B5A3C83FB042367
:100BE000E417C4EBA3030F33142BA8BF14234B63E8
:100BF00004B0BDE8F0870F4A03EB83035B0804EB06
:100C00008404A2FB030364089B08A2FB04240A33A8
:100C1000A4084B6304F10A034B6304B0BDE8F087FA
:100C2000A4F159020F23022A4B63D5D80F23F3E70F
:100C3000398EE338176CC116034610B3B42A13D8A3
:100C400080785A7088B11B788968012B0ED1A2F187
:100C50005903022B17D90D4B5A3A83FB0203D217C3
:100C6000C2EBA3030F3309E00120704702EB8202BD
:100C700007485308A0FB03239B080A334B6300205B
:100C80007047022070470F23F8E700BF398EE33822
:100C9000176CC116E0B190F800C001238370BCF15D
:100CA000010F43788A6814D1A3F1590102291ED992
:100CB00010495A3B81FB0301DB17C3EBA1030F3340
:100CC000142BA8BF14235363136843F0010313606C
:100CD0007047094903EB83035B08A1FB03139B08DF
:100CE0000A335363136843F00103136070470F2303
:100CF000F7E700BF398EE338176CC1160A449142FA
:100D000000F1FF3300D1704710B511F8014B03F823
:100D1000014F9142F9D110BD02440346934200D1E4
:100D2000704703F8011BF9E748432D303620726500
:100D30006164792E2053656E64204C2F4D2F520D27
:100D40000A000000F8B500BFF8BC08BC9E4670471A
:100D5000F8B500BFF8BC08BC9E4670470000000014
:0400000508000AE500
:00000001FF
