:020000040800F2
:1000000000000220B1010008AD010008AD010008A8
:10001000AD010008AD010008AD01000800000000BE
:10002000000000000000000000000000AD0100081A
:10003000AD01000800000000AD0100080102000849
:1000400000000000000000000000000000000000B0
:1000500000000000000000000000000000000000A0
:100060000000000000000000000000000000000090
:100070000000000000000000000000000000000080
:100080000000000000000000000000000000000070
:100090000000000000000000000000000000000060
:1000A0000000000000000000000000000000000050
:1000B0000000000000000000000000000000000040
:1000C0000000000000000000000000000000000030
:1000D0000000000000000000000000000000000020
:1000E0000000000000000000000000000000000010
:1000F0000000000000000000000000000000000000
:1001000000000000000000000000000000000000EF
:1001100000000000000000000000000000000000DF
:1001200000000000000000000000000000000000CF
:1001300000000000000000000000000000000000BF
:1001400000000000000000000000000001030008A3
:10015000114A124C124D08B5136B43F00803136398
:10016000236843F08073236000F022F903F0F4F970
:100170000C4803F02BFB636983F48053636100F048
:1001800051F9284603F022FB074B00BF1A46013BFA
:10019000002AFAD1EFE700BF00380240000C02400D
:1001A000FC530008DC5300087FDE800200BFFDE73F
:1001B0000E480F4A904208B507D2013A121A22F0AF
:1001C00003020C49043203F065FA0B480B4A9042D3
:1001D00007D2013A121A22F003020432002103F07E
:1001E00067FA00F015F8FFF7B3FFFEE70000002004
:1001F0007000002014570008700000201C0500202B
:1002000008B500F0DDFABDE8084001F0B1BA00BF62
:100210002348244BD0F8882042F47002C0F888208C
:100220001A68002142F001021A6099601A68A0F170
:10023000BC2022F0807222F48032F0381A605860BC
:10024000D9601A6842F480321A601A689203FCD5A9
:100250001549164A40F2057008605A601968114A3B
:1002600041F08071196013689B01FCD593680D49BA
:1002700043F414439360936823F0030393609368FB
:1002800043F0020393608B6803F00C03082BFAD150
:100290000349074B074A4FF0006088601A607047B7
:1002A00000ED00E000380240003C024008544007E6
:1002B00000000020007A030A38B5044603F0A6FACD
:1002C000C2B21F2A964628BF4FF01F0E0EF1010042
:1002D0000A4B4000C0B20321187059706AB1002265
:1002E000611E15460132D4B211F801CF83F802C065
:1002F000A645DD7003F10203F4D838BD700000207C
:10030000014801F00BBB00BFB00000200368B3F14F
:10031000A04F00D07047134B13481A6B42F00102F4
:1003200030B51A635A6B42F080025A635A6C87B038
:100330004FF4C05142F480425A64002503220191D7
:100340000A2301A90224CDE904230395029400F0B5
:1003500013FF064B5021082283F843139A6007B01D
:1003600030BD00BF003802400000024000E100E064
:1003700008B50368B3F1A04F00D008BD094B0A4887
:100380005A6B22F080025A635A6C22F480425A64FB
:100390004FF4C05101F034F8044B0822C3F8882010
:1003A00008BD00BF003802400000024000E100E04C
:1003B0002DE9F0411A4C402700F0E8F9022600230D
:1003C0004FF0A04106224FF00108E019C4E91012D5
:1003D000C4E91668C4E91833C4E91A33C4E9143708
:1003E000E66401F0CBF908B1BDE8F0810546802153
:1003F000E01901F0C3FE3A462946E01901F096FEE5
:100400003A464146E01901F091FE3A463146E0197C
:1004100001F08CFEE019BDE8F04101F03BBA00BFED
:100420007000002038B50C4C94F8F03303B938BD97
:1004300000F0CEF9D4F8F433C31AB3F57A7F054649
:10044000F5D9064A1523822104F1400001F0C8FDC8
:10045000C4F8F45338BD00BF700000203C540008BD
:1004600028B32DE9F041124C94F8F033EBB1074674
:1004700003F0CCF90646C0B104F14008402E3546E1
:1004800028BF40252B463A468221404601F0A8FD70
:1004900000F09EF9044600E000BF00F099F9001B4F
:1004A0000128F9D9761B2F44E8D1BDE8F0817047C7
:1004B00070000020002310B519460446402201F0C8
:1004C000E9FC002340228021204601F0E3FC034B9D
:1004D000002283F8F02383F8F82310BD7000002079
:1004E00070B590F87C3390F87D23B0F87E1313F04C
:1004F000600F82B004461CD003F07F03212B11D182
:10050000202A7AD0222A0DD15C48002301F0010470
:100510001A46194680F8F843403002B0BDE87040F2
:1005200001F05EBD0021204602B0BDE8704001F040
:1005300085BD092AF6D801A353F822F0F105000879
:1005400025050008250500082505000825050008E3
:10055000D90500089F050008250500087D0500084D
:1005600065050008CDB2012D52D0444B002283F81E
:10057000F023002342481A461946CEE73F4890F838
:10058000F043003C18BF012401230DF107020021B4
:1005900040308DF8074001F023FD02B070BD0A0A1B
:1005A000012AB0F8825330D0022A54D0032AB9D19C
:1005B00011F0FF0152D0012953D0022957D003294D
:1005C000B0D13048FFF778FE2C4A83B2AB422C48BA
:1005D00028BF2B460021A0E72848002301F07F0117
:1005E000012480F8F9131A4680F8FA43194693E774
:1005F000254A2348022300218FE7244A07230021AC
:1006000002B0BDE8704001F0AFBC214A1223DDE723
:1006100003231022812101F03DFC184E02234022C9
:100620008221204601F036FC02234022032120468D
:1006300001F030FC06F57F7240232046032101F0D3
:1006400093FC144A86F8F0530F23822106F14000F0
:1006500001F0C6FC8DE7104A4323B7E70F4A042395
:10066000B4E70F48FFF728FE044A83B2AEE70D480F
:10067000FFF722FE014A83B2A8E700BF7000002006
:10068000B000002034540008C054000804000020CA
:1006900098540008B054000854540008AC540008A2
:1006A00020540008285400080B4621B101F07F03B4
:1006B000032B04D070470C480A4601F091BC10B5DA
:1006C000044601F083FC38B92046084ABDE81040D2
:1006D0004023032101F048BC0346044A82212046FE
:1006E00001F07EFCF0E700BFB00000206C040020A9
:1006F00029B938B5064D95F8FA330BB938BD7047AE
:100700000C4695F8F91301F0B3FB85F8FA4338BDB0
:1007100070000020704700BF704700BF704700BFE7
:10072000704700BF704700BF704700BF704700BFF1
:10073000704700BF704700BF10B5094B00244FF051
:10074000FF321A621C625A625C621A611C615A6151
:100750005C619A619C61FFF7EDFF204610BD00BF10
:100760000038024010B5044600F0CAFB064BA3FB5C
:100770000030800900F05CFF4FF0FF30002221467E
:1007800000F0ECFE002010BDD34D621008B50B4BFD
:100790001A6842F400721A601A6842F480621A60A1
:1007A0001A6842F480721A60032000F0C5FE0F2020
:1007B000FFF7D8FFFFF7BCFF002008BD003C024058
:1007C000024A136801331360704700BFAC04002075
:1007D000014B1868704700BFAC04002010B582B010
:1007E0000190FFF7F5FF0446FFF7F2FF019B001BA6
:1007F0009842F9D302B010BD4FF0E022136923F004
:1008000002031361704700BF4FF0E022136943F009
:1008100002031361704700BF0048704702000101E6
:10082000014B1868000C7047002004E0024B186868
:10083000C0F30B00704700BF002004E0024A536879
:1008400043F0010353607047002004E0024A5368FC
:1008500023F0010353607047002004E0024A53680C
:1008600043F0020353607047002004E0024A5368DB
:1008700023F0020353607047002004E0024A5368EB
:1008800043F0040353607047002004E0024A5368B9
:1008900023F0040353607047002004E0024B012260
:1008A000C3F80024704700BF00002742024B00221B
:1008B000C3F80024704700BF0000274219494A6866
:1008C00048684FF4800302F03F0293FAA3F3B3FAAF
:1008D00083F300F48000DBB230FA03F3486847F694
:1008E000C07191FAA1F3B3FA83F3DBB200EA01001D
:1008F00020FA03F014BF0C4B0C4BB3FBF2F2094B84
:1009000002FB00F05B684FF4403292FAA2F2B2FAB6
:1009100082F2D2B203F44033D34001335B00B0FB28
:10092000F3F070470038024000127A000024F4000F
:10093000104B11481A68002142F081021A60996038
:100940001A6822F0A16222F480321A6059605A6853
:1009500010435860C3F88410D3F8842042F000524A
:1009600042F44052C3F884201A6822F480221A60AC
:10097000D96070470038024010300004036870B539
:10098000DE07044634D58C498A6802F00C02042A3A
:1009900000F0E1808A6802F00C02082A03D14A685C
:1009A000550200F1D880844D0023AB70FFF710FF93
:1009B000064605E0FFF70CFF831B642B00F2BD80A9
:1009C0002B689903F6D42379AB706368012B00F090
:1009D0003A81FFF7FDFE784E054605E0FFF7F8FE89
:1009E000401B642800F2A98033689B03F6D4236877
:1009F00098072FD5704A916811F00C0F00F0A38072
:100A0000916801F00C01082900F09980E368002B3F
:100A100000F0BD80694B684E01221A60FFF7D8FED6
:100A2000054605E0FFF7D4FE401B642800F28580F0
:100A300033689B07F6D53268F82393FAA3F3B3FA29
:100A400083F32169DBB201FA03F322F0F8021343C6
:100A50003360236819071ED4580733D4A369C3B180
:100A6000554DAA6802F00C02082A7DD0022B534B88
:100A70004FF000021A6600F09B80FFF7A9FE0446C3
:100A800004E0FFF7A5FE001B642856D82B689B01E5
:100A9000F7D4002070BD6369002B67D0474B464EEA
:100AA0000122C3F8802EFFF793FE054604E0FFF70E
:100AB0008FFE401B642840D8736F9A07F7D52368D0
:100AC0005807CBD53C4A3E4D136C43F0805313641A
:100AD0002B6843F480732B60FFF77AFE064604E030
:100AE000FFF776FE801B642827D82B68D905F7D539
:100AF000314D002385F87030FFF76AFE064605E0A9
:100B0000FFF766FE801BB0F5FA7F16D82B6F9A07A9
:100B1000F6D4237A85F87030A368012B00F0A28008
:100B2000FFF756FE244E0546336F980796D5FFF71C
:100B30004FFE401BB0F5FA7FF6D9032070BD526816
:100B400051023FF563AF1C4A1268920782D5E268F2
:100B5000012A09D17EE7184A126890037FF548AF51
:100B60006268012A3FF444AF012070BD134A124E5F
:100B7000C2F8803EFFF72CFE054604E0FFF728FE92
:100B8000401B6428D9D8736F9B07F7D497E70B4AAB
:100B9000094E1360FFF71CFE054604E0FFF718FE40
:100BA000401B6428C9D833689807F7D4236851E7F5
:100BB000FFF70EFE06460AE00038024000004742FA
:100BC00000700040FFF704FE801B6428B5D82B6836
:100BD0009901F7D447F6C07090FAA0F0B0FA80F00F
:100BE0004FF4403292FAA2F2B2FA82F24FF07063FE
:100BF00093FAA3F3B3FA83F3DEB2E36AD1B2B3405C
:100C0000D4E9076232431343D4E90942C0B252081F
:100C100004FA00F0013A8A4003431343194A43F0AF
:100C2000005301216B601166FFF7D2FD164D04469B
:100C300005E0FFF7CDFD001B64283FF67EAF2B6873
:100C40009A01F6D525E7FFF7C3FD0F4E054605E0EF
:100C5000FFF7BEFD401B64283FF66FAF33689A0371
:100C6000F6D5C4E6FFF7B4FD074E0546336F9B0784
:100C70003FF5F4AEFFF7ACFD401BB0F5FA7FF5D9B8
:100C80005BE700BF0000474200380240694A136832
:100C900003F00F038B422DE9F0410C46054631D29B
:100CA000CBB21370136803F00F038B4202D0012004
:100CB000BDE8F08103689F0706D55F4980688A68B0
:100CC00022F0F00202438A60DE0753D56A685A4B6D
:100CD000012A1B6800F0A680022A00F0A78099076D
:100CE000E5D5554CA36823F003031343A360FFF736
:100CF0006FFD6B68012B064641F288377BD0022BD3
:100D00006FD183E003689A0706D54B4980688A68EB
:100D100022F0F00202438A60DF0722D56A68464B60
:100D2000012A1B6855D0022A79D09907BFD5424EB7
:100D3000B36823F003031343B360FFF749FD6B6807
:100D4000012B074641F2883832D0022B05D13AE018
:100D5000FFF73EFDC31B43455ED8B36813F00C0F8D
:100D6000F6D1344BE2B21A701B6803F00F03A342B2
:100D70009DD12B685A0706D52F49E8688A6822F466
:100D8000E05202438A601B0707D52B4A2969936802
:100D900023F4604343EAC10393600F20FFF7E2FCB2
:100DA0000020BDE8F081FFF713FDC01B404533D89C
:100DB000B36803F00C03042BF5D1D2E7FFF708FD6D
:100DC000C01B404528D8B36803F00C03082BF5D1AD
:100DD000C7E79E03ABD46AE7FFF7FAFC831BBB426D
:100DE0001AD8A36813F00C0FF6D1C2E7FFF7F0FC96
:100DF000831BBB4210D8A36803F00C03042BF5D16E
:100E0000B7E7FFF7E5FC801BB84205D8A36803F0FD
:100E10000C03082BF5D1ACE70320BDE8F081980165
:100E200085D444E79C033FF55CAF40E798013FF56C
:100E300058AF3CE7003C02400038024070B51D4E00
:100E400086B00D461446C0B9336B43F001033363DB
:100E50004FF4807C0223CDE901C303900323059066
:100E600001A91548049300F087F9B26822F0EC62FA
:100E70002A432243B26006B070BD336B0F4843F083
:100E8000040333634FF400710223CDE90113002200
:100E9000032301A904930392059200F06DF9B3684E
:100EA00023F0784343EA050141EAC401B16006B08A
:100EB00070BD00BF00380240000002400008024040
:100EC000014B0122DA64704700004742014B0022C7
:100ED000DA64704700004742064B9B6803F00C033E
:100EE000042B04D0082B00D1E8E4034870470348E2
:100EF000704700BF003802400024F40000127A005E
:100F000008B5104B9B6803F00C03042B17D0082B7B
:100F100013D1FFF7D3FC0B4AF023926893FAA3F3A3
:100F2000B3FA83F302F0F002DBB2074922FA03F3CB
:100F3000064ACB5CD840106008BD0548EBE7054881
:100F4000E9E700BF00380240C45400080000002058
:100F50000024F40000127A00174B9B6803F00C0386
:100F6000042B10B525D0082B21D1FFF7A7FC124C7C
:100F7000F023A26893FAA3F3B3FA83F302F0F0022A
:100F8000DBB20E4922FA03F30D4ACB5CD840106065
:100F9000A2684FF4E05393FAA3F3B3FA83F302F495
:100FA000E052DBB222FA03F3CB5CD84010BD054817
:100FB000DDE70548DBE700BF00380240C454000805
:100FC000000000200024F40000127A00174B9B68F8
:100FD00003F00C03042B10B525D0082B21D1FFF70B
:100FE0006DFC124CF023A26893FAA3F3B3FA83F3D7
:100FF00002F0F002DBB20E4922FA03F30D4ACB5C99
:10100000D8401060A2684FF4604393FAA3F3B3FA98
:1010100083F302F46042DBB222FA03F3CB5CD840E4
:1010200010BD0548DDE70548DBE700BF003802409A
:10103000C4540008000000200024F40000127A00CC
:101040000F22344B02601A68520354D505234360C3
:1010500030490A6802F00102C2600A68F82393FA74
:10106000A3F3B3FA83F302F0F802DBB222FA03F33C
:1010700003610B6F5B0745D505238360254A516FDC
:1010800001F001014161136813F0807F14BF022356
:1010900001238361516801F48001C161516801F04D
:1010A0003F010162536847F6C07C9CFAACF1B1FA8B
:1010B00081F103EA0C03C9B2CB40436253684FF499
:1010C000403191FAA1F1B1FA81F103F4403303F513
:1010D0008033C9B25B00CB40836252684FF07063CB
:1010E00093FAA3F3B3FA83F302F07062DBB222FA4D
:1010F00003F3C36270471B6813F4803318BF0123E6
:101100004360A5E70B6F13F0010318BF0123836051
:10111000B4E700BF003802400D4B0F2202609A680E
:1011200002F0030242609A6802F0F00282609A685C
:1011300002F4E052C2609B68DB0810B403F4E05391
:10114000044C0361236810BC03F00F030B6070476D
:1011500000380240003C0240704700BF10B5054C0B
:10116000E3681B0600D410BDFFF7F6FF8023A373CE
:1011700010BD00BF003802402DE9F04F00230D687C
:10118000DFF85082944F03E00133102B00F0A7806A
:1011900001229A4032EA050402EA050CF4D14E68B5
:1011A00026F01009B9F1020F00F09B80D0F800B0D2
:1011B0004FEA430E032404FA0EF406F0030A2BEA66
:1011C000040B09F1FF390AFA0EFA4AEA0B0AB9F1DF
:1011D000010F6FEA0404C0F800A040F2AB80C268BF
:1011E00014408A6802FA0EF22243C260F200CBD5A4
:1011F000D8F8442042F48042C8F8442023F0030287
:1012000002F1804202F59C3203F00309D2F808E0B3
:101210004FEA89090F2404FA09F42EEA0404DFF8DE
:10122000BCE1704533D00EF5806E704500F09980BA
:10123000DFF8ACE1704500F09B80DFF8A8E1704575
:1012400000F09D80DFF8A0E1704500F09F80DFF89E
:101250009CE1704500F0A880DFF894E1704500F053
:10126000AA80DFF890E1704500F09780DFF888E110
:10127000704500F0A780DFF884E170450CBF4FF0A7
:10128000090E4FF00A0E0EFA09F944EA09049460B7
:101290003A686FEA0C0EF40354BF0EEA02024CEAFD
:1012A00002023A607C68B20354BF0EEA04044CEABE
:1012B00004047C60BC68F20254BF0EEA04044CEAE9
:1012C0000404BC60FA68B40203F1010354BF0EEADF
:1012D00002024CEA0202102BFA607FF459AFBDE81B
:1012E000F08F4FEAD30E00EB8E0E0C69DEF820A0D3
:1012F00003F007094FEA89094FF00F0B04FA09F4CC
:101300000BFA09F92AEA090944EA0904CEF820404F
:10131000D0F800A04FEA430E032404FA0EF406F0BE
:1013200003092AEA040A09FA0EF949EA0A09E44318
:10133000C0F80090D0F808A0D1F80C900AEA040A8E
:1013400009FA0EF949EA0A09C0F80890D0F80490A1
:1013500029EA0209C6F300129A4042EA09024260F1
:101360003DE74FF0010E0EFA09F944EA09048EE751
:101370004FF0020E0EFA09F944EA090487E74FF02C
:10138000030E0EFA09F944EA090480E74FF0040E4F
:101390000EFA09F944EA090479E74FF0070E0EFA4C
:1013A00009F944EA090472E74FF0050E0EFA09F94B
:1013B00044EA09046BE74FF0060E0EFA09F944EA15
:1013C000090464E74FF0080E0EFA09F944EA09042B
:1013D0005DE700BF00380240003C014000000240D1
:1013E00000080240000C02400010024000140240BD
:1013F00000180240001C024000200240002402406D
:101400002DE9F043314C0023012503270F2605FA6F
:1014100003F232EA010C54D1D0F800C04FEA430E77
:1014200007FA0EFE4FEAD30800EB88082CEA0E0CF0
:10143000C0F800C003F0070CD8F820904FEA8C0CDD
:1014400006FA0CFC29EA0C0CC8F820C0D0F8088079
:1014500028EA0E08C0F80880D0F8048028EA0208BC
:10146000C0F80480D0F80C8023F0030C0CF1804C01
:101470000CF59C3C28EA0E0EC0F80CE003F0030EBD
:10148000DCF808804FEA8E0E06FA0EFE28EA0E0EF1
:10149000CCF808E0D4F800C02CEA020CC4F800C074
:1014A000D4F804C02CEA020CC4F804C0D4F808C074
:1014B0002CEA020CC4F808C0D4F80CC02CEA0202D2
:1014C000E2600133102BA2D1BDE8F083003C014063
:1014D0000369194214BF0120002070470AB101833B
:1014E00070474183704700BF43695940416170476D
:1014F00082B04FF480330193019B0B430193019B16
:10150000C361C161019BC361C3690193C06980F478
:101510008030C0F3004002B0704700BF704700BF8A
:10152000044A5169014200D1704708B55061FFF784
:10153000F5FF08BD003C01400749CA6803024FF6A9
:10154000FF0003F4E0630240134343F0BF6343F43E
:101550000033CB60704700BF00ED00E01D4BDB683F
:10156000C3F3022300B5C3F1070EBEF1040F03F16C
:10157000040C28BF4FF0040EBCF1060F1CD9033B2E
:101580004FF0010C0CFA03FC0CF1FF3C0CEA020CCE
:10159000012202FA0EF2013A0A409A40002842EA79
:1015A0000C020DDB00F16040120100F56140D2B287
:1015B00080F800235DF804FB4FF0000C6346E7E77A
:1015C000054B00F00F0012010344D2B21A765DF809
:1015D00004FB00BF00ED00E0FCEC00E04109044A20
:1015E00000F01F00012303FA00F042F821007047C9
:1015F00000E100E04309054900F01F00012220330B
:1016000002FA00F041F82300704700BF00E100E05B
:10161000BFF34F8F0449054BCA6802F4E0621343DD
:10162000CB60BFF34F8FFEE700ED00E00400FA054A
:101630000138B0F1807F0FD210B44FF0E023074C97
:1016400058614FF0F00C84F823C0002207211046A7
:101650009A6110BC196170470120704700ED00E0ED
:10166000024BD868C0F30220704700BF00ED00E0D5
:10167000002810B424DB00F1604000F5614090F8D0
:101680000003000901F00701C1F1070CBCF1040FD0
:1016900001F1040428BF4FF0040C062C0ED90339C5
:1016A00001248C40013C0440C840012101FA0CF1A6
:1016B0000139014011601C6010BC70470024F4E740
:1016C000034C00F00F000444207E0009DAE700BF5D
:1016D000FCEC00E04309054900F01F000122403303
:1016E00002FA00F041F82300704700BF00E100E07B
:1016F00043094033064A00F01F0052F8232001231B
:1017000003FA00F0104214BF18460020704700BFD3
:1017100000E100E04309054900F01F0001226033A9
:1017200002FA00F041F82300704700BF00E100E03A
:1017300043098033064A00F01F0052F8232001239A
:1017400003FA00F0104214BF18460020704700BF93
:1017500000E100E04FF0E022042813690CBF43F0E1
:10176000040323F004031361704700BF704700BFF8
:1017700008B5FFF7FBFF08BD704700BF002862D027
:10178000F0B50223064689B0054680F87933FEF7A6
:10179000BDFD306801F066F855F810EBAC46BCE8CA
:1017A0000F006C460FC49CE80F0084E80F00371D43
:1017B00097E80E00704600F0F3FF0021306801F05A
:1017C00059F80021334632460124084682F8301089
:1017D000D18601310F29C2E90E0082F8314082F82A
:1017E0003300506402F11C02F0D10022D6F800C090
:1017F000144602F1400183F8D421DA860CEB810112
:1018000001320F2AC3E9774483F8D54183F8D741E1
:10181000C3F8E8414C6003F11C03EAD10FCDEE465A
:10182000AEE80F0095E80F008EE80F00604697E8DD
:101830000E0001F039F8306886F8794301F066FC53
:10184000002009B0F0BD0120704700BF704700BF05
:10185000F0B110B590F878330222012B044680F8DD
:1018600079230ED00123006884F8783300F0FAFF62
:10187000206801F0FDFB206801F048FC002384F89B
:1018800078332046FEF774FD002084F8790310BDFC
:101890000120704790F87833012B0ED010B5044624
:1018A0000123006884F8783301F022FC206800F0FE
:1018B000D1FF002084F8780310BD0220704700BFDC
:1018C00090F87833012B11D010B50446012300683D
:1018D00084F8783300F0C6FF206801F0C9FB206867
:1018E00001F014FC002084F8780310BD022070473A
:1018F000704700BF704700BF704700BF704700BF10
:10190000704700BF704700BF704700BF704700BFFF
:10191000704700BF704700BF704700BF2DE9F04F10
:10192000D0F8008087B00446404601F02DFC10B18D
:1019300007B0BDE8F08F0546206801F0F5FB0028F0
:10194000F6D0206801F0F0FB10F0020F20681EBFF7
:10195000436943F00203436101F0E6FB060300F133
:101960006B814FF0000B206801F0DEFB400300F1BB
:10197000BF80D4F800A0504601F0D6FB0028C0F28A
:10198000FD81206801F0D0FB01054AD4206801F0F8
:10199000CBFBC3046ED4206801F0C6FB10F4005FDB
:1019A000206849D101F0C0FB10F0100F206813D05F
:1019B000836923F010038361D8F82050C5F34343B3
:1019C000022B05F00F0600F0E881062B00F0B58130
:1019D000836943F01003836101F0A6FB070700F160
:1019E0008F81206801F0A0FBC60200F17E81206893
:1019F00001F09AFB850200F16D81206801F094FBF3
:101A0000400000F15E81206801F08EFB41078FD518
:101A100023685D686A0700F1E2815A682A435A60C8
:101A200086E7D8F80838DA0700F1D58120684369DD
:101A300043F400634361AAE701F0AAFB2068C3688E
:101A400023F47053C36001F01BF82268002840F0B3
:101A50006B814FF400736361D368E06043F410530B
:101A6000D3602046FEF726FD2068436943F4005307
:101A7000436197E7D8F80438206823F00103002178
:101A8000C8F8043800F0D2FF616808F5006651B16B
:101A900008F51063FF2201358D429A60C3F80822D1
:101AA00003F12003F7D14FF0FF33B361F36943F043
:101AB0000113F361A36A002B40F02B81736943F09B
:101AC0000B037361336943F00B033361D8F80038BB
:101AD000217C206823F4FE63C8F8003804F55F72A7
:101AE00001F072FB2068436943F48053436153E77C
:101AF000206801F025FBD4F800A081468346002829
:101B00003FF439AFCDE90285264608F510674FF05E
:101B1000000BA046544609E05FEA59090BF1010B9E
:101B200006F11C0607F1200700F01C8119F0010FD7
:101B3000F2D05FFA8BFA2046514601F013FBC10741
:101B4000044618D50121029B01FA0BF2D243C3F8D7
:101B50003428D8F81030B9608B4203D1D6E90E236F
:101B60001344F36351464046FEF7C2FDD8F8101007
:101B7000012900F03981220744BF0823BB60E30636
:101B800044BF1023BB60650644BF4023BB60A00771
:101B900044BF0223BB6014F0800FD8F80040BBD0D4
:101BA000D6E91123B16B059404F51060D51A00EB4A
:101BB0004B108D4228BF0D4681698446E81C48BF02
:101BC000A81D89B2B1EBA00F28D90497114657463A
:101BD000A24664461BE0B56BF16B9D4228BF1D46D3
:101BE00098F8103000933A46ABB2504601F0DAF95B
:101BF000F36BA1692B44E81CF363B36C89B248BF53
:101C0000A81D2B44B1EBA00FB36404D9716C8B42B7
:101C1000A1EB0303DFD3049FD8F80040002D3FF76A
:101C20007BAF059B0121D3F8342801FA0BF122EA9E
:101C30000102C3F834286FE7206801F079FA0646FC
:101C400000283FF48EAE08F53067A1464FF0000B38
:101C5000029507E076080BF1010B07F1200709F167
:101C60001C097DD0F507F5D55FFA8BF5206829466C
:101C700001F06EFA10F0010F824619D00123BB600B
:101C80002369012B0CD13B69D9F8DC21C3F3120382
:101C9000D31AC9F8EC31D9F8E0311344C9F8E0316E
:101CA00029462046FEF700FD2169012900F0AC809D
:101CB0001AF0080F5CD11AF0100F1CBF1023BB6084
:101CC000C8E72046FEF730FD2068436943F08043B3
:101CD000436199E620465FFA8BF1FEF721FD20680B
:101CE000436943F40013436188E620465FFA8BF1B1
:101CF000FEF718FD2068436943F48013436177E6DB
:101D00002046FEF707FD2068436943F0080343615E
:101D100068E6D6F8843043F00B03C6F88430736C61
:101D200043F00B037364D1E60323E3604023636154
:101D3000D36843F4A053D36093E6082204F55F719F
:101D40004046C6EBC60601F045F904EB8602C5F332
:101D50000A13D2F8EC1120680B44C2F8EC3137E6D4
:101D6000029D00E6A246039D4446DDF8088002E697
:101D70002046FEF7B5FB0823BB609CE7D8F8043883
:101D800023F00103C8F804382046FEF7C7FC20689A
:101D9000436943F000434361F4E547F6F0731D42A5
:101DA0003FF416AEC6EBC60604EB8606C5F30A1270
:101DB000D6F8E011404601F00DF9D6F8E031206880
:101DC000C5F30A152B44C6F8E031D6F8EC312B44A4
:101DD000C6F8EC31FCE52046FEF79EFC26E62046E0
:101DE000FEF7A4FC236818E6BBF1000F7FF4C3AE36
:101DF000D8F84430002B7FF4BEAED8F8000008F5C8
:101E00005F7201F0E1F9B6E6BBF1000F7FF450AF6D
:101E1000D4F8E831002B7FF44BAF206804F55F72F3
:101E200001F0D2F944E700BF90F87833012B0BD0D2
:101E300010B504460123006884F8783301F058F99E
:101E4000002084F8780310BD0220704790F87833A2
:101E5000012B0BD010B504460123006884F87833B9
:101E600001F054F9002084F8780310BD0220704777
:101E700090F87833012B0BD010B50446012300688D
:101E800084F8783301F024F9002084F8780310BD39
:101E9000022070478C46090610B5044623D41C2145
:101EA00001FB0C01CCEBCC0004EB800001F5EA71E6
:101EB000C0F8DC21002280F8D4C180F8D73180F846
:101EC000D521022B04BF00230B7194F87833012B2A
:101ED0001ED00123206884F8783300F0EDFD002047
:101EE00084F8780310BD0CF07F0C1C2101FB0C0161
:101EF000CCEBCC0004EB800030318263012280F80F
:101F000030C080F83330A0F836C080F83120D8E7F0
:101F1000022010BD4FFA81FCBCF1000F10B50A463B
:101F2000044617DB1C2303FB010303F5EA714FEAA8
:101F3000DC7C0A7081F801C094F87833012B11D051
:101F40000123206884F8783300F068FE002084F8CC
:101F5000780310BD01F07F021C2303FB020303F191
:101F60003001E4E7022010BD38B501F07F051C21E7
:101F7000044601FB0501C5EBC50004EB800001F53B
:101F8000EA71C0F8E8310023C0F8E02180F8D451AC
:101F9000C0F8EC3180F8D5312369012B08BFC0F8B7
:101FA000E42194F87823012A0ED0012284F87823C2
:101FB0002068DAB22DB100F093FE002084F8780397
:101FC00038BD00F069FFF8E7022038BD01F07F015D
:101FD000C1EBC10100EB8101B1F8EC01704700BF1A
:101FE00038B501F07F051C21044601FB0501C5EB56
:101FF000C50004EB80003031436400238364012377
:10200000C26380F8305080F831302369012B08BF5B
:10201000026494F87823012A0ED0012284F87823F0
:102020002068DAB22DB100F05BFE002084F878035E
:1020300038BD00F031FFF8E7022038BD4AB2002A6F
:1020400038B50D46044617DB1C2303FB010303F5DB
:10205000EA710123D20F8B700D704A7094F87823C7
:102060009A4218D0206884F8783300F0CBFF5DB135
:10207000002084F8780338BD01F07F051C2303FBA2
:10208000050303F13001E4E7217C206804F55F7269
:1020900001F09AF8ECE7022038BD00BF4FFA81FC4E
:1020A000BCF1000F38B50A46044619DB1C2303FBBC
:1020B000010303F5EA7100254FEADC7C8D700A709C
:1020C00081F801C094F87833012B11D001232068E6
:1020D00084F8783300F0B4FF84F87853284638BD8C
:1020E00001F07F021C2303FB020303F13001E2E74E
:1020F000022038BD90F87833012B15D0012310B59C
:1021000080F878330B060446006805D400F0A0FC84
:10211000002084F8780310BD01F07F0100F086FCF8
:10212000002084F8780310BD0220704710B40468C2
:10213000606A29B940EA0240A062002010BC7047E2
:10214000A36AB1F1010C00EB13400CD00023194637
:10215000403104EB810101334968DBB2634500EB98
:1021600011401946F4DB0CF1400C04EB8C0C40EAF6
:102170000240CCF8040010BC002070470368002027
:10218000596270470368D3F80828D20703F5006343
:1021900003D55A6842F001025A600020704700BF20
:1021A000034600201B68D3F8042822F00102C3F87C
:1021B0000428704790F87903704700BF80B588B055
:1021C00002AFF860B9601346FB7100237B750023F2
:1021D0007B820023FB824FF480733B82FB68B3F168
:1021E000A04F12D0BB681B79002B0ED1FB79002BBE
:1021F0000BD1BB685B79012B07D1BB685B781946B3
:10220000F86800F00BFA0023FAE0BB681B69002BAA
:1022100019D0BB681B69BA6812891344013BBA68BC
:102220001289B3FBF2F3FB82FA8A3B8A9A420CD9F9
:102230003B8AFB82FB8ABA68128902FB03F31A46C7
:10224000BB681A6101E00123FB82BB68DB78002BCD
:1022500007D0FB8ABA68128902FB03F31A46BB68EF
:102260001A61BB681B69C3F31202FB8ADB041946BF
:10227000654B0B401A43BB689B7A5B0703F0C04376
:10228000B96849784801F968014401F5A061134330
:102290000B61FB79002B0AD0BB68D968BB685B78FF
:1022A0005A01FB68134403F5A0630A465A61FB68B0
:1022B00003F580639B6803F00103002B0CBF01232F
:1022C0000023DBB27B75BB685B785A01FB68134463
:1022D00003F5A0631B68BA6852785101FA680A4492
:1022E00002F5A06223F000531360BB685B785A01CB
:1022F000FB68134403F5A0631B687A7D5207104600
:10230000BA6852785101FA680A4402F5A0620343A0
:102310001360BB685B785A01FB68134403F5A06344
:102320001B68BA6852785101FA680A4402F5A06243
:1023300023F080431360BB685B785A01FB68134449
:1023400003F5A0631B68BA6852785101FA680A4421
:1023500002F5A06243F000431360FB79002B4ED1DD
:10236000BB68DB78002B4AD1BB681B69002B46D0C9
:10237000BB68DB79032B31D801A252F823F000BFF0
:1023800091230008B523000891230008B523000815
:10239000BB681B6903339B087B827A8AFB68DB6A14
:1023A0009BB29A421CD9FB689B6943F02002FB68F0
:1023B0009A6115E0BB681B6903339B087B827A8AAC
:1023C000FB6803F580631B699BB29A420AD9FB68DC
:1023D0009B6943F08062FB689A6103E000BF02E002
:1023E00000BF00E000BFBB68D968BB685A78BB6813
:1023F0001B699BB200200090F86800F0D3FD002319
:1024000018461837BD4680BD0000F81F80B483B061
:1024100000AF78607B6803F580635B699BB2184608
:102420000C37BD4680BC704780B485B000AF786083
:102430000B46FB700023FB60FB785A017B6813445A
:1024400003F5A0631B68FB785A017B68134403F50E
:10245000A0631B6803F40023002B6BD0FB785A01A8
:102460007B68134403F5A0631B68FA7851017A680E
:102470000A4402F5A06243F0804313607B68DB6A84
:102480009BB2002B43D1FB785A017B68134403F5C0
:10249000A0631B68FA7851017A680A4402F5A062C9
:1024A00023F000431360FB785A017B68134403F563
:1024B000A0631B68FA7851017A680A4402F5A062A9
:1024C00043F000431360FB785A017B68134403F523
:1024D000A0631B68FA7851017A680A4402F5A06289
:1024E00023F400431360FB680133FB60FB68B3F522
:1024F0007A7F1DD8FB785A017B68134403F5A063EB
:102500001B6803F00043B3F1004FECD07FE0FB7891
:102510005A017B68134403F5A0631B68FA785101E4
:102520007A680A4402F5A06243F0004313606EE04B
:1025300000BF6CE0FB785A017B68134403F5A0638D
:102540001B68FA7851017A680A4402F5A06243F0E8
:10255000804313607B6803F580631B699BB2002B8B
:1025600043D1FB785A017B68134403F5A0631B68D1
:10257000FA7851017A680A4402F5A06223F0004318
:102580001360FB785A017B68134403F5A0631B6852
:10259000FA7851017A680A4402F5A06243F00043D8
:1025A0001360FB785A017B68134403F5A0631B6832
:1025B000FA7851017A680A4402F5A06223F40043D4
:1025C0001360FB680133FB60FB68B3F57A7F1DD8AD
:1025D000FB785A017B68134403F5A0631B6803F082
:1025E0000043B3F1004FECD011E0FB785A017B6857
:1025F000134403F5A0631B68FA7851017A680A4412
:1026000002F5A06243F00043136000E000BF002326
:1026100018461437BD4680BC704700BF80B485B0F3
:1026200000AF78600B46FB700123FB73FB7BDB0480
:102630001A46184B1340FA7851017A680A4402F599
:10264000A06243F000431361FB785A017B68134496
:1026500003F5A0631B68FA7851017A680A4402F511
:10266000A06223F080431360FB785A017B68134417
:1026700003F5A0631B68FA7851017A680A4402F5F1
:10268000A06243F000431360002318461437BD4690
:1026900080BC70470000F81F80B586B000AF78603E
:1026A00000233B61786800F0DDF81021786800F0C5
:1026B000BDF9786800F0CCF90023FB751FE0FB7DC5
:1026C0005A017B68134403F5A0631B68FB60FB6839
:1026D00043F08043FB60FB6823F00043FB60FB6832
:1026E00023F40043FB60FB7D5A017B68134403F530
:1026F000A0631A46FB681360FB7D0133FB75FB7D0D
:102700000F2BDCD90023FB7534E0FB7D5A017B687D
:10271000134403F5A0631B68FB60FB6843F0804330
:10272000FB60FB6843F00043FB60FB6823F400435D
:10273000FB60FB7D5A017B68134403F5A0631A46D6
:10274000FB6813603B6901333B613B69B3F57A7FFA
:102750000CD8FB7D5A017B68134403F5A0631B680A
:1027600003F00043B3F1004FECD000E000BFFB7D6D
:102770000133FB75FB7D0F2BC7D97B6803F58063A5
:102780001A464FF0FF3353617B684FF0FF325A61B6
:10279000786800F05FF8002318461837BD4680BD02
:1027A00084B00DF1040C8CE80E00069B012B30D197
:1027B000836B0B9A23F480338363C36823F484030D
:1027C00023F04003C360C368012A23F44013C360AD
:1027D00039D01F4B01E0013B0DD00269002AFADA23
:1027E00002691B4B42F00102026101E0013B02D091
:1027F0000269D107FAD4049B012B07D1836843F007
:102800000C038360836843F020038360002004B0DE
:102810007047C2680E4B42F04002C26001E0013BCB
:102820000DD00269002AFADA0269094B42F001026E
:10283000026101E0013B02D00269D207FAD44FF4F1
:1028400080338363D7E7C36843F48013C360C0E772
:10285000400D0300034600209A6842F001029A608E
:10286000704700BF034600209A6822F001029A6078
:10287000704700BF08B5C368012923F0C043C36097
:1028800009D019B9C36843F08043C3603220FDF713
:10289000A5FF002008BDC36843F00053C360322089
:1028A000FDF79CFF002008BD84B02DE9704307AC04
:1028B00084E80E00836B0F9C0A9D43F4002383631E
:1028C0001CB9836B43F4001383630023C0F8003EFC
:1028D0000C9BD0F80028C0F80028012B00F5006CF4
:1028E00000F09080D0F8003843F00303C0F80038BF
:1028F0004FF4087303614A4B01E0013B02D00269C7
:102900009606FAD410230361454B01E0013B02D047
:102910000269D206FAD400224FF0FF33CCF810201F
:10292000CCF81420CCF81830CCF81C2071B300F58A
:10293000106396464FF090494FF0FF081E68013231
:10294000002EB4BFC3F80090C3F800E08A42C3F879
:1029500010E0C3F8088003F12003EFD1002200F556
:10296000306396464FF090494FF0FF081E680132E1
:10297000002EB4BFC3F80090C3F800E08A42C3F849
:1029800010E0C3F8088003F12003EFD1DCF8103029
:10299000012D23F48073CCF8103020D000226FF08A
:1029A0008043826143611DB9836943F010038361F1
:1029B00081691C4B0D9A0B4383611AB1836943F003
:1029C00008038361012C05D1836943F0804343F000
:1029D00004038361BDE87043002004B07047124BCC
:1029E000CCF83030DCF8303043F4803343F003036C
:1029F000CCF8303000226FF08043DCF83010826178
:102A00004361D5E7099B23B9D0F80038C0F80038F6
:102A10006EE7D0F8003843F00103C0F8003867E7EC
:102A2000400D030000383C8000018000490141F066
:102A30002001064A016101E0013A05D0036913F063
:102A40002003F9D11846704703207047400D03005A
:102A50001023064A036101E0013A05D0036913F02F
:102A60001003F9D11846704703207047400D03004A
:102A7000D0F80028034611430020C3F8001870471F
:102A800000F50062D0F8080810F0060012D0936834
:102A900003F00603022B0CD0936803F00603062B09
:102AA00007D0936803F00603042B14BF0020022014
:102AB00070470320704700BF30B44B78012B21D002
:102AC00091F800C0D0F81C484FF4803303FA0CF39F
:102AD00000F53062234302EB4C12C0F81C38136837
:102AE0001B040CD48B681068C978C3F30A03034332
:102AF00043EA814343F0805343F4004313600020D2
:102B000030BC70470C78D0F81C58A34000F5106218
:102B10009BB22B4302EB4412C0F81C381368180414
:102B2000EDD48B681068C978C3F30A03034343EA02
:102B3000814343EA845343F0805343F4004300202D
:102B400030BC1360704700BF30B54B7891F800C0BF
:102B5000012B2AD000F5306505EB4C131A681204DE
:102B60000AD5D0F83C284FF4803303FA0CF3134312
:102B7000C0F83C38002030BD91F803E089681C683B
:102B80004FEA8C52C1F30A0142EA8E420A4344EAF8
:102B9000020141F4004119601F490D600B600B6890
:102BA0001A4342F400420A60DBE700F5106404EBCC
:102BB0004C148A6823681D041AD5CB78C2F30A0224
:102BC00099044FEA8C53144C1343226813430B436C
:102BD00043F0805343F4004323600123D0F83C28A2
:102BE00003FA0CF39BB21343C0F83C38002030BD0D
:102BF0002368CD78C2F30A0243EA020141EA854123
:102C000041EA8C5141F0805141F4004121604FEA8A
:102C10008C53A904D7E700BFB00400204B7891F88B
:102C200000C0D0F83C18012B17D04FF4803202FAC4
:102C30000CF221EA0201C0F83C18D0F81C1800F58B
:102C4000306303EB4C1321EA0202C0F81C281A6817
:102C500022F400421A600020704703FA0CF39BB282
:102C600021EA0301C0F83C18D0F81C1800F51062E6
:102C700002EB4C1221EA0303C0F81C38136823F45A
:102C800000431360002070474B7891F800C0012B7F
:102C900013D000F5306303EB4C134FF48032196806
:102CA00021F400411960D0F81C3802FA0CF223EA32
:102CB0000203C0F81C380020704700F5106202EBD8
:102CC0004C1203FA0CF3116821F400411160D0F8A2
:102CD0001C289BB222EA0303C0F81C38002070476E
:102CE0002DE970434C78012C47D00C7800F5306307
:102CF00003EB44134C691D69ED0CED041D611D6966
:102D000025F0FF5525F4C0151D615CB38E68614D3B
:102D10003444013CB4FBF6F405EAC445A4B206FB16
:102D200004F41E6935431D611D69C4F312042C436C
:102D30001C61012A04BFCA685A61CA78012A0AD1F3
:102D4000D0F8082812F4807F1A680CBF42F00052B5
:102D500042F080521A601A6842F004421A60002061
:102D6000BDE870838C681D69C4F312042C431C6198
:102D70001C6944F400241C61DBE70E784D6900F502
:102D8000106303EB4613BDB3D3F810C0D1F808901D
:102D90004FEADC4C4FEACC4CC3F810C0D3F810E03B
:102DA000DFF8F0C02EF0FF5E2EF4C01EC3F810E076
:102DB000D3F8108005EB090E0EF1FF3EBEFBF9FEC5
:102DC0000CEACE4C4CEA080CC3F810C0D3F810E063
:102DD000C5F3120C4CEA0E0CC3F810C091F803C0F6
:102DE000BCF1010F45D0012A50D0D0F83428B440AE
:102DF0001443C0F83448AEE71C6924F0FF5424F4AF
:102E0000C0141C611C6944F400241C611C69E40C9E
:102E1000E4041C61012A91F803C023D0BCF1010F26
:102E200099D1D0F8084814F4807F1C680CBF44F096
:102E3000005444F080541C601C6844F004441C603E
:102E4000002A8CD1ACB20334A41088D000F5805095
:102E5000CB6800EB0636013253F8041B3160944214
:102E6000F9D17CE70C695C61BCF1010F7FF473AFB1
:102E7000D7E71C6924F0C0441C611C69012A44F096
:102E800000541C61CDD10C695C61CAE70A695A61C2
:102E900061E700BF0000F81F70B44B78012B27D00A
:102EA0000B784C6900F5306000EB43100369DB0CD4
:102EB000DB040361036923F0FF5323F4C0130361B0
:102EC0008B689CB9046944F4002404610469C3F369
:102ED00012032343012A036104BFCB6843610368E3
:102EE00043F00443036070BC002070474B61E9E786
:102EF0004C6984B391F800C08E6800F5106303EB51
:102F00004C13B4421D694FEAD5454FEAC5451D61D2
:102F10001D6925F0FF5525F4C0151D6135D91C69C3
:102F20004E6144F400241C611D69C6F312042C4355
:102F3000012A1C6126D03EB1D0F83418012202FAD1
:102F40000CF20A43C0F834281A6842F00442002008
:102F500070BC1A6070470B7800F5106000EB4313EB
:102F6000012A186920F0FF5020F4C0101861186978
:102F700040F40020186118694FEAD0404FEAC04081
:102F80001861E1D10A695A61DEE71D6945F400253F
:102F90001D611D69C4F312042C43012A1C61CBD1AD
:102FA000F0E700BF10B49DF804407CB903F1030CB6
:102FB0005FEAAC0C0AD000F5805000EB02322346E9
:102FC000013351F8040B10609C45F9D1002010BC6E
:102FD000704700BF02F1030C5FEAAC0C0FD000B5E4
:102FE0000A4600F5805E00230133DEF8000042F857
:102FF000040B9C45F8D101EB8C005DF804FB0846FE
:10300000704700BF4B78012B0B7810D000F5306073
:1030100000EB43100368002B03DB036823F08043BD
:103020000360036843F4001303600020704700F559
:10303000106000EB43100368002BEEDAF1E700BFED
:103040004B78012B0B780CBF00F5106000F5306059
:1030500000EB4310036823F400130360CB78023BBA
:10306000012B03D8036843F08053036000207047AE
:1030700010B400F5106300F52E6CFF229A6003F582
:103080000071203363458A60F8D100214FF0FF338F
:103090001024C0F81838C0F810180C4BC0F81418D9
:1030A000C0F81C18046101E0013B02D00269D1069E
:1030B000FAD44FF40872054B026101E0013B02D0E3
:1030C00002699206FAD4002010BC7047400D03003C
:1030D000D0F8003823F4FE63C0F80038D0F8003888
:1030E000090101F4FE611943C0F80018002070477F
:1030F00008B503460320D3F8042822F00202C3F8DF
:103100000428FDF76BFB002008BD00BF08B503468F
:103110000320D3F8042842F00202C3F80428FDF784
:103120005DFB002008BD00BF426980691040704708
:10313000D0F8183800F50060C0691840000C7047DE
:10314000D0F8183800F50060C069184080B27047A8
:1031500000F5306303EB411300F500609A684069A5
:1031600010407047D0F81028D0F8343800EB4110E8
:10317000CB40DB01D0F80809DBB21343184070479D
:1031800043690B4343617047406900F00100704799
:10319000D0F8003923F4FF6323F0070300F5006241
:1031A000C0F80039936803F00603042B05D1D0F86A
:1031B000003943F00303C0F80039536843F48073C7
:1031C00000205360704700BF10B40024C0F8104BBB
:1031D000D0F8104B44F40024C0F8104BD0F8104B3A
:1031E00044F01804C0F8104BD0F8104B012944F0FB
:1031F000C044C0F8104B05D14FF08021C0F8142B0B
:10320000C0F8001B002010BC704700BF84B030B570
:1032100004460020C4F8000EA06B20F48020A063B8
:1032200083B0A06B07AD85E80E0020F40020A063FA
:10323000A36B099A089943F40013A363032AD4F8F3
:10324000003457D023F00403C4F800344FF408725C
:10325000304B226101E0013B02D022699006FAD492
:1032600010222C4B226101E0013B02D02269D206E0
:10327000FAD461B1002204F5A0634FF0FF35104687
:1032800001328A429D60D86003F12003F8D1D4F85E
:1032900040340193019B23F02E030193019BDB0437
:1032A00004D4019B43F48053C4F84034C820019BEC
:1032B000FDF794FA00224FF0FF33B4F1A04FA26162
:1032C00063611FD0144A154B4FF400716162A26212
:1032D000C4F800310A9B1BB9A36943F01003A36132
:1032E000A2690F4B00201343A36103B0BDE8304037
:1032F00004B07047B4F1A04FA4D043F00403C4F865
:103300000034A3E7074A084B80216162A262C4F837
:103310000031DFE7400D0300000200010003E00080
:10332000080020A380006000E0004000D0F80034D6
:1033300023F00303C0F80034D0F8002401F00303A5
:1033400013430129C0F8003400F5806006D002293B
:1033500004BF41F270734360002070474BF6803326
:1033600043600020704700BF10B5044682B0D4F817
:1033700040340193019B23F02E030193019B43F4FE
:103380008073C4F840340A20FDF728FA019B00201E
:1033900023F48073C4F8403402B010BD82B0D0F87A
:1033A00040340193019B23F02E030193019B13F4FE
:1033B000805F019B01D101290AD0DB0405D521B929
:1033C000019B23F48053C0F84034002002B07047C2
:1033D00043F48053C0F84034019B002002B0704792
:1033E00082B0D0F8403401930198C0F3414002B05C
:1033F000704700BF00F58060806880B2704700BFF2
:103400002DE9704100F5A06C0CEB411C9DF818E013
:103410009DF81440BDF81C604FF0FF35CCF8085003
:10342000BEF1030F69D8DFE80EF0025A024C40F2F9
:103430009D45CCF80C5055B2002D49DBB0F1A04FA2
:1034400005D0DCF80C8048F06008CCF80C80022C29
:103450004FEA835404F0FE544FEAC222C6F30A0333
:1034600043EA040302F4F04243EA020305F4004491
:103470004FF00102D0F8185402FA01F141EA0501B7
:10348000C0F81814826942F0007282614FEA8E42DD
:1034900002F4402243EA020343EA04030CBF4FF460
:1034A000003200221343BEF1030FCCF8003005D1E7
:1034B000DCF8003043F00053CCF800300020BDE8C9
:1034C000708140F29D65CCF80C5055B2002DBEDAEB
:1034D000DCF80C8048F48078CCF80C80B7E740F238
:1034E0002525CCF80C5055B2002DB0DADCF80C8054
:1034F00048F4C078CCF80C80A9E755B2A7E700BF24
:1035000010467047002070474FF0FF30704700BFF3
:103510004FF400534B600020704700BF01207047FC
:1035200000207047FEE700BF024B16221A604FF0E2
:10353000FF3070470C05002001207047044A054900
:103540001368002B08BF0B461844106018467047DC
:10355000B40400201C0500201649174A086C174BBC
:1035600040F4003010B40864086B40F001000863B8
:10357000116821F0F0011160116841F0A0011160A3
:10358000116A21F47F411162116A4FF4B67441F45B
:10359000EE4111629C60DA6810BC42F00C02DA6005
:1035A0001A691A615A695A61DA6842F40052DA609B
:1035B000704700BF00380240000002400044004055
:1035C000034A13681B06FCD5C0B25060704700BFA9
:1035D00000440040034A13689B06FCD55068C0B203
:1035E000704700BF004400400B4A13689806FCD5A2
:1035F0005068C0B20D2806D00146074A13681B0662
:10360000FCD551607047044A13681906FCD50D2398
:103610000A2153600846F0E700440040034A13685B
:103620001B06FCD5C3B25360704700BF0044004086
:1036300038B5104D10482C4600F042F829460F4886
:1036400000F0CCF854F8041B0D4800F039F80D4890
:1036500000F036F821460C4800F0C0F821460B482F
:1036600000F02EF8204600F0B1F8BDE838400848D8
:1036700000F0ACB8B8040020D4540008EC540008A2
:10368000F0540008045500081C5500082055000897
:10369000F85300080A44914200F1FF3300D170470B
:1036A00010B511F8014B03F8014F9142F9D110BD4B
:1036B00002440346934200D1704703F8011BF9E727
:1036C0000FB40A4B13B51C6824B1A36913B9204683
:1036D00000F08CFA05AB049AA1680193204600F033
:1036E000ADFC02B0BDE8104004B070470C000020F3
:1036F00070B50E46054618B183690BB900F076FA2D
:10370000AB69AC6813B9284600F070FA2C4B9C42A8
:1037100020D16C68636EDB0705D4A389980502D4B9
:10372000A06D00F01EFBA38919071DD52369DBB12D
:10373000013EA36816F8011F013BA36039BB002BB3
:1037400038DA22460A21284600F068F8013011D004
:103750000A2511E01B4B9C4201D1AC68DAE71A4BF9
:103760009C4208BFEC68D5E72146284600F0A8F83F
:103770000028DDD04FF0FF35636EDA0705D4A3894A
:103780009B0502D4A06D00F0EDFA284670BD002B19
:1037900004DAA2699A4206DC0A2904D023685A1C7A
:1037A00022601970C5E72246284600F037F801303C
:1037B000BFD1DFE723680A255A1C22601D70DBE7B2
:1037C000585500087855000838550008024B014646
:1037D0001868FFF78DBF00BF0C0000200FB40A4B24
:1037E00013B51C6824B1A36913B9204600F0FEF993
:1037F00005AB049A61680193204601F089F802B094
:10380000BDE8104004B070470C000020034613F8D8
:10381000012B002AFBD1181A01387047F8B50E4663
:103820001446054618B183690BB900F0DFF9214B46
:103830009C422BD16C68A369A360A3891A072FD57A
:1038400023696BB323692068C01A6369F6B28342A7
:10385000374604DC2146284600F022F930BBA36835
:10386000013BA36023685A1C22601E70636901300B
:10387000834204D0A389DB0706D50A2E04D1214652
:10388000284600F00DF988B93846F8BD0A4B9C422D
:1038900001D1AC68CFE7094B9C4208BFEC68CAE78E
:1038A0002146284600F00CF80028CBD04FF0FF3717
:1038B000EAE700BF58550008785500083855000859
:1038C000324B70B51D6806460C4625B1AB6913B97D
:1038D000284600F08BF92E4B9C420FD16C68A389CF
:1038E000B4F90C2019072CD4DD0611D40923336058
:1038F00042F04003A3814FF0FF303EE0254B9C4255
:1039000001D1AC68EBE7244B9C4208BFEC68E6E7CA
:10391000580712D5616B41B104F14403994202D0BA
:10392000304600F085FA00236363A38923F0240363
:10393000A3810023636023692360A38943F0080304
:10394000A38123694BB9A38903F42073B3F5007FE6
:1039500003D02146304600F02BFAA089B4F90C20A0
:1039600010F001030AD00023A36063695B42A361E6
:10397000236943B910F08000BAD170BD810758BFE8
:103980006369A360F4E70020F7E700BF0C000020A4
:103990005855000878550008385500088A89F8B548
:1039A000054610070C4657D44B68002B04DC0B6C03
:1039B000002B01DC0020F8BDE66A002EFAD00023BF
:1039C00012F480522F682B6032D0606DA3895A07A1
:1039D00005D56368C01A636B0BB1236CC01A002352
:1039E0000246E66A216A2846B047431CA38906D1ED
:1039F00029681D292CD8294ACA40D60728D5002273
:103A00006260D9042269226004D5421C01D12B686E
:103A100003B96065616B2F600029CBD004F14403CA
:103A2000994202D0284600F003FA00206063C2E702
:103A3000216A01232846B047411CC7D12B68002BBF
:103A4000C4D01D2B01D0162B01D12F60B2E7A38962
:103A500043F04003A381AEE70F69002FAAD093077C
:103A60000E6808BF4B690F6018BF0023F61B8B6000
:103A7000002E9FDD216AD4F828C033463A462846F6
:103A8000E047002806DCA38943F04003A3814FF000
:103A9000FF3090E70744361AEAE700BF01004020F4
:103AA00038B50B6905460C4613B90025284638BDC4
:103AB00018B183690BB900F099F8144B9C421BD1E3
:103AC0006C68B4F90C30002BEFD0626ED00704D4D0
:103AD000990502D4A06D00F044F928462146FFF76D
:103AE0005DFF636EDA070546E0D4A3899B05DDD44C
:103AF000A06D00F037F9D9E7054B9C4201D1AC68C5
:103B0000DFE7044B9C4208BFEC68DAE75855000831
:103B10007855000838550008014620B9044B05497E
:103B2000186800F0FEB8044B1868FFF7B9BF00BF73
:103B300034550008A13A00080C000020002310B5FD
:103B40000446C0E90033C0E90433836081814366E1
:103B5000C2818361194608225C30FFF7A9FD054B3D
:103B60006362054BA362054BE362054B246223634A
:103B700010BD00BFBD4D0008DF4D0008174E000806
:103B80003B4E0008014900F0CCB800BFA13A000844
:103B900070B568224D1E55430E4605F1740100F0C4
:103BA000B1F9044640B10021C0E900160C30A06014
:103BB00005F16802FFF77CFD204670BD014800F06A
:103BC000D0B800BF11050020014800F0CBB800BFFD
:103BD00011050020014800F0C4B800BF1205002004
:103BE000014800F0BFB800BF1205002010B5044620
:103BF000FFF7F0FFA3691BB1BDE81040FFF7F0BF6E
:103C0000C4E912332365134B134A1B68A262A34213
:103C100004BF0123A361204600F020F86060204625
:103C200000F01CF8A060204600F018F80022E060C8
:103C300004216068FFF782FFA06801220921FFF7D5
:103C40007DFFE06802221221FFF778FF0123A361C4
:103C5000D2E700BF34550008853B0008F8B5074699
:103C6000FFF7ACFF1E4B1E68B36913B93046FFF770
:103C7000BDFF4836D6E90134013B03D533680BB3A9
:103C80003668F7E7B4F90C50D5B9164BE36004F188
:103C90005800656600F064F8FFF796FFC4E9015527
:103CA000C4E904552560A5610822294604F15C0099
:103CB000FFF7FEFCC4E90D55C4E912552046F8BDD6
:103CC0006834D9E704213846FFF762FF04463060C4
:103CD0000028D5D1FFF778FF0C233B60EEE700BF4B
:103CE000345500080100FFFF2DE9F0410F4600F1B7
:103CF00048040026D4E90185B8F1010805D52468F7
:103D0000002CF7D13046BDE8F081AB89012B06D9F4
:103D1000B5F90E30013302D02846B847064368355E
:103D2000EAE72DE9F8430646884600F148040027F3
:103D3000D4E90195B9F1010905D52468002CF7D122
:103D40003846BDE8F883AB89012B07D9B5F90E30A9
:103D5000013303D029463046C04707436835E9E7B9
:103D600070477047704770B50E46B1F90E100029C4
:103D700096B014461D4608DAB6F90C3000222A60C7
:103D80001A0610D44FF480630EE06A4601F046FA3A
:103D90000028F1DB019A02F47042A2F500535A4266
:103DA0005A412A60EEE740230020236016B070BD20
:103DB0008B8973B59D0706460C4607D504F147036A
:103DC000236023610123636102B070BD01AB6A46C9
:103DD000FFF7C9FF00990546304600F093F848B94F
:103DE000B4F90C309A05EFD423F0030343F0020337
:103DF000A381E3E70D4BB362A389206043F0800306
:103E0000A381009B6361019B20615BB1B4F90E103B
:103E1000304601F015FA28B1A38923F0030343F0DB
:103E20000103A381A0890543A581CDE7853B000857
:103E300038B50546002941D051F8043C0C1F002B31
:103E4000B8BFE41801F074FA1D4A136833B963600F
:103E500014602846BDE8384001F070BAA34208D982
:103E6000206821188B4201BF19685B68091821601E
:103E7000EDE71A465B680BB1A342FAD911685018F6
:103E8000A0420BD120680144501883421160E0D158
:103E900018685B68536001441160DAE702D90C23AB
:103EA0002B60D6E7206821188B4204BF19685B6835
:103EB000636004BF091821605460CAE738BD00BFC1
:103EC0001405002070B50E4E0C463168054611B938
:103ED00000F02CFF30602146284600F027FF431CED
:103EE0000AD0C41C24F00304A04207D0211A28469B
:103EF00000F01CFF013001D14FF0FF34204670BDAF
:103F0000180500202DE9F041CD1C25F003050835EA
:103F10000C2D38BF0C25002D074601DBA94205D921
:103F20000C233B6000263046BDE8F0812E4E01F0A8
:103F3000FFF933681C4634BB29463846FFF7C2FFF9
:103F4000431C04464DD134682646002E40D12368D8
:103F50003146384604EB030800F0E8FE80453AD1CC
:103F6000216803356D1A25F0030508350C2D38BF7F
:103F70000C2529463846FFF7A5FF01302BD02368D2
:103F80002B4423600EE02268521B1ED40B2A16D944
:103F90006119A342256018BF5960636808BF31608A
:103FA00062514B60384604F10B0601F0C7F926F068
:103FB0000706231DF21AB6D09B1BA350B3E7626815
:103FC000A3420CBF32605A60ECE723466468B2E754
:103FD00034467668B9E70C233B60384601F0AEF909
:103FE000A1E72560DEE700BF140500209368013BD0
:103FF000002B10B4936007DA9469A34201DB0A290D
:1040000002D110BCFFF70ABC1368581C106019706D
:10401000084610BC7047F8B506460F461446D5183A
:10402000AC4201D1002007E014F8011B3A463046AB
:10403000FFF7DCFF431CF3D1F8BD00002DE9F04F82
:104040000D469DB014469846064618B183690BB9D3
:10405000FFF7CCFD894B9D421BD175686B6ED9076C
:1040600005D4AB899A0502D4A86DFFF77AFEAB8917
:104070001B0701D52B69EBB929463046FFF720FC19
:10408000C0B16B6EDC070ED54FF0FF301DB0BDE840
:10409000F08F7B4B9D4201D1B568DFE7794B9D42A4
:1040A00008BFF568DAE7AB899805EDD4A86DFFF78E
:1040B00059FEE9E70023099320238DF82930CDF834
:1040C0000C803023DFF8C0818DF82A304FF00109D1
:1040D00023469A4613F8012B0AB1252AF9D1BAEBE7
:1040E000040B0BD05B46224629463046FFF793FF70
:1040F000013000F0AA80099A5A4409929AF80030D7
:10410000002B00F0A28000234FF0FF32CDE9052301
:104110000AF1010A049307938DF853301A93544619
:10412000052214F8011B584801F0B2F8049AD8B9D6
:10413000D10644BF20238DF85330130744BF2B23EF
:104140008DF853309AF800302A2B15D0079A544630
:1041500000204FF00A0C214611F8013B303B092B9F
:104160004ED9B0B1079214E0A0EB080309FA03F3AB
:1041700013430493A246D2E7039B191D1B680391C6
:10418000002BBBBF5B4242F0020207930793B8BF0C
:10419000049223782E2B0CD163782A2B35D1039BE4
:1041A0001A1D1B680392002BB8BF4FF0FF33023477
:1041B0000593DFF8D8A021780322504601F068F873
:1041C00040B14023A0EB0A0003FA00F0049B034334
:1041D0000134049314F8011B2D488DF82810062291
:1041E00001F056F800283FD02A4B1BBB039B073336
:1041F00023F0070308330393099B3B44099367E7C4
:104200000CFB02320C460120A5E700230134059384
:1042100019464FF00A0C204610F8012B303A092AB3
:1042200003D9002BC5D00591C3E70CFB012104463F
:104230000123F0E703AB00932A46174B04A930464D
:10424000AFF300800746781CD6D16B6ED90705D432
:10425000AB899A0502D4A86DFFF784FDAB895B0694
:104260003FF512AF099811E703AB00932A460A4BBA
:1042700004A9304600F080F8E4E700BF5855000874
:104280007855000838550008985500089E550008D4
:10429000A255000800000000174000082DE9F04773
:1042A000164699468A680B69DDF820809342B8BFAC
:1042B0001346336091F8432007460C460AB1013398
:1042C00033602368990642BF336802333360256840
:1042D00015F0060506D104F1190AE36832689B1A45
:1042E000AB4226DC94F84320131E226818BF01233A
:1042F00092062BD404F1430249463846C0470130A8
:104300001ED02368E568326803F00603042B08BF5B
:10431000AD1AA36822690CBF25EAE5750025934212
:10432000C4BF9B1AED1800261A34B5421AD10020DA
:1043300008E00123524649463846C047013003D1C0
:104340004FF0FF30BDE8F0870135C6E7E1185A1C91
:10435000302081F84300224494F8451082F843103D
:104360000233C7E70123224649463846C047013099
:10437000E6D00136D9E700002DE9FF470F7E0C9DFE
:10438000782F914680460C469A4601F1430207D8A1
:10439000622F0AD8002F00F0D880582F00F0A38099
:1043A00004F1420584F842703AE0A7F16303152B4B
:1043B000F6D801A151F823F0114400082544000863
:1043C000A1430008A1430008A1430008A14300083D
:1043D00025440008A1430008A1430008A1430008A8
:1043E000A143000831450008554400081345000862
:1043F000A1430008A143000853450008A143000859
:1044000055440008A1430008A14300081B450008CB
:104410002B681A1D1B682A6004F1420584F842309B
:104420000123A3E020682968060601F104030AD5E8
:104430000E682B60002E03DA2D23764284F8433079
:104440005E480A2319E00E682B6010F0400F18BF79
:1044500036B2EFE72B682068191D2960010601D5E7
:104460001E6802E04606FBD51E8854486F2F0CBF1D
:1044700008230A23002184F843106568A560002DF5
:10448000A2BF216821F0040121600EB9002D4DD09A
:104490001546B6FBF3F103FB1167C75D05F8017D17
:1044A0003746BB420E46F4D9082B0BD12368DE07F2
:1044B00008D5236961689942DEBF302305F8013CC5
:1044C00005F1FF35521B2261CDF800A04B4603AA2F
:1044D00021464046FFF7E2FE01304CD14FF0FF305D
:1044E00004B0BDE8F087354881F845702968236835
:1044F00051F8046B29601D0614D5DF0744BF43F053
:10450000200323601EB9236823F0200323601023B7
:10451000B0E7236843F0200323607823284884F819
:104520004530E3E7590648BFB6B2E6E71546BBE7B4
:104530002B6826686169181D286035061B6801D53F
:10454000196002E07006FBD519800023236115462F
:10455000BAE72B681A1D2A601D6862680021284688
:1045600000F096FE08B1401B606063682361002381
:1045700084F84330A8E723692A4649464046D04795
:104580000130ABD023689B0713D4E068039B9842AB
:10459000B8BF1846A4E70123324649464046D047F3
:1045A00001309BD00135E36803995B1AAB42F2DC22
:1045B000EBE7002504F11906F5E700BFA95500084F
:1045C000BA5500082DE9F0471D464B6EDF07ADF5E3
:1045D000227D06460C46924605D48B89980502D466
:1045E000886DFFF7BEFB0023CDE94433A64BA093B3
:1045F0000DF10408A54BA64FDFF89892CDF818816D
:10460000A19300959AF80030002B00F07381D95DDA
:1046100011F008010AF1010519D06368002B0FDDC4
:1046200023681A78BA5C110701D4AA46EAE7459ACA
:104630000132459262680133013A62602360ECE71F
:10464000A19B2146304698470028E9D0EDE7252B6D
:1046500012D09A466368002B40F395802268137845
:10466000534540F047816368013B6360459B0132DD
:10467000013322604593D8E7419143919AF8013084
:104680002A2B02BF102341930AF102050A22AA46EF
:104690001AF8011BA1F13003092B1ED97D48032212
:1046A00000F0F6FD40B10123A0EB090003FA00F091
:1046B000419B18434190554615F8013B782B07D88C
:1046C000572B11D8252BC4D058D8002B00F0C88008
:1046D000032347930A2342937CE0439B02FB03118D
:1046E000303943915546D2E7A3F15802202AEFD83A
:1046F00001A151F822F000BFBF470008D1460008D1
:10470000D14600081D480008D1460008D1460008DF
:10471000D1460008D1460008D1460008D14600081D
:10472000D1460008334800080948000883470008BC
:104730008347000883470008D14600080D48000859
:10474000D1460008D1460008D1460008D1460008ED
:104750004348000815480008B7470008D14600083C
:10476000D14600083F480008D14600080948000823
:10477000D1460008D1460008BF470008453B022B40
:10478000A6D8052325E0A19B21463046984700285E
:104790003FF464AF636EDA0740F1A48044980028C8
:1047A00067D0A38913F0400F18BF4FF0FF300DF50D
:1047B000227DBDE8F087419A42F020024192419A61
:1047C00042F40072419210226F2B429234BF0323B5
:1047D000042347936368002B4EDD419B5B0604D4A2
:1047E00023681A78BA5C100756D4479B022B65DC05
:1047F0006B46224641A9304600F0B2F8012879D034
:1048000002287FF412AFC5E70A22DDE700234293B6
:104810000323DEE7082342930423DAE729464046D0
:1048200000F094FA419B43F0400341930546012375
:10483000CFE7419B43F0400341930023C9E70223A4
:10484000C7E74198C3063FF5F0AE009B459A191D96
:1048500000911B6810F0010F14BF1A801A60E4E683
:10486000636ED80705D4A389990502D4A06DFFF71C
:1048700079FA4FF0FF309AE7A19B214630469847DE
:104880000028AAD086E700BF9D500008194C0008F8
:10489000F55500089E550008459A01324592626818
:1048A000013A002A626002DD0133236098E7A19B90
:1048B000214630469847002892D06BE7042B06DC4F
:1048C0006B46224641A9304600F0A4F896E70F4B0C
:1048D000002B3FF4AAAE6B46224641A93046AFF307
:1048E00000808BE7A38999053FF558AFA06DFFF7CE
:1048F00039FA53E7636EDA0705D4A3899B0502D41E
:10490000A06DFFF72FFA449851E700BF00000000A8
:104910002DE9F0410C4616461F46054618B183693D
:104920000BB9FFF763F90B4B9C4208D16C683B460F
:10493000324621462846BDE8F041FFF743BE064B0C
:104940009C4201D1AC68F2E7044B9C4208BFEC6882
:10495000EDE700BF585500087855000838550008A5
:104960002DE9F84315468A6880460C4632B98A69B3
:10497000002A0CBF01224FF0FF328A602268DFF864
:104980009090D1065FBF1A68111D19601668002744
:10499000A06988B1012807D12B681A7863699B5CEC
:1049A00053B9002F31D022E0022820D12B681B7888
:1049B00013F809301B071AD42368DA065EBF2B6888
:1049C0001B7806F8013B2A686B6801322A60A268EE
:1049D000013B013A6B600137A26042B1002BD7DC8A
:1049E000D4F880312946404698470028D0D0236823
:1049F00013F0100305D1E2680132E260A26902B14E
:104A0000337023693B4423610020BDE8F88300BF75
:104A1000F55500082DE9F04F9846764B0C46824636
:104A2000164693E8070087B003AB83E80700724B94
:104A3000A169724A032918BF1A46A36801925A1E37
:104A4000B2F5AE7F88BF6FF4AE75274682BF03EB29
:104A5000050940F25D13A36057F81C3B43F4506313
:104A600098BF4FF0000923603D464FF0000B3168BE
:104A700003AB097853F82B00022200F009FC28B39D
:104A8000BBF1010F59D162682AB92268082342F4A8
:104A9000007263602260226822F4A0622260A26831
:104AA000511EA16092B13268511C3160127805F834
:104AB000012B7268013A002A726007DCD4F8802169
:104AC000314650469047002840F085800BF1010B9D
:104AD000BBF1030FCBD163680BB90A236360636832
:104AE00047496069C91A00F031F94FF0000BA3681B
:104AF0002268002B3DD03168606991F800C010F841
:104B00000C00002835D0BCF1300F24D1100522D57F
:104B10000BF1010BB9F1000F03D0013309F1FF399B
:104B2000A3607368013B002B73601BDD33680133A6
:104B30003360A368013BA360D9E7BBF1020FAED19C
:104B4000226802F4C061B1F5007FBFD11023636019
:104B500042F48072A2E722F4106222600B7805F81A
:104B6000013BDEE7D4F880313146504698470028B3
:104B7000DFD02368DB050DD5BD4209D915F8011C2E
:104B8000D4F87C3132465046984705F1FF394D46FE
:104B9000BD422DD0226812F0100213D12A70636832
:104BA000019E39465046B0472168D8F8003011F0D0
:104BB000200F13D01A1DC8F800201B681860E36886
:104BC0000133E360ED1BAB4425695D4425610020A2
:104BD00007B0BDE8F08F4FF0000BCAE71A1DC8F808
:104BE00000201B6811F0010F14BF18801860E6E761
:104BF0000120EDE7E8550008255000083D4F00086A
:104C0000E4550008838903F00903092B01D1FEF75D
:104C100083BF002070470000F8B50C46054618B168
:104C200083690BB9FEF7E2FF3B4B9C420AD16C68EB
:104C3000B4F90C2000236360A3899E060CD54FF0C5
:104C4000FF3066E0354B9C4201D1AC68F0E7344B55
:104C50009C4208BFEC68EBE7580748D4D90605D456
:104C600009232B6042F04003A381E8E71A070BD524
:104C700021462846FEF714FF0028E0D1A389A06052
:104C800023F00803A381A061A38943F00403A38157
:104C900023691BB921462846FFF78AF8A689B4F98B
:104CA0000C70B3070FD00123A3811E4B1E49186857
:104CB00006F00906FFF718F8092EA78103D121464F
:104CC0002846FEF76BFE2269666A6369216A2260E4
:104CD0002846B047002860601CDCB4F90C3017BFD0
:104CE000002243F02003626043F04003BCE7616BA5
:104CF0000029CDD004F14403994202D02846FFF7A1
:104D000097F8236C636000206063002BC0D0E36BD6
:104D10002360F8BD0020FCE75855000878550008CE
:104D20003855000834550008054C000838B5064DC4
:104D30000023044608462B60FEF700FC431C02D10A
:104D40002B6803B1236038BD0C05002070B50B78CB
:104D500004465E2B0BBF4B78481C881C002208BF02
:104D60000122611E04F1FF0501F8012FA942FBD1C8
:104D70000BB9013870BD82F00102E25405462846A5
:104D800010F8011B2D2906D05D29F3D009B928465A
:104D9000F0E70B46F1E76E785D2EFAD0B342F8DC0F
:104DA0000235194601318E426254FBDCF11A013999
:104DB000581CB342A8BF00214318E0E710B50C46C9
:104DC000B1F90E1000F0F0FA0028ABBF636DA389B3
:104DD0001B1823F48053ACBF6365A38110BD2DE97C
:104DE000F0411F468B89DB0505460C46164605D566
:104DF000B1F90E100223002200F032FAA389B4F9AF
:104E00000E1023F48053A38132463B462846BDE86A
:104E1000F04100F0DBB910B50C46B1F90E1000F00E
:104E20001FFA431CA38915BF606523F4805343F424
:104E30008053A38118BFA38110BDB1F90E1000F0FB
:104E4000D7B90000012B2DE9F047804601D0242B73
:104E500006D900F0DDF9162303600020BDE8F087D5
:104E6000354F0D46284615F8014BE65D16F008064D
:104E7000F8D12D2C2FD12C780126851C002B57D052
:104E8000102B09D1302C07D1287800F0DF005828EA
:104E900049D16C781023023506F1004E0EF1FF3E29
:104EA0000027BEFBF3F9384603FB19EAA4F1300CE6
:104EB000BCF1090F14D86446A34222DD002F1DDB8C
:104EC00081451BD301D1A24518DB00FB034001271C
:104ED00015F8014BEAE72B2C04BF2C78851CCDE795
:104EE000A4F1410CBCF1190F01D8373CE4E7A4F15F
:104EF000610CBCF1190F04D8573CDDE74FF0FF37C8
:104F0000E6E7002F07DA2223C8F800307046002AAF
:104F1000A4D0691E05E006B14042002A9ED0002FB1
:104F2000F7D111609AE73024002BB5D10823B3E7FD
:104F3000302CA9D00A23AFE7F5550008FFF782BF50
:104F40002DE9F043364F86460D46284615F8014BAD
:104F5000E65D16F00806F8D12D2C2FD12C7801260D
:104F6000851C002B57D0102B09D1302C07D1287865
:104F700000F0DF00582849D16C78102302354FF03B
:104F8000FF380027B8FBF3F803FB08F96FEA0909BB
:104F90003846A4F1300CBCF1090F14D86446A34282
:104FA00022DD002F1DDB80451BD301D1A14518DB7D
:104FB00000FB0340012715F8014BEAE72B2C04BF47
:104FC0002C78851CCDE7A4F1410CBCF1190F01D858
:104FD000373CE4E7A4F1610CBCF1190F04D8573C4D
:104FE000DDE74FF0FF37E6E7002F07DA2223CEF8A0
:104FF00000304FF0FF3032B9BDE8F08306B14042D7
:10500000002AF9D007B1691E1160F5E73024002BA2
:10501000B5D10823B3E7302CA9D00A23AFE700BFEE
:10502000F5550008FFF78CBF2DE9F0410C46496BA0
:1050300004F1440399421DD14FF48061FEF762FFF1
:1050400018B94FF0FF30BDE8F0814FF48063A363DF
:1050500094F84630606380F8FF3394F8453080F868
:10506000FE3394F8443080F8FD3300F2FD302060C8
:105070000020E8E7A66B77003A4600F065F90546A0
:105080000028DED000EB0608014632464046FEF717
:1050900001FBC4E90D57C4F80080E9E770B5144678
:1050A0004A1C06460D4603D14FF0FF35284670BD19
:1050B00018B183690BB9FEF799FD414B9C421DD194
:1050C0007468636EDB0705D4A389980502D4A06DCC
:1050D000FEF747FEB4F90C3023F020035907A381F3
:1050E0009AB22DD4D30613D4636EDD07DCD412F448
:1050F000007FD9D1A06DFEF735FED5E7314B9C423C
:1051000001D1B468DDE7304B9C4208BFF468D8E7B2
:10511000100711D521463046FEF7C2FC30B1636E50
:10512000D907C1D4A38913F4007FE2E7A389A06063
:1051300023F00803A381A061A38943F00403A381A2
:10514000636B6268EDB2D3B1A36B934205DC214679
:105150003046FFF769FF0028E1D123685A1E22601C
:1051600003F8015C636801336360636EDA079DD402
:10517000A3899B059AD4A06DFEF7F4FD96E7616EB6
:105180002069236801F0010160B198420AD213F846
:10519000010CA84206D1013B013223606260002964
:1051A00084D1E5E7C4E90F3204F1440363630323C8
:1051B000A363234603F8465F236001236360EEE7A1
:1051C00058550008785500083855000838B5074D7F
:1051D00004460846114600222A601A46FEF790F956
:1051E000431C02D12B6803B1236038BD0C0500209D
:1051F00038B5064D0023044608462B60FEF784F9B7
:10520000431C02D12B6803B1236038BD0C0500207C
:10521000014B1868704700BF0C00002038B5074DDF
:1052200000230446084611462B60FEF771F9431C23
:1052300002D12B6803B1236038BD00BF0C050020EC
:1052400038B5064D0023044608462B60FEF766F984
:10525000431C02D12B6803B1236038BD0C0500202C
:1052600038B5074D04460846114600222A601A4602
:10527000FEF756F9431C02D12B6803B1236038BDF9
:105280000C050020000000000000000000000000ED
:1052900001F0FF01102A2BDB10F0070F08D010F8E7
:1052A000013B013A8B422DD010F0070F42B3F6D1EB
:1052B000F0B441EA012141EA014122F007047FF004
:1052C00000070023F0E80256083C85EA010586EA5B
:1052D000010685FA47F5A3FA87F586FA47F6A5FA97
:1052E00087F68EB9EED1F0BC01F0FF0102F00702A3
:1052F00032B110F8013B013A83EA010313B1F8D14E
:105300000020704701387047002D06BF354603382E
:10531000073815F0010F07D1013015F4807F02BF67
:10532000013015F4C03F0130F0BC0138704700BFB8
:105330000148FEF716BD00BF100500200148FEF72A
:1053400011BD00BF100500202DE9F0418046144634
:105350000E4621B9BDE8F0411146FEF7D3BD2AB98A
:10536000FEF766FD25462846BDE8F08100F02EF8E0
:105370008442074602D8B4EB500F12D8214640466B
:10538000FEF7C0FD05460028EDD0BC42224631465E
:1053900028BF3A46FEF77EF931464046FEF748FD03
:1053A000E1E73546DFE7000038B5074D044608461B
:1053B000114600222A601A46FEF7A4F8431C02D1C7
:1053C0002B6803B1236038BD0C05002051F8043C64
:1053D000181F002BBCBF0B58C018704755534152C3
:1053E0005432207265616479207669612053542DAE
:1053F0004C494E4B205643500D00000048656C6CE4
:105400006F206F76657220555341525432202853D5
:10541000542D4C494E4B20564350290D000000009E
:1054200041636D650000000046343037205643501C
:1054300000000000303030310000000048656C6C26
:105440006F2066726F6D2046343037205643500D02
:105450000A00000009024300020100803209040032
:1054600000010202010005240010010524010001D1
:105470000424020205240600010705810310001020
:1054800009040100020A00000007050302400000B1
:1054900007058202400000001201000202000040E5
:1054A000FECA0140000101020301000004030904D7
:1054B00056435020636F6E6E65637465640D0A0019
:1054C00000000000000000000102030401020304C8
:1054D00006070809506C6561736520656E74657216
:1054E0002061206E756D6265723A200025640000AF
:1054F000596F7520656E74657265643A2025640D78
:105500000A000000506C6561736520656E746572F9
:10551000206120737472696E673A20002573000061
:10552000596F7520656E74657265643A2025730D38
:105530000A00000010000020000000000000000031
:10554000000000000000000000000000000000005B
:10555000000000000000000000000000000000004B
:10556000000000000000000000000000000000003B
:10557000000000000000000000000000000000002B
:10558000000000000000000000000000000000001B
:105590000000000000000000232D302B2000686C6C
:1055A0004C00656667454647003031323334353646
:1055B000373839414243444546003031323334357F
:1055C00036373839616263646566002B2D003030F0
:1055D00000785800412D46612D663839303132331C
:1055E000343536375D000000CB550008CE55000835
:1055F000D15500080020202020202020202028280D
:105600002828282020202020202020202020202082
:1056100020202020208810101010101010101010C2
:1056200010101010100404040404040404040410F2
:105630001010101010104141414141410101010180
:10564000010101010101010101010101010101014A
:105650001010101010104242424242420202020256
:10566000020202020202020202020202020202021A
:1056700010101010200000000000000000000000CA
:10568000000000000000000000000000000000001A
:10569000000000000000000000000000000000000A
:1056A00000000000000000000000000000000000FA
:1056B00000000000000000000000000000000000EA
:1056C00000000000000000000000000000000000DA
:1056D00000000000000000000000000000000000CA
:1056E00000000000000000000000000000000000BA
:1056F0000000000000000000F8B500BFF8BC08BCC6
:105700009E467047F8B500BFF8BC08BC9E4670477F
:045710000000000095
:105714000024F40000C20100000008001000002072
:105724000000000058550008785500083855000856
:105734000000000000000000000000000000000065
:105744000000000000000000000000000000000055
:105754000000000000000000000000000000000045
:105764000000000000000000000000000000000035
:105774000000000000000000000000000000000025
:04000005080001B13D
:00000001FF
