:020000040800F2
:1000000000000220B9010008B5010008B501000890
:10001000B5010008B5010008B501000800000000A6
:10002000000000000000000000000000B501000812
:10003000B501000800000000B5010008B501000886
:10004000304B10B41C6C017044F4003442701C64DA
:100050001C6B44F001041C63A3F5FA330129DC682E
:10006000DC603DD0022929D081B112B3012A03D12D
:10007000254B40F283629A60234B10BC00221A6128
:100080005A61DA6842F40052DA6070471F490C681E
:1000900044F080040C600C6A44F4E0640C62D9689B
:1000A00041F00401D960D96841F40051D960002AB7
:1000B000DCD1154B40F2A1129A60DDE713490C68C0
:1000C00044F0A0040C600C6A44F4EE440C62D9685D
:1000D00041F00C01D960D96841F40051D960C4E7FE
:1000E0000A490C6844F020040C600C6A44F4E044B3
:1000F0000C62D96841F00801D960D96841F4005117
:10010000D960B2E7003802400044004000000240DD
:10011000034A13681B06FCD5C9B25160704700BF83
:1001200000440040034A13689B06FCD55068C0B2E7
:10013000704700BF0044004069B162B1013A70B538
:10014000861C4C1E8D1814F8011F3046FFF7E0FF87
:10015000A542F8D170BD70470230FFF7E3BF00BF82
:1001600000B585B0022101220DF10E008DF80C10B2
:100170008DF80D20FFF764FF0D49192203A8FFF742
:10018000DBFF40F60D2403A8FFF7E6FF0DF10701A2
:100190000346012203A88DF80730FFF7CDFF0222A6
:1001A00002A903A8ADF80840FFF7C6FFEBE700BFC0
:1001B00038020008FEE700BF0E480F4A904208B51B
:1001C00007D2013A121A22F003020C49043200F05D
:1001D0001DF80B480B4A904207D2013A121A22F03E
:1001E00003020432002100F01FF800F00DF8FFF7C1
:1001F000B7FFFEE7000000200000002070020008AA
:100200000000002000000020704700BF0A44914217
:1002100000F1FF3300D1704710B511F8014B03F81E
:10022000014F9142F9D110BD02440346934200D1DF
:10023000704703F8011BF9E748656C6C6F20484371
:100240002D303620286563686F206D6F6465290D39
:100250000A000000F8B500BFF8BC08BC9E46704715
:10026000F8B500BFF8BC08BC9E467047000000000F
:04000005080001B935
:00000001FF
