:020000040800F2
:10000000000002203507000831070008310700080A
:100010003107000831070008310700080000000020
:100020000000000000000000000000003107000890
:100030003107000800000000310700083107000800
:10004000F0B4541E012C02704370416040F29F8056
:10005000DAB97C4CA14267D0A4F54C44A14200F02F
:10006000CA8104F58064A14200F0488104F58064EF
:10007000A14200F0368204F58064A14200F084823F
:1000800004F54444A14200F0B880002B40F2836C98
:100090004FF000040CBF8B2363460D684D688B60E6
:1000A0000C614C61002A00F0CA80012A40F0C48033
:1000B0000823CB60CB6843F40053F0BCCB6070479F
:1000C000614D6E6C46F010066E642E6B46F00206B3
:1000D0002E6304F574440026CE60266826F440564C
:1000E0002660266846F400562660266A26F070666A
:1000F0002662266A46F0E06626622C6B44F0010414
:100100002C63524C256825F440252560256845F46C
:1001100000252560656A25F0F0056562656A022A9A
:1001200045F070056562B0D1474D464E6C6C44F0A9
:1001300010046C642C6B44F002042C630027444CC4
:10014000F760266826F440462660266846F4004696
:100150002660266A26F070462662266A46F0E04649
:1001600026622C6B44F001042C63384C256825F47E
:1001700040152560256845F400152560656A25F45D
:1001800070656562656A45F4E06565627DE72D4CE2
:10019000A14295D02F4CA14200F0F8802E4CA142F4
:1001A00062D02E4CA14200F067812D4CA14200F09C
:1001B000CB812C4CA1427FF468AF234D6E6C46F08E
:1001C00020066E642E6B46F004062E6304F574441C
:1001D0000025CD60256825F440552560256845F447
:1001E00000552560256A25F070652562256A022A7A
:1001F00045F0006525627FF448AF134C194E656CDD
:1002000045F020056564256B45F004052563A4F5DC
:1002100040540025F560256825F440452560256893
:1002200045F400452560256A25F070452562256A5C
:1002300045F00045256228E70C23CB603AE704230C
:10024000CB6037E700100140003802400000024058
:10025000000402400044004000480040004C0040C0
:1002600000500040001401407C4D2E6C46F4802666
:100270002E642E6B46F002062E6304F5DE34002653
:10028000CE60266826F440162660266846F40016DE
:100290002660666A26F470666662666A46F4E06600
:1002A00066622C6B6E4E44F008042C6337686D4C0C
:1002B00027F440373760376847F400373760776A8C
:1002C00027F00F077762776A47F0070777622E6B90
:1002D00046F004062E63256825F440152560256840
:1002E00045F400152560656A25F470656562656AE8
:1002F000022A45F4E06565627FF4C7AE574D5A4E59
:100300002C6C44F480242C642C6B44F002042C6389
:100310000027564CF760266826F4400626602668BB
:1003200046F400062660666A26F470466662666ACF
:1003300046F4E04666622C6B494E44F008042C6398
:100340003768484C27F440273760376847F4002760
:100350003760776A27F0F0077762776A47F07007AF
:1003600077622E6B46F004062E63256825F440055F
:100370002560256845F400052560656A25F470450B
:100380006562656A45F4E04565627EE6334D2E6C34
:1003900046F400362E642E6B46F001062E6304F5FB
:1003A000DE340026CE60266826F0300626602668F9
:1003B00046F020062660266A26F470662662266AC3
:1003C00046F4E06626622C6B44F008042C63244C4F
:1003D000256825F440652560256845F4006525609D
:1003E000256A25F470052562256A022A45F4E00590
:1003F00025627FF44AAE194D1D4E2C6C44F4003436
:100400002C642C6B44F001042C630027194CF7601A
:10041000266826F0C0062660266846F0800626601C
:10042000266A26F470462662266A46F4E04626626C
:100430002C6B44F008042C63094C256825F44055C6
:100440002560256845F400552560256A25F070650E
:100450002562256A45F0E065256216E6003802400F
:10046000000C024000080240004800400004024026
:100470000044004000000240534D2E6C46F400261C
:100480002E642E6B46F001062E6304F5DA34002646
:10049000CE60266826F003062660266846F002062F
:1004A0002660266A26F00F062662266A46F00806AF
:1004B00026622C6B44F004042C63444C256825F41C
:1004C00040152560256845F400152560656A25F40A
:1004D00070656562656A022A45F4006565627FF4AD
:1004E000D4AD394D3A4E2C6C44F400242C642C6B62
:1004F00044F001042C630027364CF760266826F090
:100500000C062660266846F008062660266A26F055
:10051000F0062662266A46F0800626622C6B44F0BE
:1005200004042C63294C256825F4400525602568C2
:1005300045F400052560656A25F470456562656AC5
:1005400045F400456562A0E51F4D2E6C46F480160B
:100550002E642E6B46F004062E6304F5DC34002571
:10056000CD60256825F040752560256845F000754B
:100570002560656A25F470256562656A022A45F47E
:10058000002565627FF481AD0F4C134E256C45F458
:1005900080152564256B45F008052563A4F53054C6
:1005A0000025F560256825F030052560256845F0B3
:1005B00020052560256A25F470652562256A45F4C5
:1005C0000065256261E500BF003802400008024076
:1005D000004C004000000240005000404268136898
:1005E0001B06FCD5C9B25160704700BF4268136852
:1005F0009B06FCD55068C0B2704700BF4368DBB1B2
:10060000124A93421AD0A2F54C42934218D002F5F6
:10061000806293420ED002F58062934212D002F5BE
:100620008062934210D00A490A4A0B488B4208BFA5
:100630001046704709487047074870470848704798
:100640000848704708487047084870470010014044
:10065000001401408811000860110008781100089A
:100660006811000870110008581100088011000876
:1006700070B5044616461D46FFF7E2FC2672657209
:10068000204670BD69B162B1013A70B506464C1E94
:100690008D1814F8011F3046FFF7A0FFA542F8D1CE
:1006A00070BD704769B162B1013A70B506464C1E23
:1006B0008D183046FFF79AFF04F8010FAC42F8D1CD
:1006C00070BD7047FFF79ABF10B59EB01649012361
:1006D000022203A8FFF7CCFF03A8FFF7F3FF134A9A
:1006E0000346602106A800F065F8021E06DD602AB8
:1006F000A8BF602206A903A8FFF7C4FF40F60D2497
:100700000DF1070103A80122FFF7CCFF0DF107014E
:1007100003A80122FFF7B6FF022202A903A8ADF841
:100720000840FFF7AFFFEBE70048004090110008DA
:10073000FEE700BF0E480F4A904208B507D2013AC3
:10074000121A22F003020C49043200F01DF80B4883
:100750000B4A904207D2013A121A22F003020432E5
:10076000002100F01FF800F00DF8FFF7ADFFFEE7E5
:1007700000000020640000200C120008640000202B
:1007800078000020704700BF0A44914200F1FF3317
:1007900000D1704710B511F8014B03F8014F914299
:1007A000F9D110BD02440346934200D1704703F8CB
:1007B000011BF9E70CB430B5174B0C1E1D689DB03A
:1007C00008DA8B232B604FF0FF301DB0BDE83040BE
:1007D00002B070474FF40273ADF8143014BF04F147
:1007E000FF332346049307934FF6FF73029006905E
:1007F000ADF81630209A21AB02A92846019300F0EB
:1008000069F8431CBCBF8B232B60002CDDD0029BFE
:1008100000221A70D9E700BF000000202DE9F04740
:100820008E689E4282460C4690461F4638D88A897A
:1008300012F4906F32D025680969A5EB010965694A
:1008400005EB450505EBD57501334B446D109D4215
:1008500038BF1D46530531D5294600F0A5FB064695
:1008600050B90C23CAF80030A38943F04003A38198
:100870004FF0FF30BDE8F08721694A46FFF784FF5B
:10088000A38923F4906343F08003A381266165610B
:100890004E44A5EB09052660A5603E46BE4200D940
:1008A0003E4620683246414600F0FAFAA3689B1B98
:1008B000A3602368334423600020DBE72A4600F06E
:1008C000E7FB06460028E1D12169504600F002FB13
:1008D000C7E700002DE9F04F98468B891B069DB0B5
:1008E00007460D4614460ED50B6963B9402100F04A
:1008F0005BFB2860286120B90C233B604FF0FF3080
:10090000D1E040236B610023099320238DF8293027
:10091000CDF80C803023DFF8A8818DF82A304FF015
:10092000010923469A4613F8012B0AB1252AF9D169
:10093000BAEB040B0BD05B46224629463846FFF73C
:100940006DFF013000F0AA80099A5A4409929AF882
:100950000030002B00F0A28000234FF0FF32CDE9E1
:1009600005230AF1010A049307938DF853301A9373
:100970005446052214F8011B514800F041FA049A2C
:10098000D8B9D00644BF20238DF85330110744BF97
:100990002B238DF853309AF800302A2B15D0079A64
:1009A000544600204FF00A0C214611F8013B303B21
:1009B000092B4ED9B0B1079214E0A0EB080309FA55
:1009C00003F313430493A246D2E7039B191D1B684C
:1009D0000391002BBBBF5B4242F0020207930793D7
:1009E000B8BF049223782E2B0CD163782A2B35D1F3
:1009F000039B1A1D1B680392002BB8BF4FF0FF33F7
:100A000002340593DFF8BCA021780322504600F0A1
:100A1000F7F940B14023A0EB0A0003FA00F0049B71
:100A200003430134049314F8011B27488DF8281060
:100A3000062200F0E5F9002838D0244B1BBB039BAD
:100A4000073323F0070308330393099B33440993C7
:100A500067E70CFB02320C460120A5E700230134B6
:100A6000059319464FF00A0C204610F8012B303A36
:100A7000092A03D9002BC5D00591C3E70CFB01213E
:100A800004460123F0E703AB00932A46104B04A968
:100A90003846AFF30080421C0646D6D1AB895B06D0
:100AA0003FF52CAF09981DB0BDE8F08F03AB009364
:100AB0002A46074B04A9384600F07AF8EBE700BF56
:100AC000BB110008C1110008C5110008000000009A
:100AD0001D0800082DE9F047164699468A680B69FB
:100AE000DDF820809342B8BF1346336091F843206D
:100AF00007460C460AB1013333602368990642BFAA
:100B0000336802333360256815F0060506D104F119
:100B1000190AE36832689B1AAB4226DC94F843203A
:100B2000131E226818BF012392062BD404F143023E
:100B300049463846C04701301ED02368E568326810
:100B400003F00603042B08BFAD1AA36822690CBF8B
:100B500025EAE57500259342C4BF9B1AED180026CF
:100B60001A34B5421AD1002008E001235246494602
:100B70003846C047013003D14FF0FF30BDE8F08761
:100B80000135C6E7E1185A1C302081F843002244A1
:100B900094F8451082F843100233C7E70123224638
:100BA00049463846C0470130E6D00136D9E7000053
:100BB0002DE9FF470F7E0C9D782F914680460C460D
:100BC0009A4601F1430207D8622F0AD8002F00F09D
:100BD000D880582F00F0A38004F1420584F84270B9
:100BE0003AE0A7F16303152BF6D801A151F823F0E1
:100BF000490C00085D0C0008D90B0008D90B00084F
:100C0000D90B0008D90B00085D0C0008D90B0008AF
:100C1000D90B0008D90B0008D90B0008690D000892
:100C20008D0C00084B0D0008D90B0008D90B0008EB
:100C30008B0D0008D90B00088D0C0008D90B00089B
:100C4000D90B0008530D00082B681A1D1B682A6079
:100C500004F1420584F842300123A3E020682968AA
:100C6000060601F104030AD50E682B60002E03DA94
:100C70002D23764284F843305E480A2319E00E683B
:100C80002B6010F0400F18BF36B2EFE72B682068DA
:100C9000191D2960010601D51E6802E04606FBD534
:100CA0001E8854486F2F0CBF08230A23002184F8A4
:100CB00043106568A560002DA2BF216821F00401E2
:100CC00021600EB9002D4DD01546B6FBF3F103FBA4
:100CD0001167C75D05F8017D3746BB420E46F4D962
:100CE000082B0BD12368DE0708D523696168994278
:100CF000DEBF302305F8013C05F1FF35521B2261B0
:100D0000CDF800A04B4603AA21464046FFF7E2FE7D
:100D100001304CD14FF0FF3004B0BDE8F0873548CA
:100D200081F845702968236851F8046B29601D0615
:100D300014D5DF0744BF43F0200323601EB92368A6
:100D400023F0200323601023B0E7236843F020033F
:100D500023607823284884F84530E3E7590648BFE4
:100D6000B6B2E6E71546BBE72B6826686169181D31
:100D7000286035061B6801D5196002E07006FBD5B6
:100D80001980002323611546BAE72B681A1D2A60D3
:100D90001D6862680021284600F032F808B1401B47
:100DA000606063682361002384F84330A8E7236907
:100DB0002A4649464046D0470130ABD023689B07BE
:100DC00013D4E068039B9842B8BF1846A4E70123F8
:100DD000324649464046D04701309BD00135E36852
:100DE00003995B1AAB42F2DCEBE7002504F119062C
:100DF000F5E700BFCC110008DD110008000000007D
:100E000001F0FF01102A2BDB10F0070F08D010F8BB
:100E1000013B013A8B422DD010F0070F42B3F6D1BF
:100E2000F0B441EA012141EA014122F007047FF0D8
:100E300000070023F0E80256083C85EA010586EA2F
:100E4000010685FA47F5A3FA87F586FA47F6A5FA6B
:100E500087F68EB9EED1F0BC01F0FF0102F0070277
:100E600032B110F8013B013A83EA010313B1F8D122
:100E70000020704701387047002D06BF3546033803
:100E8000073815F0010F07D1013015F4807F02BF3C
:100E9000013015F4C03F0130F0BC0138704700BF8D
:100EA000884210B501EB020402D98442234607D8D8
:100EB000431EA14208D011F8012B03F8012FF8E7D7
:100EC000024401468A4200D110BD13F8014D02F8D8
:100ED000014DF7E738B50546002941D051F8043CEB
:100EE0000C1F002BB8BFE41800F012F91D4A13685C
:100EF00033B9636014602846BDE8384000F00EB98D
:100F0000A34208D9206821188B4201BF19685B6889
:100F100009182160EDE71A465B680BB1A342FAD9C4
:100F200011685018A0420BD1206801445018834228
:100F30001160E0D118685B68536001441160DAE722
:100F400002D90C232B60D6E7206821188B4204BFFE
:100F500019685B68636004BF091821605460CAE7C0
:100F600038BD00BF6400002070B50E4E0C463168DD
:100F7000054611B900F0BCF830602146284600F063
:100F8000B7F8431C0AD0C41C24F00304A04207D0C5
:100F9000211A284600F0ACF8013001D14FF0FF349F
:100FA000204670BD680000202DE9F041CD1C25F0E1
:100FB000030508350C2D38BF0C25002D074601DB35
:100FC000A94205D90C233B6000263046BDE8F081DC
:100FD0002E4E00F09DF833681C4634BB2946384637
:100FE000FFF7C2FF431C04464DD134682646002E4D
:100FF00040D123683146384604EB030800F078F806
:1010000080453AD1216803356D1A25F0030508356E
:101010000C2D38BF0C2529463846FFF7A5FF0130B7
:101020002BD023682B4423600EE02268521B1ED471
:101030000B2A16D96119A342256018BF596063684D
:1010400008BF316062514B60384604F10B0600F076
:1010500065F826F00706231DF21AB6D09B1BA35095
:10106000B3E76268A3420CBF32605A60ECE72346E4
:101070006468B2E734467668B9E70C233B603846CB
:1010800000F04CF8A1E72560DEE700BF6400002017
:101090002DE9F041804614460E4621B9BDE8F041E5
:1010A0001146FFF781BF2AB9FFF714FF25462846EE
:1010B000BDE8F08100F038F88442074602D8B4EB6E
:1010C000500F12D821464046FFF76EFF0546002814
:1010D000EDD0BC422246314628BF3A46FFF754FBCA
:1010E00031464046FFF7F6FEE1E73546DFE7000010
:1010F00038B5064D0023044608462B6000F01EF864
:10110000431C02D12B6803B1236038BD6C00002062
:10111000014800F011B800BF70000020014800F045
:101120000CB800BF7000002051F8043C181F002BC1
:10113000BCBF0B58C018704770477047044A054938
:101140001368002B08BF0B46184410601846704700
:1011500074000020780000205541525434000000F3
:1011600055534152543F00005553415254310000F1
:1011700055534152543200005553415254330000EC
:101180005541525435000000555341525436000029
:1011900048656C6C6F2048432D30362028656368A5
:1011A0006F206D6F6465290D0A436F6E6E65637401
:1011B0006564206F6E2025730D0A00232D302B20CF
:1011C00000686C4C00656667454647003031323335
:1011D00034353637383941424344454600303132A0
:1011E0003334353637383961626364656600000030
:1011F000F8B500BFF8BC08BC9E467047F8B500BF04
:0C120000F8BC08BC9E46704700000000CF
:10120C0004000020000000000000000000000000AE
:10121C0000000000000000000000000000000000C2
:10122C0000000000000000000000000000000000B2
:10123C0000000000000000000000000000000000A2
:10124C000000000000000000000000000000000092
:10125C000000000000000000000000000000000082
:04126C00000000007E
:0400000508000735B3
:00000001FF
