:020000040800F2
:1000000000000220F1110008ED110008ED110008B8
:10001000ED110008ED110008ED11000800000000CE
:10002000000000000000000000000000ED110008CA
:10003000ED11000800000000ED110008ED110008AE
:10004000ED110008ED110008ED110008ED11000898
:10005000ED110008ED110008ED110008ED11000888
:10006000ED110008ED110008ED110008ED11000878
:10007000ED110008ED110008ED110008ED11000868
:10008000ED110008ED110008ED110008ED11000858
:10009000ED0B0008ED110008ED110008ED1100084E
:1000A000ED110008ED110008ED110008ED11000838
:1000B000ED110008ED110008ED110008ED11000828
:1000C000ED110008ED110008ED110008ED11000818
:1000D000ED110008ED110008ED110008ED11000808
:1000E000ED110008ED110008ED110008ED110008F8
:1000F000ED110008ED110008ED110008ED110008E8
:10010000ED110008ED110008ED110008ED110008D7
:10011000ED110008ED110008ED110008ED110008C7
:10012000ED110008ED110008ED110008ED110008B7
:10013000ED110008ED110008ED110008ED110008A7
:10014000990C0008ED110008ED110008ED110008F0
:10015000ED110008ED110008ED110008ED11000887
:100160000278531E012B70B4436840F2DC80002AF1
:1001700040F0FD808A498B4266D08A498B4200F06C
:10018000118289498B4200F06E8188498B4200F0D0
:10019000A08287498B4200F0148386498B4240F04D
:1001A00088808549834B4C6C44F020044C640C6B74
:1001B00044F004040C63A1F540510024DC600C6899
:1001C00024F440440C600C6844F400440C600C6A55
:1001D00024F070440C620C6A44F000440C6268E045
:1001E000754D764C696C41F010016964296B41F0E2
:1001F000020129630021D9602668714926F440561E
:100200002660266846F400562660266A26F0706648
:100210002662266A46F0E06626622C6B44F00104F2
:100220002C630C6824F440240C600C6844F4002413
:100230000C604C6A24F0F0044C624C6A022A44F0D0
:1002400070044C6240F097815B4C554B616C41F0FF
:1002500010016164216B41F0020121630021D9602A
:1002600001F1804101F501310D6825F440450D6033
:100270000D6845F400450D600D6A25F070450D626E
:100280000D6A45F0E0450D62216B41F001012163EB
:100290004B490C6824F440140C600C6844F40014BE
:1002A0000C604C6A24F470644C624C6A44F4E06460
:1002B0004C6241781C685C68002932D040F283644B
:1002C00000219C6019615961002A5CD0012A57D134
:1002D0000822DA60DA68324942F400528B42DA606E
:1002E00054D0304A934200F0538102F58062934229
:1002F00000F08B8102F58062934200F0908102F55C
:100300008062934200F0FA8002F54442934245D164
:100310002C4B2D4A0024802183F8474399601060BC
:100320003CE08B24CCE71E498B423FF459AF1D497A
:100330008B4200F0ED801C498B4249D01B498B4217
:1003400000F090811A498B4200F0198219498B42C2
:1003500000F0F281022AACD041781C685C68002968
:1003600040F00F818B249C6019615961AEE74178A0
:100370001C685C680029A1D18B229A6019615961BF
:100380000C22DA60A6E70422DA60A3E70D4B0F4ADD
:100390000024202183F825435960106070BC704709
:1003A000001001400044004000480040004C004064
:1003B0000050004000140140003802400004024098
:1003C0000000024000E100E0780000206C00002006
:1003D00001F5F831974D0C6C44F480240C640C6BDF
:1003E00044F002040C630024DC602E68924C26F476
:1003F00040162E602E6846F400162E606E6A26F4B3
:1004000070666E626E6A46F4E0666E620D6B45F071
:1004100008050D63256825F440352560256845F4F9
:1004200000352560656A25F00F056562656A45F04F
:10043000070565620C6B44F004040C63A1F54051A0
:10044000022A0C6824F440140C600C6844F4001474
:100450000C604C6A24F470644C624C6A44F4E064AE
:100460004C6240F08880754C754B216C41F48021C2
:100470002164216B41F0020121630021D96001F167
:10048000804101F501310D6825F440050D600D68CE
:1004900045F400050D604D6A25F470454D624D6AC6
:1004A00045F4E0454D62216B634D41F00801216345
:1004B0002E68644926F440262E602E6846F40026F5
:1004C0002E606E6A26F0F0066E626E6A46F0700666
:1004D0006E62256B45F0040525630C6824F4400426
:1004E0000C600C6844F400040C604C6A24F4704402
:1004F0004C624C6A44F4E0444C62DAE6524B534A94
:1005000000244FF4001183F835435960106045E72B
:100510004A4D4F4C296C41F400312964296B41F05C
:10052000010129630021D9602668434926F030067D
:100530002660266846F020062660266A26F4706645
:100540002662266A46F4E06626622C6B44F00804B4
:100550002C630C6824F440640C600C6844F4006460
:100560000C600C6A24F470040C620C6A022A44F4D5
:10057000E0040C6216D041781C685C6800293FF4E6
:10058000D0AE002140F283649C60196159619DE600
:100590002D4B304A002483F826434021596070BC1B
:1005A00010607047254C2C4B216C41F400312164C4
:1005B000216B41F0010121630021D96024490D68BC
:1005C00025F0C0050D600D6845F080050D600D6AD1
:1005D00025F470450D620D6A45F4E0450D62216B0E
:1005E00041F00801216314490C6824F440540C6064
:1005F0000C6844F400540C600C6A24F070640C62C3
:100600000C6A44F0E0640C6253E60F4B134A00247A
:1006100083F827438021596070BC106070470A4BF3
:100620000F4A00244FF4801183F83443596010605E
:10063000B4E600BF00040240000C02400038024053
:10064000004800400008024000E100E0680000208F
:1006500000000240700000200044004074000020B0
:1006600064000020664D674C296C41F40021296428
:10067000296B41F0010129630021D960266826F029
:1006800003062660266846F002062660266A26F0E3
:100690000F062662266A46F0080626622C6B01F1D8
:1006A000804101F5023144F004042C630C6824F409
:1006B00040140C600C6844F400140C604C6A24F480
:1006C00070644C624C6A022A44F400644C627FF409
:1006D00052AF4B4C4C4B216C41F400212164216BF7
:1006E00041F0010121630021D96046490D6825F0E0
:1006F0000C050D600D6845F008050D600D6A25F0CC
:10070000F0050D620D6A45F080050D62216B41F028
:10071000040121633D490C6824F440040C600C681A
:1007200044F400040C604C6A24F470444C624C6A3B
:1007300044F400444C62BCE501F59231022A4C6C51
:1007400044F020044C640C6B44F004040C63A1F5E9
:1007500040514FF00004DC600C6824F440540C60FD
:100760000C6844F400540C600C6A24F070640C6251
:100770000C6A44F000640C627FF4EEAD11E501F503
:10078000F431022A0C6C44F480140C640C6B44F0B9
:1007900004040C63A1F540514FF00004DC600C68C8
:1007A00024F040740C600C6844F000740C604C6AD7
:1007B00024F470244C624C6A44F400244C627FF4AC
:1007C000CBAD0F49124B0C6C44F480140C640C6BD1
:1007D00044F008040C63A1F530510024DC600C687F
:1007E00024F030040C600C6844F020040C600C6AA7
:1007F00024F470640C620C6A44F400640C6258E5E2
:100800000038024000000240004C00400008024056
:1008100000500040027043704160FFF7A1BC00BF70
:100820000B460978A1B110B442680D2418460A2974
:1008300009D013681B06FCD5516010F8011F002970
:10084000F5D110BC704713681B06FCD55460F0E767
:10085000704700BF8446BCE80F0010B4044C0FC4BE
:10086000044B01221A70DCF80030236010BC704782
:100870008800002084000020F0B51546D2E900422F
:100880000B46297AA3B0002908BF22460092AA7A13
:1008900001920646114A802102A800F08DFD02A9AE
:1008A0003046FFF7BDFFAB7A93B100240C4F2346CF
:1008B0002B443A46DB7A802102A800F07DFD02A994
:1008C0003046FFF7ADFF0134A97AE3B29942EFD881
:1008D00004493046FFF7A4FF23B0F0BD5C1D0008BB
:1008E0007C1D00087C1F0008C36813F0030332D08E
:1008F00070B4D0F8B041D0F8B451D0F8B821D0F8E5
:10090000BC31C66846F02006C660C4F38000C4F35C
:10091000400608724E72C8B9640D48600C6005F05C
:100920000F00082888BF0820140A8872100CCA72A9
:100930000C73120E1C0A4873CB73180C1B0E0C742C
:10094000487470BC01208A738B747047E4080020DF
:100950004C600860E3E71846704700BF224B4068D0
:10096000D3F80022214942F00102C3F80022D3F853
:100970001C2288420CBF6FF480406FF0010002EA35
:100980000002C3F81C22D3F8041201EA0001C3F8E4
:1009900004120CBF0E220022D3F80C124FEAC2023E
:1009A0000CBF4FF4804C4FF0010C02F1804202F575
:1009B000C84241EA0C01C3F80C120021C2F84012EF
:1009C000C2F84412D3F814120140C3F81412D3F839
:1009D0001C2242EA0C02C3F81C22D3F8002222F0A7
:1009E0000102C3F800227047006400400068004024
:1009F000474B42689A4210B5044664D0454B9A4230
:100A00003CD0136843F001031360536813F00103F3
:100A1000FBD0116821F002011160217803292BD845
:100A20003D4B53F82130013B43F4E010617801F075
:100A3000FD0CBCF1010F08BF43F08040A1F10201A1
:100A400008BF40F4E010012998BF40F00040D06199
:100A5000136823F086031360136843F05003136098
:100A60002046FFF77BFF6268136823F001031360E1
:100A70005368DB07FCD410BD2848D7E72849294B29
:100A80001860086C284B40F0C0600864086B40F0A8
:100A900002000863196821F470511960196841F463
:100AA00020511960196A21F07F611962196A41F0B9
:100AB00019611962D96821F44061D960D96841F49B
:100AC0008061D9609DE71649184B1860086C184B77
:100AD00040F000700864086B40F008000863196873
:100AE00021F00F011960196841F00A011960196AB3
:100AF00021F0FF011962196A41F099011962D96860
:100B000021F00301D960D96841F00101D96078E78B
:100B10000064004000680040B420000801001C0090
:100B20000038024080000020000402407C000020C9
:100B3000000C024041600021027043708160FFF7A9
:100B400057BF00BF4268936830B45C013AD49368E1
:100B5000180141D49368DB0044D50B7A0220054686
:100B6000002B34D10B685B054C7A0CB143F00203C7
:100B70008C7A02EB001004F00F04C0F88441D1F825
:100B80000B40C0F88841D1F80F10C0F88C1143F029
:100B90000103C0F8803115B3012D15BF4FF40030AB
:100BA0004FF400704FF480314FF4807193680B4222
:100BB000FCD09368916003420CBF4FF0FF300020DF
:100BC00030BC7047002005460B7A002BCAD04B681A
:100BD000DB0043F00403C7E701200546F4E70220E9
:100BE0000121E3E74FF0FF30EAE700BF274B186829
:100BF000002845D070B5264CD4F80C349B0786B03D
:100C00003CD0244BD3F8B011D3F8B451D3F8B82169
:100C1000D3F8BC31D4F80C6446F02006C4F80C6458
:100C2000C1F38004C1F340068DF80C408DF80D60CF
:100C30003CB3C90802910021019105F00F01082978
:100C400088BF0821140A8DF80E10110C8DF80F20A2
:100C50008DF810408DF811101C0A190C8DF8133006
:100C6000120E1B0E8DF812208DF814408DF8151001
:100C70008DF8163083680BB101A8984706B070BD97
:100C80007047490D02940191D7E700BF7C00002016
:100C90000060004000640040274B1868002845D0E1
:100CA00070B5264CD4F80C389B0786B03CD0244B4A
:100CB000D3F8B011D3F8B451D3F8B821D3F8BC317C
:100CC000D4F80C6846F02006C4F80C68C1F3800420
:100CD000C1F340068DF80C408DF80D603CB3C90897
:100CE00002910021019105F00F01082988BF082118
:100CF000140A8DF80E10110C8DF80F208DF810408D
:100D00008DF811101C0A190C8DF81330120E1B0EE1
:100D10008DF812208DF814408DF815108DF81630CE
:100D200083680BB101A8984706B070BD7047490DA4
:100D300002940191D7E700BF8000002000600040CE
:100D4000006800402DE9F0470022B8B00E46054685
:100D5000114606A800F062FA0022012108A800F05E
:100D60005DFA002202210AA800F058FA00220321AD
:100D70000CA800F053FAB6493046FFF751FDB549CB
:100D80003046FFF74DFDB4493046FFF749FD2A785C
:100D9000032A00F05A81002A40F04481AF4BB04A48
:100DA000802118A800F008FB18A93046FFF738FD8D
:100DB0006968AC4ACB6908684968CDE900018021BF
:100DC00018A800F0F9FA18A93046FFF729FDA6493E
:100DD0003046FFF725FD0023A4490F931293A44B3F
:100DE0000EAACDE91013304640F22313A1490E9309
:100DF000FFF742FD0EA92846FFF7A4FE8146002812
:100E000040F0A5819C493046FFF70AFD012106A864
:100E100000F066FA686813A9FFF766FD0028F9D0AC
:100E200013AA96493046FFF727FD139A40F2231381
:100E30009A4204D19DF85730DE2B00F06981904929
:100E40003046FFF7EDFC01210AA800F049FA4FF007
:100E5000FF398C4B00BF1C46013B002CFAD12146C8
:100E600006A800F03DFA214608A800F039FA21460C
:100E70000AA800F035FA844F84493046FFF7D0FCC9
:100E80006B683C705A6982498248A86042F002024D
:100E90008B425A6100F02E817F4A934200F03481E8
:100EA0007E493046FFF7BCFC40F256430E934CF6A9
:100EB00002237049ADF842303046FE230EAA8DF869
:100EC0004430FFF7D9FC0EA92846FFF73BFE002867
:100ED00000F0B68072493046FFF7A2FC01210AA853
:100EE00000F0FEF94FF0FF393B78002BFCD06D4C41
:100EF0006D493046FFF794FC22466C493046FFF7B7
:100F0000BBFC226840F256439A4203D1E37ACA2BD3
:100F100000F00E8166493046FFF782FC01210AA8E5
:100F200000F0DEF94FF0FF396B6859495A698B427E
:100F300022F002025A6100F0D780574A934200F033
:100F4000DE80504B00BF1C46013B002CFAD10CA8A0
:100F5000214600F0C5F921460AA800F0C1F93C4934
:100F60003046FFF75DFCB9F1000F64D151493046BE
:100F7000FFF756FC3849DFF840A1DFF84081504FB9
:100F80003046FFF74DFC4F493046FFF749FC00243F
:100F90004FF4807201230EA928460E928DF842303C
:100FA0008DF84340FFF7CEFDE0B151463046FFF7E4
:100FB00037FC4FF0FF39444B00BF1A46013B002A73
:100FC000FAD10134322CE3D1404905923046FFF783
:100FD00027FC059A06A8114600F082F9484638B069
:100FE000BDE8F087686813A9FFF77EFC0028F9D0F8
:100FF0009DF843109DF857300193994214BF424623
:101000003A4602922346324A009118A8802100F005
:10101000D3F918A93046FFF703FC022106A800F017
:101020005FF9C8E7012A00F090802A4B2A49022A7A
:1010300018BF0B46B3E629493046FFF7F1FB99E7A5
:1010400027493046FFF7ECFB4EE7264BA7E600BFEB
:10105000C81D0008F41D0008101E0008901D00089F
:101060003C1E0008581E0008801E0008000004DE18
:10107000ADBEEF00AC1E0008E41E0008C41F00084F
:10108000041F0008BFC62D00840000201C1F00089C
:101090000064004055080008006800404C1F00082C
:1010A000701F000888000020A81F0008C01F00084B
:1010B000E01F0008FC1F000880200008B81D000881
:1010C000C41D0008302000083F420F009420000893
:1010D0005C200008841D0008B01D000818200008CE
:1010E000801F00089C1D00082B4B4FF48012C3F892
:1010F000802026E7284B4FF480121A60D0E6264B5A
:101100000122C3F888201CE7234B01229A60C7E61E
:10111000169B224A23F07F4393427FF490AE3046E1
:101120001F49FFF77DFB012108A800F0D9F890E6E0
:10113000237BFE2B7FF4EEAE30461A49FFF770FB9F
:1011400001210CA800F0CCF8EEE6174B27E6174972
:101150003046FFF765FB6B68154A9B68802118A82D
:1011600000F02AF918A93046FFF75AFB6B68114ABC
:101170009B69802118A800F01FF918A93046FFF7D5
:101180004FFB01210AA800F0ABF80B493046FFF7EE
:1011900047FB4FF0FF3921E700E100E0ADBEEF0073
:1011A000F01E0008C81F0008A41D0008B01E00089B
:1011B000CC1E0008C41E0008D41E000800B587B06D
:1011C0000849002301226846FFF724FB064903A8CB
:1011D00001230022FFF7AEFC694603A8FFF7B2FD2A
:1011E000FEE700BF0044004000640040FEE700BF8F
:1011F00008B5FFF7E3FFFEE7044A05491368002B33
:1012000008BF0B4618441060184670479C00002029
:10121000AD000020704700BF0020704730B42D4C57
:1012200001714271236B2C4D056043F00803236369
:10123000032914D8DFE801F03B281502274B196871
:1012400021F040411960196841F080411960012A7C
:101250005A690CBF42F4004222F400425A6130BC89
:1012600070471E4B196821F040511960196841F010
:1012700080511960012A5A690CBF42F4804222F45D
:10128000804230BC5A617047144B196821F04061AC
:101290001960196841F080611960012A5A690CBF10
:1012A00042F4005222F4005230BC5A6170470B4B9A
:1012B000196821F040711960196841F08071196056
:1012C000012A5A690CBF42F4805222F4805230BC89
:1012D0005A61704700380240C4200008000C0240E8
:1012E00003794171032B14D8DFE803F03C28140282
:1012F000304B1A6822F040421A601A6842F080426D
:101300001A6001295A6945D002294FD022F40042BF
:101310005A617047274B1A6822F040521A601A68C7
:1013200042F080521A6001295A692FD002290CBF5D
:1013300082F4804222F480425A6170471D4B1A6841
:1013400022F040621A601A6842F080621A60012935
:101350005A6927D002290CBF82F4005222F40052AD
:101360005A617047134B1A6822F040721A601A686B
:1013700042F080721A6001295A690FD002290CBF0D
:1013800082F4805222F480525A61704742F48042C3
:101390005A61704742F400425A61704742F48052E9
:1013A0005A61704742F400525A61704782F4004219
:1013B0005A617047000C02400CB430B5174B0C1E3C
:1013C0001D689DB008DA8B232B604FF0FF301DB0F5
:1013D000BDE8304002B070474FF40273ADF81430EE
:1013E00014BF04F1FF332346049307934FF6FF73B2
:1013F00002900690ADF81630209A21AB02A928463B
:10140000019300F047F9431CBCBF8B232B60002CD9
:10141000DDD0029B00221A70D9E700BF0000002037
:1014200038B50546002941D051F8043C0C1F002B6B
:10143000B8BFE41800F04CFC1D4A136833B9636070
:1014400014602846BDE8384000F048BCA34208D9E3
:10145000206821188B4201BF19685B680918216058
:10146000EDE71A465B680BB1A342FAD91168501830
:10147000A0420BD120680144501883421160E0D192
:1014800018685B68536001441160DAE702D90C23E5
:101490002B60D6E7206821188B4204BF19685B686F
:1014A000636004BF091821605460CAE738BD00BFFB
:1014B000A400002070B50E4E0C463168054611B9E7
:1014C00000F07CFB30602146284600F077FB431C8F
:1014D0000AD0C41C24F00304A04207D0211A2846D5
:1014E00000F06CFB013001D14FF0FF34204670BD9D
:1014F000A80000202DE9F041CD1C25F0030508359A
:101500000C2D38BF0C25002D074601DBA94205D95B
:101510000C233B6000263046BDE8F0812E4E00F0E3
:10152000D7FB33681C4634BB29463846FFF7C2FF59
:10153000431C04464DD134682646002E40D1236812
:101540003146384604EB030800F038FB80453AD1B9
:10155000216803356D1A25F0030508350C2D38BFB9
:101560000C2529463846FFF7A5FF01302BD023680C
:101570002B4423600EE02268521B1ED40B2A16D97E
:101580006119A342256018BF5960636808BF3160C4
:1015900062514B60384604F10B0600F09FFB26F0C9
:1015A0000706231DF21AB6D09B1BA350B3E762684F
:1015B000A3420CBF32605A60ECE723466468B2E78E
:1015C00034467668B9E70C233B60384600F086FB6A
:1015D000A1E72560DEE700BFA40000202DE9F04769
:1015E0008E689E4282460C4690461F4638D88A89AD
:1015F00012F4906F32D025680969A5EB010965697D
:1016000005EB450505EBD57501334B446D109D4247
:1016100038BF1D46530531D52946FFF76BFF0646F7
:1016200050B90C23CAF80030A38943F04003A381CA
:101630004FF0FF30BDE8F08721694A4600F020FBFB
:10164000A38923F4906343F08003A381266165613D
:101650004E44A5EB09052660A5603E46BE4200D972
:101660003E4620683246414600F018FBA3689B1BAB
:10167000A3602368334423600020DBE72A4600F0A0
:1016800033FB06460028E1D121695046FFF7C8FE2A
:10169000C7E700002DE9F04F98468B891B069DB0E7
:1016A00007460D4614460ED50B6963B94021FFF776
:1016B00021FF2860286120B90C233B604FF0FF30E8
:1016C000D1E040236B610023099320238DF829305A
:1016D000CDF80C803023DFF8A8818DF82A304FF048
:1016E000010923469A4613F8012B0AB1252AF9D19C
:1016F000BAEB040B0BD05B46224629463846FFF76F
:101700006DFF013000F0AA80099A5A4409929AF8B4
:101710000030002B00F0A28000234FF0FF32CDE913
:1017200005230AF1010A049307938DF853301A93A5
:101730005446052214F8011B514800F051FA049A4E
:10174000D8B9D00644BF20238DF85330110744BFC9
:101750002B238DF853309AF800302A2B15D0079A96
:10176000544600204FF00A0C214611F8013B303B53
:10177000092B4ED9B0B1079214E0A0EB080309FA87
:1017800003F313430493A246D2E7039B191D1B687E
:101790000391002BBBBF5B4242F002020793079309
:1017A000B8BF049223782E2B0CD163782A2B35D125
:1017B000039B1A1D1B680392002BB8BF4FF0FF3329
:1017C00002340593DFF8BCA021780322504600F0D4
:1017D00007FA40B14023A0EB0A0003FA00F0049B93
:1017E00003430134049314F8011B27488DF8281093
:1017F000062200F0F5F9002838D0244B1BBB039BD0
:10180000073323F0070308330393099B33440993F9
:1018100067E70CFB02320C460120A5E700230134E8
:10182000059319464FF00A0C204610F8012B303A68
:10183000092A03D9002BC5D00591C3E70CFB012170
:1018400004460123F0E703AB00932A46104B04A99A
:101850003846AFF30080421C0646D6D1AB895B0602
:101860003FF52CAF09981DB0BDE8F08F03AB009396
:101870002A46074B04A9384600F07AF8EBE700BF88
:10188000CC200008D2200008D6200008000000006C
:10189000DD1500082DE9F047164699468A680B6960
:1018A000DDF820809342B8BF1346336091F843209F
:1018B00007460C460AB1013333602368990642BFDC
:1018C000336802333360256815F0060506D104F14C
:1018D000190AE36832689B1AAB4226DC94F843206D
:1018E000131E226818BF012392062BD404F1430271
:1018F00049463846C04701301ED02368E568326843
:1019000003F00603042B08BFAD1AA36822690CBFBD
:1019100025EAE57500259342C4BF9B1AED18002601
:101920001A34B5421AD1002008E001235246494634
:101930003846C047013003D14FF0FF30BDE8F08793
:101940000135C6E7E1185A1C302081F843002244D3
:1019500094F8451082F843100233C7E7012322466A
:1019600049463846C0470130E6D00136D9E7000085
:101970002DE9FF470F7E0C9D782F914680460C463F
:101980009A4601F1430207D8622F0AD8002F00F0CF
:10199000D880582F00F0A38004F1420584F84270EB
:1019A0003AE0A7F16303152BF6D801A151F823F013
:1019B000091A00081D1A0008991900089919000849
:1019C00099190008991900081D1A000899190008AA
:1019D000991900089919000899190008291B00088D
:1019E0004D1A00080B1B00089919000899190008E6
:1019F0004B1B0008991900084D1A00089919000896
:101A000099190008131B00082B681A1D1B682A600F
:101A100004F1420584F842300123A3E020682968DC
:101A2000060601F104030AD50E682B60002E03DAC6
:101A30002D23764284F843305E480A2319E00E686D
:101A40002B6010F0400F18BF36B2EFE72B6820680C
:101A5000191D2960010601D51E6802E04606FBD566
:101A60001E8854486F2F0CBF08230A23002184F8D6
:101A700043106568A560002DA2BF216821F0040114
:101A800021600EB9002D4DD01546B6FBF3F103FBD6
:101A90001167C75D05F8017D3746BB420E46F4D994
:101AA000082B0BD12368DE0708D5236961689942AA
:101AB000DEBF302305F8013C05F1FF35521B2261E2
:101AC000CDF800A04B4603AA21464046FFF7E2FEB0
:101AD00001304CD14FF0FF3004B0BDE8F0873548FD
:101AE00081F845702968236851F8046B29601D0648
:101AF00014D5DF0744BF43F0200323601EB92368D9
:101B000023F0200323601023B0E7236843F0200371
:101B100023607823284884F84530E3E7590648BF16
:101B2000B6B2E6E71546BBE72B6826686169181D63
:101B3000286035061B6801D5196002E07006FBD5E8
:101B40001980002323611546BAE72B681A1D2A6005
:101B50001D6862680021284600F042F808B1401B69
:101B6000606063682361002384F84330A8E7236939
:101B70002A4649464046D0470130ABD023689B07F0
:101B800013D4E068039B9842B8BF1846A4E701232A
:101B9000324649464046D04701309BD00135E36884
:101BA00003995B1AAB42F2DCEBE7002504F119065E
:101BB000F5E700BFDD200008EE20000838B5064D2F
:101BC0000023044608462B60FFF716FB431C02D196
:101BD0002B6803B1236038BDA00000200000000086
:101BE00001F0FF01102A2BDB10F0070F08D010F8CE
:101BF000013B013A8B422DD010F0070F42B3F6D1D2
:101C0000F0B441EA012141EA014122F007047FF0EA
:101C100000070023F0E80256083C85EA010586EA41
:101C2000010685FA47F5A3FA87F586FA47F6A5FA7D
:101C300087F68EB9EED1F0BC01F0FF0102F0070289
:101C400032B110F8013B013A83EA010313B1F8D134
:101C50000020704701387047002D06BF3546033815
:101C6000073815F0010F07D1013015F4807F02BF4E
:101C7000013015F4C03F0130F0BC0138704700BF9F
:101C80000A44914200F1FF3300D1704710B511F8BA
:101C9000014B03F8014F9142F9D110BD884210B5B4
:101CA00001EB020402D98442234607D8431EA14215
:101CB00008D011F8012B03F8012FF8E70244014680
:101CC0008A4200D110BD13F8014D02F8014DF7E72B
:101CD000014800F038B800BFAC000020014800F017
:101CE00033B800BFAC0000202DE9F0418046144617
:101CF0000E4621B9BDE8F0411146FFF7FBBB2AB9FA
:101D0000FFF78EFB25462846BDE8F08100F01DF860
:101D10008442074602D8B4EB500F12D82146404601
:101D2000FFF7E8FB05460028EDD0BC4222463146CD
:101D300028BF3A46FFF7A4FF31464046FFF770FB45
:101D4000E1E73546DFE77047704751F8043C181F5C
:101D5000002BBCBF0B58C018704700002020257313
:101D60003A2049443D30782530336C5820444C4368
:101D70003D257520446174613D00000025303258D6
:101D800020000000313235206B62707300000000CB
:101D9000353030206B6270730000000031204D62DE
:101DA00070730000323530206B62707300000000E9
:101DB000756E6B6E6F776E004D49534D41544348BD
:101DC000000000004F4B00000A3D3D3D3D3D3D3DC4
:101DD0003D3D3D3D3D3D3D3D3D3D3D3D3D3D3D3D33
:101DE0003D3D3D3D3D3D3D3D3D3D3D3D3D3D3D3D23
:101DF0003D0A000020627843414E204C6F6F7062B4
:101E000061636B2053656C662D546573740A000022
:101E10003D3D3D3D3D3D3D3D3D3D3D3D3D3D3D3DF2
:101E20003D3D3D3D3D3D3D3D3D3D3D3D3D3D3D3DE2
:101E30003D3D3D3D3D3D3D3D0A0000004D6F64652B
:101E40003A204C4F4F504241434B207C2042617519
:101E5000643A2025730A00004254523D3078253000
:101E6000386C5820204D43523D30782530386C581E
:101E700020204D53523D30782530386C580A0000F0
:101E80000A2D2D2D20506861736520313A20506F46
:101E90006C6C696E67205458202D3E20506F6C6C1E
:101EA000696E67205258202D2D2D0A0054580000CD
:101EB00020205458204641494C4544212054535237
:101EC0003D30780020204553523D30782530386C25
:101ED000580A00002020524553554C543A204641A0
:101EE000494C0A0020205458204F4B0A00000000A3
:101EF00020205258204D415443483A2050415353DA
:101F00000A00000020205258204D49534D415443AF
:101F1000483A204641494C0A000000000A2D2D2D68
:101F200020506861736520323A20506F6C6C696E86
:101F300067205458202D3E20496E7465727275706A
:101F400074205258202D2D2D0A00000020205258B8
:101F500020696E7465727275707420656E61626C52
:101F6000656420284649464F2030290A00000000B9
:101F700020205458204641494C4544210A00000085
:101F800020205458204F4B2C2077616974696E676C
:101F900020666F72204952512063616C6C626163EC
:101FA0006B2E2E2E0A000000202049525120636122
:101FB0006C6C6261636B206669726564210A000063
:101FC0004952512052580000202049525120525865
:101FD000204D415443483A20504153530A000000D9
:101FE0002020495251205258204D49534D415443CD
:101FF000483A204641494C0A00000000204C4F4F0F
:10200000504241434B20544553543A20414C4C20BC
:102010005041535345440A00204C4F4F50424143D6
:102020004B20544553543A204641494C45440A00FC
:102030000A506861736520333A204C6F6F7062619B
:10204000636B207833302028677265656E204C45BD
:102050004420746F67676C6573290A0020204C6FF9
:102060006F70202325753A2054583D307825303242
:10207000582052583D3078253032582025730A00B8
:1020800020204C6F6F70205458206661696C656425
:102090000A0000005068617365203320636F6D7023
:1020A0006C6574656420636F6E742E207465737440
:1020B000200A0000020000000400000008000000E8
:1020C000010000001512000819120008232D302B02
:1020D0002000686C4C006566674546470030313229
:1020E0003334353637383941424344454600303180
:1020F00032333435363738396162636465660000DF
:08210000F8B500BFF8B500BFFF
:1021080004000020000000000000000000000000A3
:1021180000000000000000000000000000000000B7
:1021280000000000000000000000000000000000A7
:102138000000000000000000000000000000000097
:102148000000000000000000000000000000000087
:102158000000000000000000000000000000000077
:042168000000000073
:04000005080011F1ED
:00000001FF
