:020000040800F2
:1000000000000220D1000008CD000008CD0000084B
:10001000CD000008CD000008CD0000080000000061
:10002000000000000000000000000000CD000008FB
:10003000CD00000800000000CD000008CD00000841
:1000400001704270704700BF03460A4601780248BB
:100050005A7000F03DB900BFF81F000810B5044603
:1000600003486278217800F033F9607810BD00BF52
:100070001820000808B500F085F8002211460F4846
:10008000FFF7DEFF0E4800220121FFF7D9FF0D48E0
:1000900000220221FFF7D4FF002203210A48FFF7C4
:1000A000CFFF0648FFF7DAFF0548FFF7D7FF0548FF
:1000B000FFF7D4FF0448FFF7D1FFFEE764000020FC
:1000C000680000206C00002070000020FEE700BFE8
:1000D00008B5FFF7CFFFFEE770B5161E07DD4C1E13
:1000E000A51914F8010F00F081F8AC42F9D130469F
:1000F00070BD00BFF8B5161E14DD0D4600F080F887
:10010000012E287011D00A4F012406E000F078F883
:100110000134A64205F8010F02D03B689B06F5D4D6
:100120002046F8BD00242046F8BD3446F8E700BF5D
:10013000004400404FF0FF30704700BF4FF40053C1
:100140004B600020704700BF0120704700207047BF
:10015000FEE700BF024B16221A604FF0FF307047D7
:10016000CC00002001207047044A05491368002B89
:1001700008BF0B46184410601846704774000020F2
:10018000DC0000201649174A086C174B40F4003079
:1001900010B40864086B40F001000863116821F096
:1001A000F0011160116841F0A0011160116A21F4A1
:1001B0007F411162116A4FF4B67441F4EE4111624D
:1001C0009C60DA6810BC42F00C02DA601A691A61AD
:1001D0005A695A61DA6842F40052DA60704700BF27
:1001E000003802400000024000440040034A136807
:1001F0001B06FCD5C0B25060704700BF00440040F1
:10020000034A13689B06FCD55068C0B2704700BF14
:10021000004400400B4A13689806FCD55068C0B2F1
:100220000D2806D00146074A13681B06FCD551600D
:100230007047044A13681906FCD50D230A21536040
:100240000846F0E700440040034A13681B06FCD54B
:10025000C3B25360704700BF0044004038B5104D32
:1002600010482C4600F034F829460F4800F0BEF83C
:1002700054F8041B0D4800F02BF80D4800F028F846
:1002800021460C4800F0B2F821460B4800F020F857
:10029000204600F0A3F8BDE83840084800F09EB8BA
:1002A0007800002038200008502000085420000862
:1002B000682000088020000884200008982000089A
:1002C00002440346934200D1704703F8011BF9E74B
:1002D0000FB40A4B13B51C6824B1A36913B92046A7
:1002E00000F084FA05AB049AA1680193204600F05F
:1002F000A5FC02B0BDE8104004B07047000000202B
:1003000070B50E46054618B183690BB900F06EFA58
:10031000AB69AC6813B9284600F068FA2C4B9C42D4
:1003200020D16C68636EDB0705D4A389980502D4DD
:10033000A06D00F016FBA38919071DD52369DBB159
:10034000013EA36816F8011F013BA36039BB002BD7
:1003500038DA22460A21284600F060F8013011D030
:100360000A2511E01B4B9C4201D1AC68DAE71A4B1D
:100370009C4208BFEC68D5E72146284600F0A0F86B
:100380000028DDD04FF0FF35636EDA0705D4A3896E
:100390009B0502D4A06D00F0E5FA284670BD002B45
:1003A00004DAA2699A4206DC0A2904D023685A1C9E
:1003B00022601970C5E72246284600F02FF8013068
:1003C000BFD1DFE723680A255A1C22601D70DBE7D6
:1003D000C0200008E0200008A0200008024B0146D1
:1003E0001868FFF78DBF00BF000000200FB40A4B54
:1003F00013B51C6824B1A36913B9204600F0F6F9BF
:1004000005AB049A61680193204601F081F802B0BF
:10041000BDE8104004B0704700000020F8B50E465B
:100420001446054618B183690BB900F0DFF9214B7A
:100430009C422BD16C68A369A360A3891A072FD5AE
:1004400023696BB323692068C01A6369F6B28342DB
:10045000374604DC2146284600F022F930BBA36869
:10046000013BA36023685A1C22601E70636901303F
:10047000834204D0A389DB0706D50A2E04D1214686
:10048000284600F00DF988B93846F8BD0A4B9C4261
:1004900001D1AC68CFE7094B9C4208BFEC68CAE7C2
:1004A0002146284600F00CF80028CBD04FF0FF374B
:1004B000EAE700BFC0200008E0200008A0200008F4
:1004C000324B70B51D6806460C4625B1AB6913B9B1
:1004D000284600F08BF92E4B9C420FD16C68A38903
:1004E000B4F90C2019072CD4DD0611D4092333608C
:1004F00042F04003A3814FF0FF303EE0254B9C4289
:1005000001D1AC68EBE7244B9C4208BFEC68E6E7FE
:10051000580712D5616B41B104F14403994202D0EE
:10052000304600F085FA00236363A38923F0240397
:10053000A3810023636023692360A38943F0080338
:10054000A38123694BB9A38903F42073B3F5007F1A
:1005500003D02146304600F02BFAA089B4F90C20D4
:1005600010F001030AD00023A36063695B42A3611A
:10057000236943B910F08000BAD170BD810758BF1C
:100580006369A360F4E70020F7E700BF00000020E4
:10059000C0200008E0200008A02000088A89F8B5E3
:1005A000054610070C4657D44B68002B04DC0B6C37
:1005B000002B01DC0020F8BDE66A002EFAD00023F3
:1005C00012F480522F682B6032D0606DA3895A07D5
:1005D00005D56368C01A636B0BB1236CC01A002386
:1005E0000246E66A216A2846B047431CA38906D121
:1005F00029681D292CD8294ACA40D60728D50022A7
:100600006260D9042269226004D5421C01D12B68A2
:1006100003B96065616B2F600029CBD004F14403FE
:10062000994202D0284600F003FA00206063C2E736
:10063000216A01232846B047411CC7D12B68002BF3
:10064000C4D01D2B01D0162B01D12F60B2E7A38996
:1006500043F04003A381AEE70F69002FAAD09307B0
:100660000E6808BF4B690F6018BF0023F61B8B6034
:10067000002E9FDD216AD4F828C033463A4628462A
:10068000E047002806DCA38943F04003A3814FF034
:10069000FF3090E70744361AEAE700BF0100402028
:1006A00038B50B6905460C4613B90025284638BDF8
:1006B00018B183690BB900F099F8144B9C421BD117
:1006C0006C68B4F90C30002BEFD0626ED00704D404
:1006D000990502D4A06D00F044F928462146FFF7A1
:1006E0005DFF636EDA070546E0D4A3899B05DDD480
:1006F000A06D00F037F9D9E7054B9C4201D1AC68F9
:10070000DFE7044B9C4208BFEC68DAE7C020000832
:10071000E0200008A0200008014620B9044B05494C
:10072000186800F0FEB8044B1868FFF7B9BF00BFA7
:100730009C200008A106000800000020002310B53E
:100740000446C0E90033C0E9043383608181436615
:10075000C2818361194608225C30FFF7B1FD054B69
:100760006362054BA362054BE362054B246223637E
:1007700010BD00BFBD190008DF190008171A0008D6
:100780003B1A0008014900F0CCB800BFA1060008E0
:1007900070B568224D1E55430E4605F1740100F0F8
:1007A000B1F9044640B10021C0E900160C30A06048
:1007B00005F16802FFF784FD204670BD014800F096
:1007C000D0B800BFD1000020014800F0CBB800BF76
:1007D000D1000020014800F0C4B800BFD2000020C2
:1007E000014800F0BFB800BFD200002010B5044699
:1007F000FFF7F0FFA3691BB1BDE81040FFF7F0BFA2
:10080000C4E912332365134B134A1B68A262A34247
:1008100004BF0123A361204600F020F86060204659
:1008200000F01CF8A060204600F018F80022E060FC
:1008300004216068FFF782FFA06801220921FFF709
:100840007DFFE06802221221FFF778FF0123A361F8
:10085000D2E700BF9C20000885070008F8B50746CE
:10086000FFF7ACFF1E4B1E68B36913B93046FFF7A4
:10087000BDFF4836D6E90134013B03D533680BB3DD
:100880003668F7E7B4F90C50D5B9164BE36004F1BC
:100890005800656600F064F8FFF796FFC4E901555B
:1008A000C4E904552560A5610822294604F15C00CD
:1008B000FFF706FDC4E90D55C4E912552046F8BD01
:1008C0006834D9E704213846FFF762FF04463060F8
:1008D0000028D5D1FFF778FF0C233B60EEE700BF7F
:1008E0009C2000080100FFFF2DE9F0410F4600F1B8
:1008F00048040026D4E90185B8F1010805D524682B
:10090000002CF7D13046BDE8F081AB89012B06D928
:10091000B5F90E30013302D02846B8470643683592
:10092000EAE72DE9F8430646884600F14804002727
:10093000D4E90195B9F1010905D52468002CF7D156
:100940003846BDE8F883AB89012B07D9B5F90E30DD
:10095000013303D029463046C04707436835E9E7ED
:1009600070477047704770B50E46B1F90E100029F8
:1009700096B014461D4608DAB6F90C3000222A60FB
:100980001A0610D44FF480630EE06A4601F046FA6E
:100990000028F1DB019A02F47042A2F500535A429A
:1009A0005A412A60EEE740230020236016B070BD54
:1009B0008B8973B59D0706460C4607D504F147039E
:1009C000236023610123636102B070BD01AB6A46FD
:1009D000FFF7C9FF00990546304600F093F848B983
:1009E000B4F90C309A05EFD423F0030343F002036B
:1009F000A381E3E70D4BB362A389206043F080033A
:100A0000A381009B6361019B20615BB1B4F90E106F
:100A1000304601F015FA28B1A38923F0030343F00F
:100A20000103A381A0890543A581CDE785070008BF
:100A300038B50546002941D051F8043C0C1F002B65
:100A4000B8BFE41801F082FA1D4A136833B9636035
:100A500014602846BDE8384001F07EBAA34208D9A8
:100A6000206821188B4201BF19685B680918216052
:100A7000EDE71A465B680BB1A342FAD9116850182A
:100A8000A0420BD120680144501883421160E0D18C
:100A900018685B68536001441160DAE702D90C23DF
:100AA0002B60D6E7206821188B4204BF19685B6869
:100AB000636004BF091821605460CAE738BD00BFF5
:100AC000D400002070B50E4E0C463168054611B9B1
:100AD00000F02CFF30602146284600F027FF431C21
:100AE0000AD0C41C24F00304A04207D0211A2846CF
:100AF00000F01CFF013001D14FF0FF34204670BDE3
:100B0000D80000202DE9F041CD1C25F00305083563
:100B10000C2D38BF0C25002D074601DBA94205D955
:100B20000C233B6000263046BDE8F0812E4E01F0DC
:100B30000DFA33681C4634BB29463846FFF7C2FF1E
:100B4000431C04464DD134682646002E40D123680C
:100B50003146384604EB030800F0E8FE80453AD100
:100B6000216803356D1A25F0030508350C2D38BFB3
:100B70000C2529463846FFF7A5FF01302BD0236806
:100B80002B4423600EE02268521B1ED40B2A16D978
:100B90006119A342256018BF5960636808BF3160BE
:100BA00062514B60384604F10B0601F0D5F926F08E
:100BB0000706231DF21AB6D09B1BA350B3E7626849
:100BC000A3420CBF32605A60ECE723466468B2E788
:100BD00034467668B9E70C233B60384601F0BCF92F
:100BE000A1E72560DEE700BFD40000209368013B49
:100BF000002B10B4936007DA9469A34201DB0A2941
:100C000002D110BCFFF70ABC1368581C10601970A1
:100C1000084610BC7047F8B506460F461446D5186E
:100C2000AC4201D1002007E014F8011B3A463046DF
:100C3000FFF7DCFF431CF3D1F8BD00002DE9F04FB6
:100C40000D469DB014469846064618B183690BB907
:100C5000FFF7CCFD894B9D421BD175686B6ED907A0
:100C600005D4AB899A0502D4A86DFFF77AFEAB894B
:100C70001B0701D52B69EBB929463046FFF720FC4D
:100C8000C0B16B6EDC070ED54FF0FF301DB0BDE874
:100C9000F08F7B4B9D4201D1B568DFE7794B9D42D8
:100CA00008BFF568DAE7AB899805EDD4A86DFFF7C2
:100CB00059FEE9E70023099320238DF82930CDF868
:100CC0000C803023DFF8C0818DF82A304FF0010905
:100CD00023469A4613F8012B0AB1252AF9D1BAEB1B
:100CE000040B0BD05B46224629463046FFF793FFA4
:100CF000013000F0AA80099A5A4409929AF800300B
:100D0000002B00F0A28000234FF0FF32CDE9052335
:100D10000AF1010A049307938DF853301A9354464D
:100D2000052214F8011B584801F0B2F8049AD8B90A
:100D3000D10644BF20238DF85330130744BF2B2323
:100D40008DF853309AF800302A2B15D0079A544664
:100D500000204FF00A0C214611F8013B303B092BD3
:100D60004ED9B0B1079214E0A0EB080309FA03F3DF
:100D700013430493A246D2E7039B191D1B680391FA
:100D8000002BBBBF5B4242F0020207930793B8BF40
:100D9000049223782E2B0CD163782A2B35D1039B18
:100DA0001A1D1B680392002BB8BF4FF0FF330234AB
:100DB0000593DFF8D8A021780322504601F068F8A7
:100DC00040B14023A0EB0A0003FA00F0049B034368
:100DD0000134049314F8011B2D488DF828100622C5
:100DE00001F056F800283FD02A4B1BBB039B07336A
:100DF00023F0070308330393099B3B44099367E7F8
:100E00000CFB02320C460120A5E7002301340593B8
:100E100019464FF00A0C204610F8012B303A092AE7
:100E200003D9002BC5D00591C3E70CFB0121044673
:100E30000123F0E703AB00932A46174B04A9304681
:100E4000AFF300800746781CD6D16B6ED90705D466
:100E5000AB899A0502D4A86DFFF784FDAB895B06C8
:100E60003FF512AF099811E703AB00932A460A4BEE
:100E700004A9304600F080F8E4E700BFC020000875
:100E8000E0200008A020000800210008062100083A
:100E90000A21000800000000170C00082DE9F047A7
:100EA000164699468A680B69DDF820809342B8BFE0
:100EB0001346336091F8432007460C460AB10133CC
:100EC00033602368990642BF336802333360256874
:100ED00015F0060506D104F1190AE36832689B1A79
:100EE000AB4226DC94F84320131E226818BF01236E
:100EF00092062BD404F1430249463846C0470130DC
:100F00001ED02368E568326803F00603042B08BF8F
:100F1000AD1AA36822690CBF25EAE5750025934246
:100F2000C4BF9B1AED1800261A34B5421AD100200E
:100F300008E00123524649463846C047013003D1F4
:100F40004FF0FF30BDE8F0870135C6E7E1185A1CC5
:100F5000302081F84300224494F8451082F8431071
:100F60000233C7E70123224649463846C0470130CD
:100F7000E6D00136D9E700002DE9FF470F7E0C9D32
:100F8000782F914680460C469A4601F1430207D8D5
:100F9000622F0AD8002F00F0D880582F00F0A380CD
:100FA00004F1420584F842703AE0A7F16303152B7F
:100FB000F6D801A151F823F01110000825100008FF
:100FC000A10F0008A10F0008A10F0008A10F000841
:100FD00025100008A10F0008A10F0008A10F0008AC
:100FE000A10F000831110008551000081311000866
:100FF000A10F0008A10F000853110008A10F00085D
:1010000055100008A10F0008A10F00081B110008CF
:101010002B681A1D1B682A6004F1420584F84230CF
:101020000123A3E020682968060601F104030AD51C
:101030000E682B60002E03DA2D23764284F84330AD
:101040005E480A2319E00E682B6010F0400F18BFAD
:1010500036B2EFE72B682068191D2960010601D51B
:101060001E6802E04606FBD51E8854486F2F0CBF51
:1010700008230A23002184F843106568A560002D29
:10108000A2BF216821F0040121600EB9002D4DD0CE
:101090001546B6FBF3F103FB1167C75D05F8017D4B
:1010A0003746BB420E46F4D9082B0BD12368DE0726
:1010B00008D5236961689942DEBF302305F8013CF9
:1010C00005F1FF35521B2261CDF800A04B4603AA63
:1010D00021464046FFF7E2FE01304CD14FF0FF3091
:1010E00004B0BDE8F087354881F845702968236869
:1010F00051F8046B29601D0614D5DF0744BF43F087
:10110000200323601EB9236823F0200323601023EB
:10111000B0E7236843F0200323607823284884F84D
:101120004530E3E7590648BFB6B2E6E71546BBE7E8
:101130002B6826686169181D286035061B6801D573
:10114000196002E07006FBD5198000232361154663
:10115000BAE72B681A1D2A601D68626800212846BC
:1011600000F096FE08B1401B6060636823610023B5
:1011700084F84330A8E723692A4649464046D047C9
:101180000130ABD023689B0713D4E068039B9842DF
:10119000B8BF1846A4E70123324649464046D04727
:1011A00001309BD00135E36803995B1AAB42F2DC56
:1011B000EBE7002504F11906F5E700BF112100084F
:1011C000222100082DE9F0471D464B6EDF07ADF5E3
:1011D000227D06460C46924605D48B89980502D49A
:1011E000886DFFF7BEFB0023CDE94433A64BA093E7
:1011F0000DF10408A54BA64FDFF89892CDF81881A1
:10120000A19300959AF80030002B00F07381D95D0E
:1012100011F008010AF1010519D06368002B0FDDF8
:1012200023681A78BA5C110701D4AA46EAE7459AFE
:101230000132459262680133013A62602360ECE753
:10124000A19B2146304698470028E9D0EDE7252BA1
:1012500012D09A466368002B40F395802268137879
:10126000534540F047816368013B6360459B013211
:10127000013322604593D8E7419143919AF80130B8
:101280002A2B02BF102341930AF102050A22AA4623
:101290001AF8011BA1F13003092B1ED97D48032246
:1012A00000F0F6FD40B10123A0EB090003FA00F0C5
:1012B000419B18434190554615F8013B782B07D8C0
:1012C000572B11D8252BC4D058D8002B00F0C8803C
:1012D000032347930A2342937CE0439B02FB0311C1
:1012E000303943915546D2E7A3F15802202AEFD86E
:1012F00001A151F822F000BFBF130008D11200086D
:10130000D11200081D140008D1120008D1120008E3
:10131000D1120008D1120008D1120008D112000821
:10132000D1120008331400080914000883130008C0
:101330008313000883130008D11200080D1400085D
:10134000D1120008D1120008D1120008D1120008F1
:101350004314000815140008B7130008D112000840
:10136000D11200083F140008D11200080914000827
:10137000D1120008D1120008BF130008453B022B10
:10138000A6D8052325E0A19B214630469847002892
:101390003FF464AF636EDA0740F1A48044980028FC
:1013A00067D0A38913F0400F18BF4FF0FF300DF541
:1013B000227DBDE8F087419A42F020024192419A95
:1013C00042F40072419210226F2B429234BF0323E9
:1013D000042347936368002B4EDD419B5B0604D4D6
:1013E00023681A78BA5C100756D4479B022B65DC39
:1013F0006B46224641A9304600F0B2F8012879D068
:1014000002287FF412AFC5E70A22DDE700234293EA
:101410000323DEE7082342930423DAE72946404604
:1014200000F094FA419B43F04003419305460123A9
:10143000CFE7419B43F0400341930023C9E70223D8
:10144000C7E74198C3063FF5F0AE009B459A191DCA
:1014500000911B6810F0010F14BF1A801A60E4E6B7
:10146000636ED80705D4A389990502D4A06DFFF750
:1014700079FA4FF0FF309AE7A19B21463046984712
:101480000028AAD086E700BF9D1C00081918000894
:101490005D21000806210008459A013245926268E4
:1014A000013A002A626002DD0133236098E7A19BC4
:1014B000214630469847002892D06BE7042B06DC83
:1014C0006B46224641A9304600F0A4F896E70F4B40
:1014D000002B3FF4AAAE6B46224641A93046AFF33B
:1014E00000808BE7A38999053FF558AFA06DFFF702
:1014F00039FA53E7636EDA0705D4A3899B0502D452
:10150000A06DFFF72FFA449851E700BF00000000DC
:101510002DE9F0410C4616461F46054618B1836971
:101520000BB9FFF763F90B4B9C4208D16C683B4643
:10153000324621462846BDE8F041FFF743BE064B40
:101540009C4201D1AC68F2E7044B9C4208BFEC68B6
:10155000EDE700BFC0200008E0200008A020000840
:101560002DE9F84315468A6880460C4632B98A69E7
:10157000002A0CBF01224FF0FF328A602268DFF898
:101580009090D1065FBF1A68111D19601668002778
:10159000A06988B1012807D12B681A7863699B5C20
:1015A00053B9002F31D022E0022820D12B681B78BC
:1015B00013F809301B071AD42368DA065EBF2B68BC
:1015C0001B7806F8013B2A686B6801322A60A26822
:1015D000013B013A6B600137A26042B1002BD7DCBE
:1015E000D4F880312946404698470028D0D0236857
:1015F00013F0100305D1E2680132E260A26902B182
:10160000337023693B4423610020BDE8F88300BFA9
:101610005D2100082DE9F04F9846764B0C46824636
:10162000164693E8070087B003AB83E80700724BC8
:10163000A169724A032918BF1A46A36801925A1E6B
:10164000B2F5AE7F88BF6FF4AE75274682BF03EB5D
:10165000050940F25D13A36057F81C3B43F4506347
:1016600098BF4FF0000923603D464FF0000B3168F2
:1016700003AB097853F82B00022200F009FC28B3D1
:10168000BBF1010F59D162682AB92268082342F4DC
:10169000007263602260226822F4A0622260A26865
:1016A000511EA16092B13268511C3160127805F868
:1016B000012B7268013A002A726007DCD4F880219D
:1016C000314650469047002840F085800BF1010BD1
:1016D000BBF1030FCBD163680BB90A236360636866
:1016E00047496069C91A00F031F94FF0000BA3684F
:1016F0002268002B3DD03168606991F800C010F875
:101700000C00002835D0BCF1300F24D1100522D5B3
:101710000BF1010BB9F1000F03D0013309F1FF39CF
:10172000A3607368013B002B73601BDD33680133DA
:101730003360A368013BA360D9E7BBF1020FAED1D0
:10174000226802F4C061B1F5007FBFD1102363604D
:1017500042F48072A2E722F4106222600B7805F84E
:10176000013BDEE7D4F880313146504698470028E7
:10177000DFD02368DB050DD5BD4209D915F8011C62
:10178000D4F87C3132465046984705F1FF394D4632
:10179000BD422DD0226812F0100213D12A70636866
:1017A000019E39465046B0472168D8F8003011F004
:1017B000200F13D01A1DC8F800201B681860E368BA
:1017C0000133E360ED1BAB4425695D4425610020D6
:1017D00007B0BDE8F08F4FF0000BCAE71A1DC8F83C
:1017E00000201B6811F0010F14BF18801860E6E795
:1017F0000120EDE750210008251C00083D1B0008D2
:101800004C210008838903F00903092B01D1FEF75D
:1018100083BF002070470000F8B50C46054618B19C
:1018200083690BB9FEF7E2FF3B4B9C420AD16C681F
:10183000B4F90C2000236360A3899E060CD54FF0F9
:10184000FF3066E0354B9C4201D1AC68F0E7344B89
:101850009C4208BFEC68EBE7580748D4D90605D48A
:1018600009232B6042F04003A381E8E71A070BD558
:1018700021462846FEF714FF0028E0D1A389A06086
:1018800023F00803A381A061A38943F00403A3818B
:1018900023691BB921462846FFF78AF8A689B4F9BF
:1018A0000C70B3070FD00123A3811E4B1E4918688B
:1018B00006F00906FFF718F8092EA78103D1214683
:1018C0002846FEF76BFE2269666A6369216A226018
:1018D0002846B047002860601CDCB4F90C3017BF04
:1018E000002243F02003626043F04003BCE7616BD9
:1018F0000029CDD004F14403994202D02846FFF7D5
:1019000097F8236C636000206063002BC0D0E36B0A
:101910002360F8BD0020FCE7C0200008E02000089C
:10192000A02000089C2000080518000838B5064DC6
:101930000023044608462B60FEF716FC431C02D128
:101940002B6803B1236038BDCC00002070B50B7844
:1019500004465E2B0BBF4B78481C881C002208BF36
:101960000122611E04F1FF0501F8012FA942FBD1FC
:101970000BB9013870BD82F00102E25405462846D9
:1019800010F8011B2D2906D05D29F3D009B928468E
:10199000F0E70B46F1E76E785D2EFAD0B342F8DC43
:1019A0000235194601318E426254FBDCF11A0139CD
:1019B000581CB342A8BF00214318E0E710B50C46FD
:1019C000B1F90E1000F0FEFA0028ABBF636DA389D9
:1019D0001B1823F48053ACBF6365A38110BD2DE9B0
:1019E000F0411F468B89DB0505460C46164605D59A
:1019F000B1F90E100223002200F032FAA389B4F9E3
:101A00000E1023F48053A38132463B462846BDE89E
:101A1000F04100F0DBB910B50C46B1F90E1000F042
:101A20001FFA431CA38915BF606523F4805343F458
:101A30008053A38118BFA38110BDB1F90E1000F02F
:101A4000D7B90000012B2DE9F047804601D0242BA7
:101A500006D900F0DDF9162303600020BDE8F08709
:101A6000354F0D46284615F8014BE65D16F0080681
:101A7000F8D12D2C2FD12C780126851C002B57D086
:101A8000102B09D1302C07D1287800F0DF0058281E
:101A900049D16C781023023506F1004E0EF1FF3E5D
:101AA0000027BEFBF3F9384603FB19EAA4F1300C1A
:101AB000BCF1090F14D86446A34222DD002F1DDBC0
:101AC00081451BD301D1A24518DB00FB0340012750
:101AD00015F8014BEAE72B2C04BF2C78851CCDE7C9
:101AE000A4F1410CBCF1190F01D8373CE4E7A4F193
:101AF000610CBCF1190F04D8573CDDE74FF0FF37FC
:101B0000E6E7002F07DA2223C8F800307046002AE3
:101B1000A4D0691E05E006B14042002A9ED0002FE5
:101B2000F7D111609AE73024002BB5D10823B3E731
:101B3000302CA9D00A23AFE75D210008FFF782BF50
:101B40002DE9F043364F86460D46284615F8014BE1
:101B5000E65D16F00806F8D12D2C2FD12C78012641
:101B6000851C002B57D0102B09D1302C07D1287899
:101B700000F0DF00582849D16C78102302354FF06F
:101B8000FF380027B8FBF3F803FB08F96FEA0909EF
:101B90003846A4F1300CBCF1090F14D86446A342B6
:101BA00022DD002F1DDB80451BD301D1A14518DBB1
:101BB00000FB0340012715F8014BEAE72B2C04BF7B
:101BC0002C78851CCDE7A4F1410CBCF1190F01D88C
:101BD000373CE4E7A4F1610CBCF1190F04D8573C81
:101BE000DDE74FF0FF37E6E7002F07DA2223CEF8D4
:101BF00000304FF0FF3032B9BDE8F08306B140420B
:101C0000002AF9D007B1691E1160F5E73024002BD6
:101C1000B5D10823B3E7302CA9D00A23AFE700BF22
:101C20005D210008FFF78CBF2DE9F0410C46496BA0
:101C300004F1440399421DD14FF48061FEF762FF25
:101C400018B94FF0FF30BDE8F0814FF48063A36313
:101C500094F84630606380F8FF3394F8453080F89C
:101C6000FE3394F8443080F8FD3300F2FD302060FC
:101C70000020E8E7A66B77003A4600F073F90546C6
:101C80000028DED000EB060801463246404600F050
:101C90004FF9C4E90D57C4F80080E9E770B5144660
:101CA0004A1C06460D4603D14FF0FF35284670BD4D
:101CB00018B183690BB9FEF799FD414B9C421DD1C8
:101CC0007468636EDB0705D4A389980502D4A06D00
:101CD000FEF747FEB4F90C3023F020035907A38127
:101CE0009AB22DD4D30613D4636EDD07DCD412F47C
:101CF000007FD9D1A06DFEF735FED5E7314B9C4270
:101D000001D1B468DDE7304B9C4208BFF468D8E7E6
:101D1000100711D521463046FEF7C2FC30B1636E84
:101D2000D907C1D4A38913F4007FE2E7A389A06097
:101D300023F00803A381A061A38943F00403A381D6
:101D4000636B6268EDB2D3B1A36B934205DC2146AD
:101D50003046FFF769FF0028E1D123685A1E226050
:101D600003F8015C636801336360636EDA079DD436
:101D7000A3899B059AD4A06DFEF7F4FD96E7616EEA
:101D80002069236801F0010160B198420AD213F87A
:101D9000010CA84206D1013B013223606260002998
:101DA00084D1E5E7C4E90F3204F1440363630323FC
:101DB000A363234603F8465F236001236360EEE7D5
:101DC000C0200008E0200008A020000838B5074D1A
:101DD00004460846114600222A601A46FEF77CF99E
:101DE000431C02D12B6803B1236038BDCC00002016
:101DF00038B5064D0023044608462B60FEF79AF9D5
:101E0000431C02D12B6803B1236038BDCC000020F5
:101E1000014B1868704700BF0000002038B5074D1F
:101E200000230446084611462B60FEF787F9431C41
:101E300002D12B6803B1236038BD00BFCC00002065
:101E400038B5064D0023044608462B60FEF77CF9A2
:101E5000431C02D12B6803B1236038BDCC000020A5
:101E600038B5074D04460846114600222A601A4636
:101E7000FEF76CF9431C02D12B6803B1236038BD17
:101E8000CC00002000000000000000000000000066
:101E900001F0FF01102A2BDB10F0070F08D010F81B
:101EA000013B013A8B422DD010F0070F42B3F6D11F
:101EB000F0B441EA012141EA014122F007047FF038
:101EC00000070023F0E80256083C85EA010586EA8F
:101ED000010685FA47F5A3FA87F586FA47F6A5FACB
:101EE00087F68EB9EED1F0BC01F0FF0102F00702D7
:101EF00032B110F8013B013A83EA010313B1F8D182
:101F00000020704701387047002D06BF3546033862
:101F1000073815F0010F07D1013015F4807F02BF9B
:101F2000013015F4C03F0130F0BC0138704700BFEC
:101F30000A44914200F1FF3300D1704710B511F807
:101F4000014B03F8014F9142F9D110BD0148FEF752
:101F500008BD00BFD00000200148FEF703BD00BF50
:101F6000D00000202DE9F041804614460E4621B9EC
:101F7000BDE8F0411146FEF7C5BD2AB9FEF758FD90
:101F800025462846BDE8F08100F02EF88442074639
:101F900002D8B4EB500F12D821464046FEF7B2FDEE
:101FA00005460028EDD0BC422246314628BF3A46BD
:101FB000FFF7BEFF31464046FEF73AFDE1E7354602
:101FC000DFE7000038B5074D0446084611460022F9
:101FD0002A601A46FEF78EF8431C02D12B6803B123
:101FE000236038BDCC00002051F8043C181F002BA2
:101FF000BCBF0B58C01870472564204C4544207363
:10200000746174652069732073657420746F3A205D
:1020100025640A0D000000002564204C454420730F
:10202000746174652069732063757272656E746C77
:10203000793A2025640A0D00506C6561736520654E
:102040006E7465722061206E756D6265723A200053
:1020500025640000596F7520656E74657265643A79
:102060002025640D0A000000506C656173652065D1
:102070006E746572206120737472696E673A200015
:1020800025730000596F7520656E74657265643A3A
:102090002025730D0A0000000D0000000400002040
:1020A0000000000000000000000000000000000030
:1020B0000000000000000000000000000000000020
:1020C0000000000000000000000000000000000010
:1020D0000000000000000000000000000000000000
:1020E00000000000000000000000000000000000F0
:1020F00000000000000000000000000000000000E0
:10210000232D302B2000686C4C00656667454647E0
:102110000030313233343536373839414243444563
:1021200046003031323334353637383961626364D2
:102130006566002B2D00303000785800412D466137
:102140002D66383930313233343536375D00000092
:102150003321000836210008392100080020202002
:102160002020202020202828282828202020202047
:102170002020202020202020202020202088101017
:102180001010101010101010101010101004040473
:102190000404040404040410101010101010414131
:1021A000414141410101010101010101010101011F
:1021B0000101010101010101101010101010424233
:1021C00042424242020202020202020202020202EF
:1021D000020202020202020210101010200000008F
:1021E00000000000000000000000000000000000EF
:1021F00000000000000000000000000000000000DF
:1022000000000000000000000000000000000000CE
:1022100000000000000000000000000000000000BE
:1022200000000000000000000000000000000000AE
:10223000000000000000000000000000000000009E
:10224000000000000000000000000000000000008E
:10225000000000000000000000000000000000007E
:10226000F8B500BFF8BC08BC9E467047F8B500BF83
:0C227000F8BC08BC9E467047000000004F
:10227C000400002000000000C0200008E02000083E
:10228C00A02000080000000000000000000000007A
:10229C000000000000000000000000000000000032
:1022AC000000000000000000000000000000000022
:1022BC000000000000000000000000000000000012
:1022CC000000000000000000000000000000000002
:0422DC0000000000FE
:04000005080000D11E
:00000001FF
