:020000040800F2
:10000000000002208500000881000008810000082F
:100010008100000881000008810000080000000045
:100020000000000000000000000000008100000847
:100030008100000800000000810000088100000825
:1000400010B5054C237833B9044B13B10448AFF312
:1000500000800123237010BD640000200000000018
:10006000C816000808B5034B1BB103490348AFF39A
:10007000008008BD0000000068000020C8160008CD
:10008000FEE700BF0F48104A904208B507D2013A78
:10009000121A22F003020D49043200F057FA0C48FC
:1000A0000C4A904207D2013A121A22F0030204329B
:1000B000002100F059FA00F00FF800F013FA00F0F8
:1000C00067F9FEE70000002064000020D816000851
:1000D000640000209C000020704700BF38B53B4DF5
:1000E0002B6B017043F00803427004462B63032915
:1000F00018D8DFE801F0432E0219354B354819684E
:1001000021F040511960196841F080511960596916
:10011000012A0CBF41F4804121F480415961022140
:1001200000F008FB204638BD294B196821F04041FA
:100130001960196841F080411960012A59693CD061
:1001400021F4004159612348032100F0F3FA2046CD
:1001500038BD1F4B196821F040611960196841F0E2
:1001600080611960012A59691FD021F40051596139
:100170001848012100F0DEFA204638BD144B15481E
:10018000196821F040711960196841F08071196097
:100190005969012A0CBF41F4805121F48051596101
:1001A000002100F0C7FA204638BD41F400515961E2
:1001B0000848114600F0BEFAB4E741F40041596125
:1001C0000448032100F0B6FAACE700BF0038024053
:1001D000000C0240B8150008037810B50A46044622
:1001E0004170032B0DD8DFE803F064492E125969E2
:1001F00021F4804159615D48022100F09BFA237887
:1002000062785A48BDE81040194600F093BA584B3E
:10021000196821F0404119601968012A41F08041B4
:10022000196000F09080022A69D15A69514882F41D
:1002300000425A615A690321C2F3C03200F07AFACF
:1002400023786278DDE74A4B196821F04051196044
:100250001968012A41F08051196078D0022AC6D16C
:10026000586980F48040586111465A694148C2F388
:10027000803200F05FFA23786278C2E73C4B19685D
:1002800021F0406119601968012A41F0806119600C
:1002900061D0022A28D15A69364882F400525A6144
:1002A0005A690121C2F3403200F044FA237862789F
:1002B000A7E72F4B196821F0407119601968012ACE
:1002C00041F0807119603AD0022A28D15A69294830
:1002D00082F480525A615A690021C2F3003200F060
:1002E00029FA237862788CE75969204821F4005173
:1002F0005961012100F01EFA2378627881E759697B
:1003000021F4004159611948032100F013FA2378C0
:1003100062781648BDE81040194600F00BBA5969DA
:1003200021F4805159611148002100F003FA23782B
:1003300062780E48BDE81040194600F0FBB95969D3
:1003400041F48051EEE7596941F40041DAE7596917
:1003500041F480414EE7586940F40050586111461D
:10036000024800F0E7F9237862784AE7B8150008F8
:10037000000C0240D815000810B504460348627806
:10038000217800F0D7F9607810BD00BFF81500089B
:1003900030B5012283B0114601A8FFF79FFE02206D
:1003A00000F07CF8012202210546FFF797FE0220AB
:1003B00000F074F8012203210446FFF78FFE1A486B
:1003C000FFF7DAFF01A8FFF7D7FF2846FFF7D4FFB2
:1003D0002046FFF7D1FF14480221FFF7FDFE02215E
:1003E00001A8FFF7F9FE02212846FFF7F5FE204697
:1003F0000221FFF7F1FE0221284600F04DF82046C9
:10040000022100F049F8084C02212046FFF7E4FEE3
:10041000022101A8FFF7E0FE044B00BF1A46013B92
:10042000002AFAD1F0E700BF80000020FF340C0062
:10043000024801220021FFF751BE00BF80000020CA
:1004400010467047002070474FF0FF30704700BFE4
:100450004FF400534B600020704700BF01207047ED
:1004600000207047FEE700BF024B16221A604FF0D3
:10047000FF3070479400002001207047044A05496E
:100480001368002B08BF0B461844106018467047CD
:10049000840000209C00002000F011B8012838BF23
:1004A000012010B50446204600F040F830B900F0B5
:1004B00009F808B900F00EF88047F4E710BD00F025
:1004C0003DB80000024B1868BFF35B8F704700BF58
:1004D0008800002008B5062000F07CF90120FFF715
:1004E000C1FF000070B50D4D0D4C641BA41000261B
:1004F000A64209D10B4D0C4C01F0DAF8641BA41094
:100500000026A64205D170BD55F8043B9847013638
:10051000EEE755F8043B98470136F2E7CC160008A1
:10052000CC160008CC160008D4160008024B014671
:10053000186800F08BB800BF00000020024B014695
:10054000186800F019B800BF000000200A4491426A
:1005500000F1FF3300D1704710B511F8014B03F8DB
:10056000014F9142F9D110BD02440346934200D19C
:10057000704703F8011BF9E738B50546002941D05B
:1005800051F8043C0C1F002BB8BFE41800F036FAF9
:100590001D4A136833B9636014602846BDE83840CB
:1005A00000F032BAA34208D9206821188B4201BF5B
:1005B00019685B6809182160EDE71A465B680BB1A2
:1005C000A342FAD911685018A0420BD12068014407
:1005D000501883421160E0D118685B685360014491
:1005E0001160DAE702D90C232B60D6E720682118C6
:1005F0008B4204BF19685B68636004BF09182160FF
:100600005460CAE738BD00BF8C00002070B50E4EA4
:100610000C463168054611B900F0A4F83060214657
:10062000284600F09FF8431C0AD0C41C24F00304A1
:10063000A04207D0211A284600F094F8013001D1D9
:100640004FF0FF34204670BD900000202DE9F041AE
:10065000CD1C25F0030508350C2D38BF0C25002DC9
:10066000074601DBA94205D90C233B600026304632
:10067000BDE8F0812E4E00F0C1F933681C4634BB52
:1006800029463846FFF7C2FF431C04464DD1346863
:100690002646002E40D123683146384604EB030835
:1006A00000F060F880453AD1216803356D1A25F0D5
:1006B000030508350C2D38BF0C2529463846FFF7B1
:1006C000A5FF01302BD023682B4423600EE0226865
:1006D000521B1ED40B2A16D96119A342256018BFDC
:1006E0005960636808BF316062514B60384604F15D
:1006F0000B0600F089F926F00706231DF21AB6D082
:100700009B1BA350B3E76268A3420CBF32605A60E0
:10071000ECE723466468B2E734467668B9E70C2311
:100720003B60384600F070F9A1E72560DEE700BFC6
:100730008C0000200FB40A4B13B51C6824B1A369C8
:1007400013B9204600F0BAF805AB049AA1680193EA
:10075000204600F087F902B0BDE8104004B07047B1
:100760000000002038B5064D0023044608462B60E3
:10077000FFF784FE431C02D12B6803B1236038BD10
:10078000940000201F2938B504460D4604D91623CD
:1007900003604FF0FF3038BD426C12B152F8213087
:1007A0004BB9204600F030F82A4601462046BDE805
:1007B000384000F017B8012B0AD0591C03D116237A
:1007C00003600120E7E7002442F8254028469847C7
:1007D0000020E0E7024B01461868FFF7D3BF00BFD7
:1007E0000000002038B5074D002304460846114696
:1007F0002B60FFF739FE431C02D12B6803B1236045
:1008000038BD00BF94000020FFF736BE002310B5AE
:100810000446C0E90033C0E9043383608181436644
:10082000C2818361194608225C30FFF79DFE054BAB
:100830006362054BA362054BE362054B24622363AD
:1008400010BD00BFED0F00080F1000084710000892
:100850006B100008014900F0AFB800BF3D1300085D
:1008600070B568224D1E55430E4605F17401FFF721
:10087000EDFE044640B10021C0E900160C30A06036
:1008800005F16802FFF770FE204670BD014800F0D8
:10089000B3B800BF99000020014800F0AEB800BF17
:1008A00099000020014800F0A7B800BF9A0000207E
:1008B000014800F0A2B800BF9A00002010B504461D
:1008C000FFF7F0FFA3691BB1BDE81040FFF7F0BFD1
:1008D000C4E912332365134B134A1B68A262A34277
:1008E00004BF0123A361204600F020F86060204689
:1008F00000F01CF8A060204600F018F80022E0602C
:1009000004216068FFF782FFA06801220921FFF738
:100910007DFFE06802221221FFF778FF0123A36127
:10092000D2E700BF1816000855080008F8B50746BA
:10093000FFF7ACFF1E4B1E68B36913B93046FFF7D3
:10094000BDFF4836D6E90134013B03D533680BB30C
:100950003668F7E7B4F90C50D5B9164BE36004F1EB
:100960005800656600F047F8FFF796FFC4E90155A7
:10097000C4E904552560A5610822294604F15C00FC
:10098000FFF7F2FDC4E90D55C4E912552046F8BD44
:100990006834D9E704213846FFF762FF0446306027
:1009A0000028D5D1FFF778FF0C233B60EEE700BFAE
:1009B000181600080100FFFF2DE9F8430646884697
:1009C00000F148040027D4E90195B9F1010905D5E2
:1009D0002468002CF7D13846BDE8F883AB89012B99
:1009E00007D9B5F90E30013303D029463046C04748
:1009F00007436835E9E77047704770470148FFF7DC
:100A0000FBBF00BF980000200148FFF7F6BF00BF02
:100A1000980000209368013B002B10B4936007DA24
:100A20009469A34201DB0A2902D110BC00F022BB69
:100A30001368581C10601970084610BC7047F8B550
:100A400006460F461446D518AC4201D1002007E0F7
:100A500014F8011B3A463046FFF7DCFF431CF3D184
:100A6000F8BD00002DE9F04F0D469DB014469846A4
:100A7000064618B183690BB9FFF720FF894B9D42E9
:100A80001BD175686B6ED90705D4AB899A0502D462
:100A9000A86DFFF7B1FFAB891B0701D52B69EBB937
:100AA0002946304600F04AFBC0B16B6EDC070ED51C
:100AB0004FF0FF301DB0BDE8F08F7B4B9D4201D160
:100AC000B568DFE7794B9D4208BFF568DAE7AB8987
:100AD0009805EDD4A86DFFF790FFE9E7002309938F
:100AE00020238DF82930CDF80C803023DFF8C08129
:100AF0008DF82A304FF0010923469A4613F8012B4E
:100B00000AB1252AF9D1BAEB040B0BD05B46224679
:100B100029463046FFF793FF013000F0AA80099A7A
:100B20005A4409929AF80030002B00F0A28000236A
:100B30004FF0FF32CDE905230AF1010A0493079330
:100B40008DF853301A935446052214F8011B584867
:100B500000F0AEFC049AD8B9D10644BF20238DF82A
:100B60005330130744BF2B238DF853309AF80030CD
:100B70002A2B15D0079A544600204FF00A0C214624
:100B800011F8013B303B092B4ED9B0B1079214E06C
:100B9000A0EB080309FA03F313430493A246D2E738
:100BA000039B191D1B680391002BBBBF5B4242F0E6
:100BB000020207930793B8BF049223782E2B0CD11F
:100BC00063782A2B35D1039B1A1D1B680392002BD7
:100BD000B8BF4FF0FF3302340593DFF8D8A0217877
:100BE0000322504600F064FC40B14023A0EB0A0011
:100BF00003FA00F0049B03430134049314F8011B2F
:100C00002D488DF82810062200F052FC00283FD015
:100C10002A4B1BBB039B073323F0070308330393C3
:100C2000099B3B44099367E70CFB02320C46012009
:100C3000A5E700230134059319464FF00A0C20461E
:100C400010F8012B303A092A03D9002BC5D00591A1
:100C5000C3E70CFB012104460123F0E703AB00933B
:100C60002A46174B04A93046AFF300800746781C8C
:100C7000D6D16B6ED90705D4AB899A0502D4A86D7D
:100C8000FFF7BBFEAB895B063FF512AF099811E792
:100C900003AB00932A460A4B04A9304600F080F8C3
:100CA000E4E700BF3C1600085C1600081C160008AC
:100CB0007C16000882160008861600080000000056
:100CC0003F0A00082DE9F047164699468A680B69E5
:100CD000DDF820809342B8BF1346336091F843207B
:100CE00007460C460AB1013333602368990642BFB8
:100CF000336802333360256815F0060506D104F128
:100D0000190AE36832689B1AAB4226DC94F8432048
:100D1000131E226818BF012392062BD404F143024C
:100D200049463846C04701301ED02368E56832681E
:100D300003F00603042B08BFAD1AA36822690CBF99
:100D400025EAE57500259342C4BF9B1AED180026DD
:100D50001A34B5421AD1002008E001235246494610
:100D60003846C047013003D14FF0FF30BDE8F0876F
:100D70000135C6E7E1185A1C302081F843002244AF
:100D800094F8451082F843100233C7E70123224646
:100D900049463846C0470130E6D00136D9E7000061
:100DA0002DE9FF470F7E0C9D782F914680460C461B
:100DB0009A4601F1430207D8622F0AD8002F00F0AB
:100DC000D880582F00F0A38004F1420584F84270C7
:100DD0003AE0A7F16303152BF6D801A151F823F0EF
:100DE000390E00084D0E0008C90D0008C90D000895
:100DF000C90D0008C90D00084D0E0008C90D0008F6
:100E0000C90D0008C90D0008C90D0008590F0008D8
:100E10007D0E00083B0F0008C90D0008C90D000831
:100E20007B0F0008C90D00087D0E0008C90D0008E1
:100E3000C90D0008430F00082B681A1D1B682A60A3
:100E400004F1420584F842300123A3E020682968B8
:100E5000060601F104030AD50E682B60002E03DAA2
:100E60002D23764284F843305E480A2319E00E6849
:100E70002B6010F0400F18BF36B2EFE72B682068E8
:100E8000191D2960010601D51E6802E04606FBD542
:100E90001E8854486F2F0CBF08230A23002184F8B2
:100EA00043106568A560002DA2BF216821F00401F0
:100EB00021600EB9002D4DD01546B6FBF3F103FBB2
:100EC0001167C75D05F8017D3746BB420E46F4D970
:100ED000082B0BD12368DE0708D523696168994286
:100EE000DEBF302305F8013C05F1FF35521B2261BE
:100EF000CDF800A04B4603AA21464046FFF7E2FE8C
:100F000001304CD14FF0FF3004B0BDE8F0873548D8
:100F100081F845702968236851F8046B29601D0623
:100F200014D5DF0744BF43F0200323601EB92368B4
:100F300023F0200323601023B0E7236843F020034D
:100F400023607823284884F84530E3E7590648BFF2
:100F5000B6B2E6E71546BBE72B6826686169181D3F
:100F6000286035061B6801D5196002E07006FBD5C4
:100F70001980002323611546BAE72B681A1D2A60E1
:100F80001D6862680021284600F092FA08B1401BF3
:100F9000606063682361002384F84330A8E7236915
:100FA0002A4649464046D0470130ABD023689B07CC
:100FB00013D4E068039B9842B8BF1846A4E7012306
:100FC000324649464046D04701309BD00135E36860
:100FD00003995B1AAB42F2DCEBE7002504F119063A
:100FE000F5E700BF8D1600089E16000810B50C46E8
:100FF000B1F90E1000F0ACFA0028ABBF636DA38905
:101000001B1823F48053ACBF6365A38110BD2DE989
:10101000F0411F468B89DB0505460C46164605D573
:10102000B1F90E100223002200F0C4F9A389B4F92B
:101030000E1023F48053A38132463B462846BDE878
:10104000F04100F069B810B50C46B1F90E1000F08F
:10105000B1F9431CA38915BF606523F4805343F4A1
:101060008053A38118BFA38110BDB1F90E1000F009
:10107000D3B80000F8B50E461446054618B183698A
:101080000BB9FFF71BFC214B9C422BD16C68A36969
:10109000A360A3891A072FD523696BB3236920683E
:1010A000C01A6369F6B28342374604DC21462846FB
:1010B00000F044F930BBA368013BA36023685A1CCD
:1010C00022601E7063690130834204D0A389DB076C
:1010D00006D50A2E04D12146284600F02FF988B9FA
:1010E0003846F8BD0A4B9C4201D1AC68CFE7094BAA
:1010F0009C4208BFEC68CAE72146284600F01EF86B
:101100000028CBD04FF0FF37EAE700BF3C160008BD
:101110005C1600081C16000838B5074D0446084642
:10112000114600222A601A46FFF78AF9431C02D1B1
:101130002B6803B1236038BD94000020324B70B59A
:101140001D6806460C4625B1AB6913B92846FFF762
:10115000B5FB2E4B9C420FD16C68A389B4F90C20CF
:1011600019072CD4DD0611D40923336042F0400363
:10117000A3814FF0FF303EE0254B9C4201D1AC688B
:10118000EBE7244B9C4208BFEC68E6E7580712D512
:10119000616B41B104F14403994202D03046FFF73C
:1011A000EBF900236363A38923F02403A3810023C5
:1011B000636023692360A38943F00803A381236943
:1011C0004BB9A38903F42073B3F5007F03D0214604
:1011D000304600F027F9A089B4F90C2010F0010383
:1011E0000AD00023A36063695B42A361236943B90A
:1011F00010F08000BAD170BD810758BF6369A36049
:10120000F4E70020F7E700BF000000203C160008CC
:101210005C1600081C16000838B5064D002304466D
:1012200008462B60FFF710F9431C02D12B6803B16D
:10123000236038BD940000208A89F8B50546100760
:101240000C4657D44B68002B04DC0B6C002B01DCE4
:101250000020F8BDE66A002EFAD0002312F4805276
:101260002F682B6032D0606DA3895A0705D563685B
:10127000C01A636B0BB1236CC01A00230246E66AE6
:10128000216A2846B047431CA38906D129681D2935
:101290002CD8294ACA40D60728D500226260D90432
:1012A0002269226004D5421C01D12B6803B9606514
:1012B000616B2F600029CBD004F14403994202D026
:1012C0002846FFF759F900206063C2E7216A01232D
:1012D0002846B047411CC7D12B68002BC4D01D2B1A
:1012E00001D0162B01D12F60B2E7A38943F0400350
:1012F000A381AEE70F69002FAAD093070E6808BF3D
:101300004B690F6018BF0023F61B8B60002E9FDD1A
:10131000216AD4F828C033463A462846E0470028D8
:1013200006DCA38943F04003A3814FF0FF3090E730
:101330000744361AEAE700BF0100402038B50B69C0
:1013400005460C4613B90025284638BD18B18369F7
:101350000BB9FFF7B3FA144B9C421BD16C68B4F97C
:101360000C30002BEFD0626ED00704D4990502D464
:10137000A06DFFF741FB28462146FFF75DFF636E36
:10138000DA070546E0D4A3899B05DDD4A06DFFF7FD
:1013900034FBD9E7054B9C4201D1AC68DFE7044B35
:1013A0009C4208BFEC68DAE73C1600085C160008AF
:1013B0001C16000838B5074D0446084611460022A1
:1013C0002A601A46FFF74CF8431C02D12B6803B180
:1013D000236038BD9400002070B50E46B1F90E10A0
:1013E000002996B014461D4608DAB6F90C300022E2
:1013F0002A601A0610D44FF480630EE06A4600F0AB
:10140000B9F80028F1DB019A02F47042A2F500530A
:101410005A425A412A60EEE740230020236016B06A
:1014200070BD00008B8973B59D0706460C4607D535
:1014300004F14703236023610123636102B070BD9F
:1014400001AB6A46FFF7C8FF009905463046FFF733
:10145000FDF848B9B4F90C309A05EFD423F0030332
:1014600043F00203A381E3E70D4BB362A38920603D
:1014700043F08003A381009B6361019B20615BB10A
:10148000B4F90E10304600F087F828B1A38923F094
:10149000030343F00103A381A0890543A581CDE7A0
:1014A00055080008000000000000000000000000D7
:1014B00001F0FF01102A2BDB10F0070F08D010F805
:1014C000013B013A8B422DD010F0070F42B3F6D109
:1014D000F0B441EA012141EA014122F007047FF022
:1014E00000070023F0E80256083C85EA010586EA79
:1014F000010685FA47F5A3FA87F586FA47F6A5FAB5
:1015000087F68EB9EED1F0BC01F0FF0102F00702C0
:1015100032B110F8013B013A83EA010313B1F8D16B
:101520000020704701387047002D06BF354603384C
:10153000073815F0010F07D1013015F4807F02BF85
:10154000013015F4C03F0130F0BC0138704700BFD6
:1015500038B5074D04460846114600222A601A464F
:10156000FEF770FF431C02D12B6803B1236038BD26
:101570009400002038B5074D002304460846114664
:101580002B60FEF765FF431C02D12B6803B123607B
:1015900038BD00BF9400002038B5064D0023044636
:1015A00008462B60FEF75AFF431C02D12B6803B19B
:1015B000236038BD940000202564204C45442073EE
:1015C000746174652069732073657420746F3A20A8
:1015D00025640A0D000000002564204C4544207459
:1015E0006F67676C65642C206E6577207374617417
:1015F000653A2025640A0D002564204C454420737B
:10160000746174652069732063757272656E746CA1
:10161000793A2025640A0D00040000200000000033
:1016200000000000000000000000000000000000BA
:1016300000000000000000000000000000000000AA
:10164000000000000000000000000000000000009A
:10165000000000000000000000000000000000008A
:10166000000000000000000000000000000000007A
:10167000000000000000000000000000232D302BBF
:101680002000686C4C006566674546470030313283
:1016900033343536373839414243444546003031DA
:1016A0003233343536373839616263646566000039
:1016B000F8B500BFF8BC08BC9E467047F8B500BF3F
:0C16C000F8BC08BC9E467047000000000B
:0816CC0065000008310400086C
:0416D40041000008C9
:1016D80004000020000000003C1600085C1600080A
:1016E8001C160008000000000000000000000000B8
:1016F80000000000000000000000000000000000E2
:1017080000000000000000000000000000000000D1
:1017180000000000000000000000000000000000C1
:1017280000000000000000000000000000000000B1
:0417380000000000AD
:04000005080000856A
:00000001FF
