:020000040800F2
:1000000000000220BD040008B9040008B90400087B
:10001000B9040008B9040008B90400080000000091
:10002000000000000000000000000000B90400080B
:10003000B904000800000000B9040008B904000871
:1000400030B42F4C0160A1423CD02E4CA14211D0C3
:10005000B1F1804F47D02C4CA1424AD02B4CA14249
:100060003BD02B4CA1420AD12A4D2C6C44F0080401
:100070002C6404E0274D6C6C44F480346C648A6218
:10008000CB628B691E4A43F060038B618B6943F03E
:1000900080038B610B6A23F002030B620B6A43F04F
:1000A00001030B620B6843F080030B604B699142C4
:1000B00043F001034B610BD00B6843F0010330BCEC
:1000C0000B607047134D6C6C44F001046C64D6E710
:1000D0004B6C43F080034B64EEE70E4D2C6C44F008
:1000E00004042C64CBE70B4D2C6C44F001042C640D
:1000F000C5E7084D2C6C44F002042C64BFE700BF38
:1001000000000140004001400004004000080040A1
:10011000000C004000380240184B994214D0184B94
:1001200099420CD0B1F1804F18D0164B99421AD099
:10013000154B99420DD0154B994219D07047536C0D
:1001400043F4803353647047536C43F001035364AA
:100150007047136C43F0040313647047136C43F04F
:10016000010313647047136C43F002031364704778
:10017000136C43F008031364E0E700BF0000014084
:10018000004001400004004000080040000C004016
:100190008A62CB628B69144A43F060038B618B697E
:1001A00043F080038B610B6A23F002030B620B6A3E
:1001B00043F001030B620B6843F080030B604B6953
:1001C000914243F001034B6104D00B6843F00103FB
:1001D0000B6070474B6C43F080034B640B6843F03B
:1001E00001030B60704700BF0000014010B51C4ABE
:1001F0001C488EB003231021CDE903310521CDE940
:100200000121194B00905A22002106A800F0AEF8F7
:100210005A2106A800F0F8F806A800F021F90024F9
:10022000214606A800F0F0F8104B00BF1A46013B2B
:10023000002AFAD10A34E4B2BE2CF1D1B424E1B2DE
:1002400006A800F0E1F8094B00BF1A46013B002A5E
:10025000FAD10A3C24B214F10A0FF0D1DFE700BF53
:100260000038024000100240004001403F420F00B1
:1002700002698169136B70B50B431363057DC36815
:10028000427D1C6805F00F014E004FF0030C0CFA84
:1002900006FC24EA0C041C6018680224B4400443E1
:1002A0001C60D86820EA0C00D860986820EA0C002E
:1002B00098609C680120B04020439860280702F0B5
:1002C0000F020CD4186A89000F248C4020EA040025
:1002D0001862186A02FA01F10143196270BD8E4674
:1002E0000839586A89000F248C4020EA04005862BB
:1002F000586A8A4002435A6270BD00BF38B504464E
:1003000000F11C05026941682846FFF705FF616896
:10031000C82340F23F622846FFF73AFF217863780E
:100320006268012910D1A3F15901022916D90D499A
:100330005A3B81FB0301DB17C3EBA1030F33142BE3
:10034000A8BF1423536338BD074903EB83035B083D
:10035000A1FB03139B080A33536338BD0F23536378
:1003600038BD00BF398EE338176CC11638B5044666
:1003700018462170606001469DF8180020751546EA
:100380009DF81C00049B607500220898A270A26072
:10039000059AE3602261C82340F23F62A061657064
:1003A00004F11C00FFF74CFE2046FFF761FF2046DA
:1003B000FFF7A4FF22786368012A11D1A5F1590241
:1003C000022A18D90E4A5A3D82FB0512ED17C5EBD9
:1003D000A2050F35142DA8BF14255D63204638BD36
:1003E000084A05EB85056D08A2FB0525AD080A3511
:1003F0005D63204638BD0F255D63204638BD00BFD4
:10040000398EE338176CC116B429034615D88078A5
:10041000597098B118785A68012810D1A1F1590380
:10042000022B17D90C4B5A3983FB0103C917C1EBB7
:10043000A3030F335363002070470120704701EB83
:10044000810106484B08A0FB03139B080A33536342
:10045000002070470F23FAE7398EE338176CC11676
:100460000178426801230129837043780FD1A3F1F9
:100470005901022919D90E495A3B81FB0301DB17A7
:10048000C3EBA1030F33142BA8BF142307E00949C2
:1004900003EB83035B08A1FB03139B080A3353633D
:1004A000136843F00103136070470F23F7E700BFA1
:1004B000398EE338176CC116FEE700BF0E480F4AAD
:1004C000904208B507D2013A121A22F003020C49F1
:1004D000043200F01DF80B480B4A904207D2013A53
:1004E000121A22F003020432002100F01FF800F07B
:1004F0000DF8FFF77BFEFEE7000000200000002063
:10050000580500080000002000000020704700BFD0
:100510000A44914200F1FF3300D1704710B511F841
:10052000014B03F8014F9142F9D110BD024403463B
:10053000934200D1704703F8011BF9E7F8B500BFFB
:10054000F8BC08BC9E467047F8B500BFF8BC08BCB4
:080550009E4670470000000008
:04000005080004BD2E
:00000001FF
