:020000040800F2
:10000000000002203506000831060008310600080D
:100010003106000831060008310600080000000023
:100020000000000000000000000000003106000891
:100030003106000800000000310600083106000803
:100040002D4A036893421FD02C4A934215D02C4A64
:10005000934227D02B4A93422BD02B4A93421AD05B
:100060002A4A93422CD02A4A934237D0294A9342B3
:100070003BD0294A93422AD0704702F55052136B65
:1000800043F002031363704702F56052136B43F0B1
:1000900001031363704702F52052136B43F0100302
:1000A0001363704702F54052136B43F0040313636C
:1000B000704702F53052136B43F008031363704727
:1000C00002F51052136B43F020031363704702F5DF
:1000D000C052136B43F480731363CDE702F50052F3
:1000E000136B43F040031363704702F5E052136B48
:1000F00043F0800313637047000002400004024095
:1001000000080240000C02400010024000140240AF
:1001100000180240001C0240002002402DE9F84F68
:100120001646C0E90012FFF78BFF0546376800232B
:1001300001224FF0030802E00133102B2FD002FA06
:1001400003FE3EEA0700F7D170685C0020F010095A
:1001500008FA04FAB9F1020F6FEA0A0C09F1FF3943
:1001600020D0D1F800B02BEA0A0B00F0030A0AFAFB
:1001700004FA4AEA0B0AB9F1010FC1F800A03BD911
:10018000B068D1F80CE000F003000EEA0C0C00FAA5
:1001900004F4013344EA0C04102BCC60CFD1284680
:1001A000BDE8F88F34694FEAD30901EB890903F000
:1001B000070C4FEA8C0C4FF00F0A04F00F0404FAFE
:1001C0000CF40AFA0CFCD9F820A02AEA0C0C44EA38
:1001D0000C04C9F82040D1F800A05C0008FA04FC27
:1001E00000F003092AEA0C0A09FA04F949EA0A09A3
:1001F0006FEA0C0CC1F80090D1F808A0D6F80C906A
:100200000AEA0C0A09FA04F949EA0A09C1F808904D
:10021000D1F80490C0F30010984029EA0E0E40EA8D
:100220000E004860ACE700BF1E4A8368934216D0B8
:100230001D4A93420CD0B3F1804F1ED01B4A93420B
:1002400021D01B4A934211D01A4A934222D07047C0
:1002500002F57842536C43F480335364704702F5DF
:100260009C32536C43F001035364704702F50C3227
:10027000136C43F00403136470470F4A136C43F08C
:1002800001031364704702F50D32136C43F002034F
:100290001364704702F50B32136C43F008031364C8
:1002A000D5E700BF000001400040014000040040CD
:1002B00000080040000C0040003802408368C2681B
:1002C000144910B484889C62DA629A6942F0600230
:1002D0009A619A6942F080029A611A6A22F00202D7
:1002E0001A621A6A42F001021A621A6842F0800227
:1002F0001A605A698B4242F001025A6105D01A68AD
:1003000010BC42F001021A6070475A6C42F0800241
:100310005A64F4E7000001400378013B032B06D840
:10032000DFE803F00E0A0602836842881A64704709
:1003300083684288DA637047836842889A637047AB
:10034000836842885A63704708B542808380DDE93C
:1003500002320170C0E90223FFF766FFFFF7AEFF2C
:10036000FFF7DAFF08BD00BF0378013B032B05D878
:10037000DFE803F00B08050283681964704783689F
:10038000D96370478368996370478368596370477E
:100390008268136843F001031360704730B5214D44
:1003A0009DB0C824CDE9004540F23F634FF4FA7296
:1003B00001210AA8FFF7C8FF20230E930223002182
:1003C000012003220F93184B0794CDE910100490DD
:1003D00001920293129205234FF4FA700EAA40F292
:1003E0003F6400930590114B039208955A2206949E
:1003F00013A800F01FF85A2113A800F0ADF813A8B5
:1004000000F0D8F80024214613A800F0A5F8084B06
:1004100000BF1A46013B002AFAD10A34E4B2BE2CCE
:10042000F1D1EFE7004001400010024000380240E7
:100430003F420F002DE9F04F85B09846159B009381
:1004400000F11407169B01930546BDF850309DF846
:1004500038B0DDF840909DF83CA00E4614469DF85B
:100460004810BDF84C203846FFF76EFF119BAB607B
:100470000023C5F80C8085F810B085F811A02E7007
:100480006C70C5F80490AB70B9F1000F2FD0119BC0
:100490006BB31A46494602A8FFF740FE2E786B78E8
:1004A000012E27D003EB8301294AC1F35D01A2FB92
:1004B000013189080A313846FFF756FF2B78012BA6
:1004C0002DD1A4F15903022B38D922495A3C81FB82
:1004D0000431E417C4EBA1010F3114293846A8BF39
:1004E0001421FFF741FF284605B0BDE8F08F012E2B
:1004F0002346D7D1A3F15902022A27D915495A3BDD
:1005000081FB0321DB17C3EBA1010F311429A8BF25
:1005100014213846FFF728FF2B78012BD1D00C4B44
:1005200004EB84014908A3FB0131890838460A31EC
:10053000FFF71AFF284605B0BDE8F08F38460F21B7
:10054000FFF712FF284605B0BDE8F08F0F21B2E794
:10055000176CC116398EE338B42917D808B503468D
:100560008078597000B908BD184610F8143B012B6B
:100570000ED1A1F15903022B16D90C4B5A3983FB2A
:100580000123C917C1EBA3010F3109E00120704716
:10059000074B01EB81014908A3FB013189080A31AE
:1005A000FFF7E2FE002008BD0F21F9E7398EE3389E
:1005B000176CC11602780123012A10B5837000F16F
:1005C0001404437816D1A3F15902022A22D91649FC
:1005D0005A3B81FB0321DB17C3EBA1010F31142927
:1005E0002046A8BF1421FFF7BFFE2046BDE81040FB
:1005F000FFF7CEBE03EB83010C4A4908A2FB013191
:10060000890820460A31FFF7AFFE2046BDE81040BA
:10061000FFF7BEBE20460F21FFF7A6FE2046BDE82D
:100620001040FFF7B5BE00BF398EE338176CC11616
:10063000FEE700BF0E480F4A904208B507D2013AC4
:10064000121A22F003020C49043200F01DF80B4884
:100650000B4A904207D2013A121A22F003020432E6
:10066000002100F01FF800F00DF8FFF797FEFEE7FD
:100670000000002000000020D0060008000000203C
:1006800000000020704700BF0A44914200F1FF3390
:1006900000D1704710B511F8014B03F8014F91429A
:1006A000F9D110BD02440346934200D1704703F8CC
:1006B000011BF9E7F8B500BFF8BC08BC9E467047BF
:1006C000F8B500BFF8BC08BC9E46704700000000AB
:0400000508000635B4
:00000001FF
