:020000040800F2
:1000000000000220ED020008E9020008E9020008F1
:10001000E9020008E9020008E90200080000000007
:10002000000000000000000000000000E9020008DD
:10003000E902000800000000E9020008E9020008E7
:100040003648374A016B41F002010163116821F41F
:1000500040511160116841F480511160116821F420
:1000600040211160116841F480211160516841F410
:1000700010715160D16821F44321D160D16841F4FD
:100080008221D160516941F4107140F2E73351612E
:1000900000BF1A46013B002AFAD1214909200B6909
:1000A0009B0517D44A6922F0400240F28F134A613F
:1000B00000BF1A46013B002AFAD14A6942F04002C9
:1000C00040F28F134A6100BF1A46013B002AFAD161
:1000D0000138E4D112494A6942F04002C7234A611B
:1000E00000BF1A46013B002AFAD10D494A6922F4A1
:1000F0000072C7234A6100BF1A46013B002AFAD1A9
:1001000007494A6942F4007240F28F134A6100BF06
:100110001A46013B002AFAD1704700BF003802405E
:100120000004024038B5304B304A196C41F40011DC
:100130001964196B41F002011963116821F0010182
:100140001160116841F40041054640F2E733116047
:1001500000BF1A46013B002AFAD1244C236823F43D
:1001600000432360FFF76CFF214B1A6822F44322FF
:100170001A601A6842F402221A601A6A22F0706247
:100180001A621A6A42F080621A625A6A22F0F00217
:100190005A625A6A42F040025A625A6842F4107235
:1001A0005A609A6842F402229A60DA6822F4432282
:1001B000DA60DA68102142F48222DA60616065B99F
:1001C00028220923E2612362084B4FF480429A609F
:1001D0001A6842F001021A6038BD012DF4D10D22D7
:1001E0000323E2612362EFE700380240005400403D
:1001F00000040240034A53691B06FCD5C0B21061DB
:10020000704700BF005400400A4A136882B043F4AC
:100210000073002113600191019BB3F57A7F07DA27
:1002200000BF019B01330193019BB3F57A7FF7DB9C
:1002300002B0704700540040064A93699907FCD405
:100240001368044943F4807313604B69DB07FCD5E2
:10025000704700BF005400400039104A18BF012108
:1002600041EA4001116101E05B050DD4536913F0CF
:100270000200F9D082B053690193019B9369019305
:10028000019B012002B07047536923F480635361DE
:10029000136843F400731360704700BF00540040BC
:1002A00008B50020FFF73EFFFFF7C6FF00217620CC
:1002B000FFF7D2FF40B9FFF7A7FF094B00BF1A466F
:1002C000013B002AFAD1EFE71520FFF793FFFFF774
:1002D0009BFF044B00BF1A46013B002AFAD1E3E71B
:1002E0009F8601003F0D0300FEE700BF08B5FFF742
:0C02F000D7FFFEE7F8B500BFF8B500BF6F
:04000005080002ED00
:00000001FF
